:100000000C946E070C94A6070C940B300C94A60766
:100010000C94A6070C94A6070C94A6070C94A607AC
:100020000C94A6070C94A6070C94A6070C945928C8
:100030000C9415280C942E290C94A6070C94A60752
:100040000C94A6070C94A6070C94A6070C940A29F6
:100050000C94A6070C94A6070C94A6070C94A6076C
:100060000C94A6070C94A6070C94A6070C94A6075C
:100070000C94A60705010902A10185020901A1004E
:10008000050919012905150025019505750181024C
:100090009501750381010501093009311581257F1D
:1000A00095027508810609381581257F9501750827
:1000B0008106050C0A38021581257F950175088196
:1000C00006C0C005010980A101850319012AB700F6
:1000D000150126B700950175108100C0050C0901B6
:1000E000A101850419012AA002150126A00295018B
:1000F00075108100C005010906A1018506050719D3
:10010000E029E71500250195087501810205071909
:100110000029EF1500250195F075018102050819E8
:10012000012905950575019102950175039101C09D
:100130000660FF0961A1010962150026FF009520F4
:10014000750881020963150026FF00952075089146
:1001500002C005010906A101050719E029E71500FC
:100160002501950875018102950175088101050732
:10017000190029FF150026FF009506750881000566
:1001800008190129059505750191029501750391DD
:1001900001C0007B46010203763A687F6577482BF1
:1001A000353B6978796439141E3C6A7A1D16041A45
:1001B0001F3D6B061B070821203E6C2C19091715E3
:1001C000223F6D11050B0A1C23406E7E100D182472
:1001D00025416F360E0C122726427037380F331325
:1001E0002D43717534322F2E44727C7D283031744A
:1001F000457351504A524D492A5466594F5C5F4CE1
:100200004B4E62635A5D5E60295367585B56576177
:1002100047554842403E3C3A3B456843413F3D2BB1
:10022000357E697A790078141E7B6A7C1D16041A63
:100230001F7F6B061B07082120656C2C19091715F9
:10024000224A6D11050B0A1C234C6E49100D18240F
:1002500025516F360E0C1227264F7037380F331387
:100260002D52717534502F2E4E72397D28304D31FC
:100270004B735464586776012A773259745C5F6611
:10028000020362635A5D5E60295344575B565561B1
:10029000474680291E1F20212223242526272D2E74
:1002A0002A2B141A0815171C180C12132F30287833
:1002B000041607090A0B0D0E0F33343579311D1B57
:1002C00006190511103637387D557A2C393A3B3CE2
:1002D0003D3E3F4041424353475F6061565C5D5E37
:1002E00057595A5B62634648644445677B7F6503A0
:1002F00001025250514F68696A6B6C6D6E6F70717C
:10030000725800494C754A4D734B4E767C777E741B
:100310006654FD377A585A000004E6D6B446020007
:10032000210116000000742FE5A3E055BB08015D14
:10033000003D8889C65436C3174FE4E6B5BBD59156
:10034000A18B3C5865A19C6B7B00D2C56778067B6E
:10035000FA733BAF6325648159BE288AD2CEC8396F
:10036000F88CD01BD471EDAD4A8B36E368FD524951
:10037000D45CF7FCD5E01201142871B572BE90A3CD
:100380009E1CB83637B72EE17ED53C463C8CC15F0B
:10039000DDA619EB579B62DDD4623FBA86D009DE39
:1003A00030EF70924B23973A41DA2CB0C63D9D9DB9
:1003B0004DCA7B9073B7655062D068E4D652A7717E
:1003C000C44FAA7FFAAF7050FCFF5625137BFCE5A3
:1003D00034F709146CF8DEF66299DB4D72BAB98C09
:1003E000EDCEF95702A4214D36B5BC027DDC0918CB
:1003F000E2272D046B0EA3BE67C46D2F77FE43A6C4
:10040000B29CBF104C420F1B875E8ACBA2D4533BD9
:1004100054C8886CE5E33CFDE3A7CE8E9EF0EA2944
:1004200071AC570B0C47668F1B240F5F672FB4E727
:100430003742CB5499E49866D02D46CB128F327256
:100440002FC6B8BD2DC58EDD8AC0A414CE51A90516
:10045000325354021B32A6C5F42AB62A31338B0E0E
:100460006FEB0B2BE18E8C7813167E85F1A40E407A
:10047000D0ACA1C0B7DE97A03F350B22481701A52D
:100480006767C47A93D843930EAC9DADE44E0F409A
:1004900052A11CAE0728FB38C40D5120062B5B5619
:1004A00066F0517CFF700BE8E4B4A8D216BDB39C93
:1004B000FFE9A69DF4168903F42EB7CA42E8152277
:1004C000395597E6133EEA921FD5ED05005F0C3FC4
:1004D000F1B42F4C91EC4CC3C054A9747F2CAAEA00
:1004E000075880BCEFF4909AF98CEEED1C314BFF6D
:1004F00011FFAB462335D6F22AB7F0744F77BC69AB
:10050000D4CC713CD7B5F59D57029253D2DC836FA2
:100510004C9218E708D0673F540345A72036508413
:10052000542A3B977DEB9331F9BFDC385883DE9A30
:10053000AFD17929F4E3227A38097FBC8F16A7D38B
:100540004EB460175333D932A4B17ADDC0FED38BD9
:1005500076DCDA0A87C5D5D9B8F9F4AD19E2E965D0
:100560004DE7E46142546C3B8FA2B1DED98F573026
:1005700005AC51C4ACDDB9CC53B81D84F76BD1D3F5
:1005800072A4F2EF13E139C1AB6A454D0D623C52E2
:10059000AF44A9B866A8157748D8B893FDBC727A5D
:1005A000BF9742910B7937D348DD560C2F4E883DCB
:1005B000BFD4536568C048132867CCDB5D57002B58
:1005C000832C7921D9CAE4CF56555C69990543D863
:1005D000BE8DDEC613A4F689E3BF9D390B4FCB5306
:1005E00063B224F5DB373DF76A63AC4707D8F227DF
:1005F000EA0F840617F5999816C09846B6806ECA19
:100600008A5656E0F5E56F8BE93CB2B0DB90852564
:100610000A7FAE17E83FF575E64E5116F61E612EBD
:10062000F6A4345E9D47277C6EC2046E78E3C3D087
:10063000872884D618ADC65E802CE990EF357A50B5
:100640007CB2106D57D3239121EAA412427C27DBA0
:1006500021F7E5C11D58A3DF531E535DEA90C57C09
:100660003AA8D430BFB8D0FA21391BEF4D127C3FE5
:10067000F5CECAF88CC7133989257E4EC8ECBE7FEB
:10068000175AA0A353107DF2C2C0B5B51CFB005C85
:10069000B87C57ECE20440F68AC3486495BAD92A7C
:1006A00009C0F1396C15A0B85F840A61D1FA2AEE4D
:1006B0003C07BC096DC86858AEC4A17C81125EAA13
:1006C0006C575AD8FA244E5FA0F8300913D97AFC37
:1006D0009A6A429BF73420A4C8E0EF9D2B6FF1CAC1
:1006E000B633E7962134B80BF98AA58023C4D1FB31
:1006F0006C80426E4C4C003BD7F96969839C23AEF9
:10070000B106635F946827EF1620AD8811F56DF38D
:10071000FA18FE30AC18F20B22E27405D69D3511A2
:10072000ED52A88AA694835F10219D4F87B076B2C0
:10073000BA0A1BF611112137B9502787888A24A4D9
:10074000B8544337B96A2026BC53AA04D558770257
:10075000723F33848AE0C258E7FDD83A0017B86C7C
:1007600085B69514F0827B6F957F74954719E517D0
:100770005C64F7E53D4BFE77BE13EFE303A6D7EBD2
:10078000D6CDE3E32816D7FAF72380C80F99D4B55E
:10079000C5A8A15825FF40FF6F6CE3BAFE1FFABB46
:1007A0004BB2E3A6472E47A575AD2201D5A266D26E
:1007B0000C1B5BC60B012F5572A86A2527C6E6B92C
:1007C000A8DA2468E75418EE03B9E31E4E30AB658F
:1007D000AB14DDF9B31F76B701CE793BC776B9020A
:1007E00084C35F35B157C5BEEC8406585C14D50E82
:1007F0001AFE1132884D635B4CB62100840783C515
:100800003FDC02D5BB560C5B805F6760606CD22E0C
:10081000997BEC1C817824B182899D04BD58F05CE1
:1008200024376EA58ADAC4540FD26EECE7CE22DFED
:10083000AAE775345E7F47608A97AE2F85D0D82EA1
:10084000FE6643CAE789C4A57F972A54B6BEDF2651
:10085000AD0A9E74725333DC659EEA94193D07D449
:10086000A2BB1083E454BA6670DFA524E076CB3DCA
:10087000B282C07802480CC154474D6600538EB90D
:100880007215562F7C64C67DD061202F231AB37F4A
:10089000F53A35344D37E5897D0519B0F68B711180
:1008A0001FC0C4DCE0D30AFB3BBD3B3C8FBB95368D
:1008B0008B3013F1260A7DC64521F54FFA2B079C94
:1008C000B8625E04AD66B1FE261D2AC0FE596619E7
:1008D00027FB49AB73C074C17FDB86321C6A0FD320
:1008E000927179791F4AE0870149D798B4DDF645BE
:1008F0009DD1265C2E25575AE49123D7C48CF03C19
:10090000EDA9BB0BCD45894A38969DC3A923C8F4F0
:100910006997223F08F4EBBECD5541C9DD20CFB524
:100920007F7E60208AAD04DC0788E6AAD34656D8CD
:10093000B5BE0A66EBFAD8A71FD84DC232E6CCF294
:10094000F1FCD5A762D0695EF73244126CAAE36E5F
:100950006399A265448ECA7D41BC4442959DC0FD09
:100960009950E6CAC282CE8AAE1CC84B5C191AFBEB
:10097000D914AABF3BB8596AFEC5606795DD968B4E
:10098000058FA7533B4D827CAAAC75C1F79440B14B
:10099000D7648B495CF7134360FE9526D61D74AD72
:1009A0006FA16773A735B357F754D93C7FE4916BB8
:1009B000ABE2F26AA8A227D777770E873D926B5CED
:1009C000C091D75760CC00E416943F382C058D4F6A
:1009D000F49E2C0FFBCEBFF77EC6B639381E1F6BB8
:1009E0006668BF957D082EA8B397FEED98BD0D8172
:1009F000BFAC9079572501B4586C7023B938C21335
:100A0000EDA4E6D7145EE5978B193AE96637A79F00
:100A100094506A98D52E05B79746AB589B37FDC0C2
:100A20004BDDA6B517F12486730768A7C442851964
:100A30004EAE654567429E89BD22705F144F673692
:100A40002E0295075F764F10ADC636AC0196569EC6
:100A5000D32DDEB52AC7E57DF91878785F42019A73
:100A60001346AD4428216BEC094EF2496F9B75ED9E
:100A700017728B74B9F00FC9559F200C489CF6373C
:100A80005DE72E0295BBD6A38D566A427066CB3BBE
:100A9000B544777B7A87B2767C3FE0EE188D387369
:100AA000CB2BD646C92728ED9B1473F320D56F7244
:100AB0003ADEF99939A3D5C47458249DBA87B34056
:100AC000DB85516D4A97AF46503828CBDDB86C179F
:100AD000F2D17EDA26237E664D3F9E7211A5D91D86
:100AE000FDE180A22802384D3776D5CA356BD5D6C0
:100AF00075442E1C9148AE31E602715DE527D7A3FF
:100B000028298803EF548F8E2DB2AF89A3365A5609
:100B1000ABBAA0642BEFCD215795DC546B64A14890
:100B2000854744D22145B95BB518F9DC8581390C7C
:100B3000D2A600000000E10A2C4C267946E0000114
:100B40009D10BCAB01002034DF99B1C467FB0200EB
:100B500000000004595A8800AA00A900A800040057
:100B6000050006000700080009000A000B000C0041
:100B70000D000E000F0010001100120013001400F1
:100B8000150016001700180019001A001B001C00A1
:100B90001D001E001F002000210022002300240051
:100BA000250026002700280029002A002B002C0001
:100BB0002D002E002F0030003100320033003400B1
:100BC000350036003700380039003A003B003C0061
:100BD0003D003E003F004000410042004300440011
:100BE000450046004700480049004A004B004C00C1
:100BF00065004E004F005000510052005300540059
:100C0000550056005700580059005A005B005C0020
:100C10005D005E005F0060006100620063006400D0
:100C20004D0085006700680069006A006B006C0079
:100C30006D006E006F00700071007200730089001B
:100C400087008A008B00E000E100E200E400E3009E
:100C5000E500E600E70001000100010001000100DD
:100C6000010001000100010001000100010001007C
:100C7000010001000100010001000100010001006C
:100C8000010001000100010001000100010001005C
:100C9000010001000100010001000100010001004C
:100CA000010001000100010001000100010001003C
:100CB000010001000100010001000100010001002C
:100CC000010001000100010001000100010001001C
:100CD000010001000100010001000100010001000C
:100CE00001000100010001000100010001000100FC
:100CF00001000100010001000100010001000100EC
:100D000001000100010001000100010001000100DB
:100D100001000100010001000100010001000100CB
:100D200001000100010001000100010001000100BB
:100D300001000100010001000100010001000100AB
:100D4000010001000100010001000100010001009B
:100D500001000100010009025B00030100A0FA0983
:100D600004000001030101000921110100012240DA
:100D700000070581030800010904010002030000C7
:100D80000009211101000122220007058203200031
:100D9000010705030320000109040200010300000C
:100DA0000009211101000122BC0007058403200075
:100DB000011201000200000008EDFE36650201018B
:100DC0000203011C037600690061006C003A0066B2
:100DD000003600340063003200620033006300001C
:100DE000002E03740069006E006B00650042004F26
:100DF00000590020005B00690062006D0070006314
:100E0000006B0062002E007500730062005D000040
:100E1000001403540049004E004B004500520042AC
:100E2000004F005900000004030904000000000006
:100E300000000000000000000000000000000000B2
:100E40000000000000000000000000000000007E24
:100E50000F00D4FFFFFFC700000078000000000073
:100E60000000002A2B280000000000000000000005
:100E700000000000000029000000002C1E3420218A
:100E80002224342627252E362D3738271E1F2021D1
:100E900022232425263333362E37381F0405060730
:100EA00008090A0B0C0D0E0F10111213141516174A
:100EB00018191A1B1C1D2F3130232D350405060768
:100EC00008090A0B0C0D0E0F10111213141516172A
:100ED00018191A1B1C1D2F3130354C0011241FBE50
:100EE000CFEFD4E0DEBFCDBF04B603FE18C08091C3
:100EF000720390917303A0917403B09175038730CE
:100F0000904BA740B04B59F41092720310927303A8
:100F10001092740310927503E0E0F8E3099523E062
:100F2000A8E5B1E001C01D92A237B207E1F711E0D8
:100F3000A0E0B1E0EAECF6E602C005900D92A8351B
:100F4000B107D9F70E9451290C9455320C94000036
:100F50002091E4003091E50095E6A9012091EC0094
:100F6000822F817020FF06C08091E80080FF06C0BC
:100F700080E008952091E80022FD1AC0809170035E
:100F8000882389F0853089F08091EB0085FD0FC0C2
:100F90002091E4003091E50042175307F9F2915097
:100FA000E1F684E0089582E0089583E0089581E009
:100FB0000895EF92FF920F931F93CF937C018B01C3
:100FC0000E94A807C82F811117C08091E80085FDF5
:100FD0000BC08091E8008E778093E8000E94A807FC
:100FE000882399F3C82F08C0F70181917F0180936E
:100FF000F1000150110949F78C2FCF911F910F91EA
:10100000FF90EF900895CF93FC018091700384309E
:1010100001F5C091E900CF702091EC00922F917002
:1010200020FD90E8C92B82E08093E9008091E800E0
:1010300080FF0CC050E040E060E270E0CF010E9411
:10104000D9078091E8008E778093E800CF70C09335
:10105000E900CF9108958091680387FF13C08091C4
:10106000E80082FF06C08091E8008B778093E8005B
:1010700004C0809170038111F2CF089580917003B4
:101080008823D9F38091E80080FFF8CF8091E800B1
:101090008E77ECCF982F9093E900242F762F50E095
:1010A000891731F07091EC002091ED005091F00023
:1010B00021FD07C09F5F953071F78093E90081E0C3
:1010C00008953091EB003E7F3093EB003091ED00BE
:1010D0003D7F3093ED003091EB0031603093EB00B9
:1010E0007093EC002093ED005093F0002091EE00FF
:1010F00027FDE0CF80E00895FC0180916E03909180
:101100006F0386179707A0F06115710529F4909178
:10111000E8009E779093E80090E06115710551F426
:10112000911108C08091E80082FF32C080E00895EC
:10113000BC01F2CF809170038823B1F18530B1F109
:101140008091E80083FD2EC08091E80082FDEACF07
:101150008091E80080FFE1CF2091F20030E061153E
:10116000710519F02830310558F091E0283031052B
:1011700009F090E02091E8002E772093E800CDCF91
:1011800081918093F100615071092F5F3F4FE7CF4C
:1011900080917003882341F0853041F08091E80010
:1011A00083FFC0CF81E0089582E0089583E0089531
:1011B00008958091440308959C014FB7F89480915D
:1011C0003A0390913B03A0913C03B0913D034FBF84
:1011D000821B930B08952FB7F89480913A03909156
:1011E0003B03A0913C03B0913D032FBF0895209194
:1011F0000F012223C9F020913E0327FF15C0E62FDF
:10120000E695E695E695EE31D8F4E80FF92FF11D55
:10121000677021E030E001C0220F6A95EAF720955F
:101220008281282322830895FC0132960896219119
:10123000621303C0DF0111971C92E817F907B9F791
:10124000089520910F012223C1F020913E0327FF32
:1012500014C0E62FE695E695E695EE31F8F4E80F32
:10126000F92FF11D677021E030E001C0220F6A956F
:10127000EAF78281822B82830895FC0132962FEF58
:1012800030E04191641751F02F3F19F4411101C032
:10129000232F3F5F3630A9F72F3F09F40895820FBF
:1012A000911D27FD9A95FC016283089520913803D2
:1012B000309139032817390771F0909339038093DF
:1012C0003803E0913603F0913703309721F0008422
:1012D000F185E02D0995089520913403309135036F
:1012E0002817390771F09093350380933403E09108
:1012F0003603F0913703309721F00680F781E02D17
:1013000009950895E0913603F0913703309729F05D
:101310000190F081E02D0995089580E00895452B16
:1013200039F0682381E06F3F09F080E08170089513
:1013300081E0FCCFA0912D0350912E034A2F54132E
:1013400001C00895242F30E0F901EE0FFF1FEB5D7F
:10135000FC4F608171816817790791F467E070E054
:101360000E949831895E9C4F51E0FC0154834A13DE
:10137000E8CF2F5F3F4F2370332720932D0308952D
:101380002F5F3F4F422F4370DACF1092B40210927A
:10139000B30280911C03811104C010921B031092B0
:1013A0001D0380912303811104C010922203109227
:1013B00024030895EFE7F2E04AE757E256834583B6
:1013C00021EA37E23087278388EE96E29287818789
:1013D00014861386538B428B358B248B978B868B8D
:1013E00081E090E0918F808F089581152CE5920720
:1013F00041F42091AD023091AE02232B11F490E024
:1014000080E008950E94EB089C0190916F0280910A
:101410007002982B21F030936C0220936B02909114
:10142000710280917202982B21F030936A0220930E
:101430006902E0913603F0913703309749F082E07A
:1014400080936D020480F581E02D8DE692E0099590
:10145000089590916F02803F59F48091700287FF48
:101460000DC01092700291110BC01092670208C05B
:10147000813F81F48091700218169CF3992381F0CA
:101480008091710290917202892B09F064C01092D0
:1014900066020895823F49F497FFF0CF10926F02E1
:1014A000809170028111ECCFE0CF833F19F41916BF
:1014B000ACF3E4CF20917102893F29F41216F4F6BF
:1014C00010927102DBCF8A3F19F427FFD7CFF8CFF4
:1014D000209172028B3F29F427FFD0CF1092720225
:1014E000CDCF8C3F19F41216CCF3C8CF843F31F422
:1014F00080916E028E7F80936E02C0CF853F21F473
:1015000080916E028D7FF7CF863F21F480916E022D
:101510008B7FF1CF873F21F480916E02877FEBCFE5
:10152000883F21F480916E028F7EE5CF8D3F31F4AC
:10153000809168028E7F80936802A0CF8E3F21F455
:10154000809168028D7FF7CF8F3F09F097CF809110
:1015500068028B7FF0CF08958091680280FD18C0EB
:1015600081FD18C082FD18C0809166028823B1F009
:10157000883290F490E023E0880F991F2A95E1F7D4
:1015800068E270E00E94A931862F672B39F0089538
:1015900082E0089584E0089588E0089581E0089548
:1015A0008091680280FD15C081FD15C082FD17C0C5
:1015B00080916702882389F08E3188F490E060E59D
:1015C00070E00E9498316EE170E00E94A931862F90
:1015D000089584E1089588E2089588E0089580E5FB
:1015E0000895803F31F40E94D00A81958093700263
:1015F0000895813F19F40E94D00AF8CF823F31F458
:101600000E94D00A819580936F020895833F19F458
:101610000E94D00AF8CF893F29F40E94AC0A809337
:10162000710208958A3F21F40E94AC0A8195F7CF98
:101630008B3F31F40E94AC0A819580937202089529
:101640008C3F19F40E94AC0AF8CF843F31F48091AA
:101650006E02816080936E020895853F21F480912F
:101660006E028260F7CF863F21F480916E02846023
:10167000F1CF873F21F480916E028860EBCF883FE5
:1016800021F480916E028061E5CF8D3F31F480912D
:10169000680281608093680208958E3F21F48091F2
:1016A00068028260F7CF8F3FB9F78091680284604B
:1016B000F1CF80E0089590913E0392FF06C0282F5D
:1016C00028712830F9F4877F846093FF06C0282FA3
:1016D00028712831F1F4877E846120913F0320FF37
:1016E00006C0382F38713830D9F4877F816021FFE8
:1016F00006C0282F28712831D1F4877E816194FD9E
:10170000877E0895282F24712430F9F68B7F886016
:10171000DCCF282F2471243101F78B7E8861DDCF47
:10172000382F3171313019F78E7F8860E0CF282F44
:101730002171213121F78E7E8861E1CFCF93DF9334
:10174000EC018238910581F1D8F58133910509F4D6
:1017500098C020F58932910509F488C08A9709F468
:1017600097C0C11520E5D20708F0AEC0C11530E41E
:10177000D30708F0FDC0CF3BD10508F090C0C83AB0
:10178000D10508F0E8C0C53AD10508F0DCC0C43086
:10179000D10520F5C130D10509F145C0853391054A
:1017A00009F45FC0C997E9F680913E03837009F0A0
:1017B00036C180913F0383FF11C0C9E2D0E00EC063
:1017C000833E910599F170F4803E910501F1823ECE
:1017D000910539F680913E0382FD21C0CE01DF9153
:1017E000CF910895863E910561F1873E910571F193
:1017F000843E910509F0B5CF80913F0381FFEECF84
:1018000080913E03C7EED0E084FD0DC0E7CF80910C
:101810003E0380FD33C090913F0390FFDFCFC3EEC6
:10182000D0E084FFDBCFD0E0C0E0D8CF80913E0392
:1018300082FDF2C090913F0390FDF1C084FFCECFB6
:10184000F2CF80913E0383FDDDCFC8CF80913E0370
:1018500083FDE8C090913F0391FFF0CFC4EED0E04C
:10186000BDCF80913E0385FFB9CFA7CF80913E03C6
:1018700085FDDBC080913F0383FFB0CFC9E3D0E09B
:10188000ADCF80913E0386FFA9CFCAE2D0E0A6CFBC
:1018900080913E0386FFA2CFC1E3D0E09FCFCF3F30
:1018A000D10509F058F4C03FD10508F05FC0CE0162
:1018B000805E9109089708F491CFB5CFC11540E239
:1018C000D40708F48BCFAFCFC11584E5D807A0F4B7
:1018D000C11523E5D20708F07BC0C11532E5D30757
:1018E00008F060C0C11541E5D40708F444C0DC2FFE
:1018F000CC27C16FD06A72CFC1158AE5D80778F4BA
:10190000C11529E5D20708F079C0C11538E5D3071C
:1019100008F489CFDC2FCC27C06FD06A5FCFCE010F
:1019200090568115904208F07ECF8D2F8F710E94C6
:101930005B0B90E0982F882788279F719C012C2BA8
:10194000E901D0624BCFC55AD0E0C85EDE4FC881F6
:10195000D0E0D06443CFC85AD0E0CC0FDD1FC55EC5
:10196000DE4F0990D881C02DD46438CFD06536CFF2
:10197000DF70D06A33CF2C2F26952695237030E068
:10198000E5E0220F331FEA95E1F78C2F8370C1E069
:10199000D0E002C0CC0FDD1F8A95E2F7C22BD32B1B
:1019A000DD681CCFCE018370992721E030E002C0B2
:1019B000220F331F8A95E2F7C695C695D0E065E001
:1019C000CC0FDD1F6A95E1F7C22BD32BDC6806CF65
:1019D000CE018370992721E030E002C0220F331F2F
:1019E0008A95E2F7C695C695D0E055E0CC0FDD1F8D
:1019F0005A95E1F7C22BD32BDA68F0CE8C2F8F707B
:101A00000E945B0B34E0D695C7953A95E1F7CF700D
:101A10009C2FEC01D069E2CEC2EED0E0DFCEC0EE6A
:101A2000D0E0DCCEC6EED0E0D9CEC5E3D0E0D6CE55
:101A3000809103029091C201981301C008958F5FB5
:101A40008770FACF983098F5803188F5292F30E0EB
:101A500094E0220F331F9A95E1F7820F932F911D87
:101A6000A82FA77023E0969587952A95E1F763E064
:101A700070E00E949831FC01E657FE4F50E040E0D4
:101A800080E0219130E00A2E02C0369527950A9415
:101A9000E2F721703327042E01C0220F0A94EAF7DF
:101AA000822B4F5F5F4F4330510559F7089580E017
:101AB0000895CF93DF93F62F9830C0F58031B0F5BD
:101AC000292F30E094E0220F331F9A95E1F7820F1F
:101AD000932F911D282F2770E1E001C0EE0F2A956A
:101AE000EAF723E0969587952A95E1F763E070E0A1
:101AF0000E949831DC01A657BE4F50E040E06F2FA6
:101B000070E08D91ED0121979B01042E02C0369566
:101B100027950A94E2F72170219528272E2328275C
:101B200028834F5F5F4F4330510559F7DF91CF91C5
:101B300008959C013A9521153F4150F5FC01EE278F
:101B4000F170BC0166277270AC01442754709C018F
:101B50002227387094FF0EC080E1EF2B09F480E05B
:101B6000672B09F08062452B09F08064232B89F0F4
:101B70008068089581E0EF2B09F480E0672B09F07D
:101B80008260452B09F08460232B19F0886008954A
:101B900080E00895109287011092860110928401CE
:101BA0001092850180E090E89093010180930001FC
:101BB000E7E3F2E01282138208955098589A08954C
:101BC0005898509A08955198599A089580913902D9
:101BD00090E0019620913B0230E0822393232091F4
:101BE0003A022817190641F40E94CA0DE19AE99AAF
:101BF0000E94E30D0E94DD0D2FB7F89490913A02F8
:101C000080913902891781F0E0913702F091380212
:101C1000E90FF11D80819F5F30913B0293239093E8
:101C20003A0290E02FBF08958FEF9FEFFBCF0F9305
:101C30001F93CF93DF930E94EB088C010E94E60D67
:101C4000EC01019631F4C8010E94DC08843F914008
:101C5000A8F3CE01DF91CF911F910F910895E19AE2
:101C6000E99A0E94E30D0E94DD0D08955998519A5A
:101C700008958638E9F1F0F48736E1F168F48C359F
:101C8000D9F128F48830D1F18735D1F1089584361F
:101C9000C9F18536C9F108958737C1F128F48D3629
:101CA000B9F18E36B9F108958438B1F1B8F58C37B1
:101CB000B9F108958C38B1F168F48938A9F128F4A4
:101CC0008738A1F18838A1F108958A3899F18B38C5
:101CD00099F108958F3891F128F48D3889F18E3873
:101CE00089F10895813981F188F1823989F1089566
:101CF00080E1089582E6089583E5089586E70895D2
:101D00008CE508958EE608958DE6089588E508959A
:101D100084E6089585E608958CE7089588E008959F
:101D200088E6089585E008958CE0089582E008959E
:101D30008EE7089583E0089584E008958FE708957D
:101D400087E7089587E6089581E008958BE7089571
:101D500089E008958C3549F018F4833141F00895F5
:101D6000863739F08E3739F0089581E508958DE58D
:101D700008958EE7089586E708958B35B1F058F4FD
:101D80008131A9F018F48E30A1F00895833199F0D3
:101D9000843599F00895823691F020F48E3590F4D0
:101DA0008AE608958C3769F008958DE508958FE0EF
:101DB000089584E5089581E108958BE508958EE006
:101DC000089587E70895EDEFE80FE13808F045C082
:101DD000F0E0E95AFD4C0C94BD3187E108958FE1A4
:101DE00008958CE5089580E6089582E6089587E2D7
:101DF000089583E508958FE2089589E3089587E3C0
:101E000008958FE3089587E408958FE4089586E5A3
:101E100008958EE508958FE7089580E0089585E69A
:101E200008958EE608958FE6089588E0089580E18C
:101E3000089588E1089580E2089588E2089580E396
:101E4000089588E3089580E5089587E508958FE56E
:101E5000089589E108958DE608958F7708958FE0BC
:101E60000895E4EEE80FE834B0F5F0E0E852FD4CF8
:101E70000C94BD3185E508958AE508958BE50895B4
:101E80008CE508958DE508958EE508958FE5089514
:101E900080E6089581E6089582E6089583E6089530
:101EA0008FE6089581E7089582E7089584E708950D
:101EB00085E7089587E7089588E708958AE70895F4
:101EC0008CE708958FE7089580E7089589E70895DE
:101ED0008BE7089584E50895E82F82958770EF7069
:101EE00090918301923089F09330D9F0913029F5A7
:101EF00090E044E0880F991F4A95E1F7E80FF92F29
:101F0000F11DEE56FD4F8491089590E034E0880F66
:101F1000991F3A95E1F7E80FF92FF11DEE5EFD4F9D
:101F2000F2CF90E024E0880F991F2A95E1F7E80F9F
:101F3000F92FF11DEE56FE4FE6CF80E808950E947E
:101F40006C0FE82FE295E770F0E0EE0FFF1FEA5A02
:101F5000FD4F40815181282F2F7081E090E002C019
:101F6000880F991F2A95E2F79C0124233523232B00
:101F700031F08095909584239523918380830895F3
:101F80000E946C0FE82FE295E770F0E0EE0FFF1F64
:101F9000EA5AFD4F20813181482F4F7081E090E057
:101FA00002C0880F991F4A95E2F7A90148235923D7
:101FB000452B21F4282B392B318320830895E6E526
:101FC000F2E011821082138212821582148217822B
:101FD0001682118610861386128615861486178639
:101FE00016860895809340037093420360934103E3
:101FF000809170038430F9F48093E9008FEF909121
:10200000E800815095FD06C095ED9A95F1F7000026
:102010008111F5CF8091E80085FF0DC050E040E0D0
:1020200063E070E080E493E00E94D9078091E800CB
:102030008E778093E8000895BC0184E00E94F20F3F
:102040000895BC0183E00E94F20F08959C0184E092
:102050008093E9009FEF8091E800915085FD06C0D4
:1020600085ED8A95F1F700009111F5CF8091E80098
:1020700085FF0CC050E040E066E070E0C9010E94BE
:10208000D9078091E8008E778093E8000895CF9378
:10209000DF93EC0180910F018823B1F180913E0321
:1020A00087FF32C060E284E08093E9008FEF909177
:1020B000E800815095FD06C095ED9A95F1F7000076
:1020C0008111F5CF8091E80085FF1BC080910F0141
:1020D00070E050E040E0811104C050E040E068E072
:1020E00070E0CE010E94D9078091E8008E7780933E
:1020F000E80080E2FE01A5E4B3E001900D928A952C
:10210000E1F7DF91CF91089568E081E0CDCF81E0E4
:102110008093E00080E28093D8001092C9008FE1A4
:102120009EE40197F1F700C0000087E090EBDC012E
:102130008093720390937303A0937403B093750319
:1021400088E19CE00FB6F894A895809360000FBEDC
:1021500090936000FFCF5098589A85E08A95F1F7E8
:10216000000089B1817008955198599A85E08A9547
:10217000F1F7000089B1869581700895CF93DF93C0
:10218000EC010E94B410811102C0209721F4CE010D
:10219000DF91CF91089585E08A95F1F700002197AE
:1021A000F0CFCF93DF93EC010E94B410882311F09D
:1021B000209721F4CE01DF91CF91089585E08A9593
:1021C000F1F700002197F0CFB0E0A0E0EAEEF0E1F7
:1021D0000C945B31E82E1092850180910001909162
:1021E0000101809100019091010181159048C9F78A
:1021F0000E94B4100E94AB10E998F8940BE011E033
:10220000F12C5524539486E0D82E97E0C92E28E06F
:10221000B22E35E0A32E44E0942E53E0852E62E0EA
:10222000762E662463940E94360E0E94DD0D8FE1A7
:1022300093E00197F1F700C000000E94E00D8FE1EC
:1022400093E00197F1F700C000000E94E30D80E1E8
:1022500097E20E94D110892B69F4609285018091E8
:102260008501813009F09DC0015009F49AC0109297
:102270008501D9CFD0E0C0E090E59A95F1F7C7018C
:102280000C2E02C0959587950A94E2F780FF0CC04A
:1022900015250E94DD0D82E390E00E94BE10892B7F
:1022A00031F470928501DBCF0E94E00DF4CF82E320
:1022B00090E00E94D110892B19F480928501CFCF34
:1022C0002196C830D105C1F680E58A95F1F7112332
:1022D00059F00E94DD0D82E390E00E94BE10892B30
:1022E00031F490928501BBCF0E94E00DF4CF82E3E0
:1022F00090E00E94D110892B19F4A0928501AFCFF4
:1023000090E59A95F1F70E94DD0DCCE2D1E00E94B4
:10231000AB10882359F0209719F4D09285019FCFF4
:1023200025E02A95F1F700002197F1CFCD2BA9F3F5
:10233000CCE2D1E005C085E08A95F1F70000219755
:102340000E94AB10811105C02097A9F7C0928501AA
:1023500086CFCD2BD9F38CE291E00E94BE10892B61
:1023600019F4B09285017BCF0E94CA0D0E94E30D43
:102370000E94DD0D7894E19AE99ACAE1C15039F1E1
:102380000E94E60D8F3F980729F0CDB7DEB7EFE04A
:102390000C9477318FE99FE00197F1F700C00000BE
:1023A000EDCF809185018061809385010E94360E7A
:1023B0000E94DD0D8FE39FE10197F1F700C000005F
:1023C0000E94E30D0E94DD0D7894E19AE99A8FEF67
:1023D0009FEFDBCFCF9390918301923080F082FB0F
:1023E000CC27C0F980FDC26081FDC4608DEE0E94E3
:1023F000E4108A3F910519F48C2F0E94E410CF91CC
:102400000895CF93DF93CFE4D2E060E0CE010E9445
:1024100019322196C11584E0D807B9F7DF91CF9121
:1024200008951F93CF93DF93122F8230F8F4683012
:10243000E8F44031D8F4C62FD0E095E0CC0FDD1F92
:102440009A95E1F750E0440F551FC40FD51F90E057
:10245000982F8827C80FD91F632FCE0187960E9417
:102460001932612FCE0188960E941932DF91CF91E7
:102470001F910895CF93C82F6FEF811167E283E218
:1024800090E00E9419326FEFC11168E284E290E09F
:102490000E9419326FEFC11168E685E290E00E9458
:1024A0001932CF910895A4E1B0E0E9E5F2E10C948E
:1024B0005D31A090AD02B090AE0281E090E09093CB
:1024C000AE028093AD0286E5C82E8BE0D82E712C2B
:1024D000760110E014C0F40125913491402F612F52
:1024E000872D0E94111282E0880E911C0F5F00312F
:1024F00091F7E0E2EE0EF11C1F5F183019F0470172
:1025000000E0E9CFD39481E0781619F07724739432
:10251000DFCF1A8219821C821B821E821D821886BE
:102520001F8288EC90E09A8789874AE050E067E252
:1025300072E0CE0101960E943D324AE050E061E334
:1025400072E0CE0101960E943D328E01055F1F4F61
:102550008AE0F80111928A95E9F74AE050E06BE3CE
:1025600072E0C8010E943D324AE050E065E472E04A
:10257000C8010E943D32B092AE02A092AD026496B4
:10258000EDE00C94793180E00E943A1260E086E23E
:1025900090E00E9419320E9453120E94011281E0C1
:1025A0000E943A1208959B01823080F490E06AE024
:1025B00070E00E949831BC01695D7D4F4AE050E0B7
:1025C000C9010E94FB3190E080E008958FEF9FEFFA
:1025D0000895AAE0B0E0EFEEF2E10C9468319C01BE
:1025E00037552F3F310509F068F4BE016F5F7F4F0B
:1025F0000E94D312892B31F489859A852A96E2E0CC
:102600000C94843188EC90E0F9CF0F931F93CF9313
:10261000DF93823048F5683038F5403128F5C62F11
:10262000D0E095E0CC0FDD1F9A95E1F750E0440F24
:10263000551FC40FD51F90E0982F8827C80FD91FAA
:10264000CE0187960E940B32082F10E0102F002732
:10265000CE0188960E940B329801282BC901DF9188
:10266000CF911F910F91089590E080E0F8CF462F11
:102670002091B1023091B202232B99F4703F39F4CA
:10268000603F79F48091AF029091B002089582305A
:1026900040F4783030F4603120F4672F0E94051345
:1026A000089590E080E00895CF92DF92FF920F931B
:1026B0001F93CF93DF936C010091710380912502EA
:1026C000082BC7E0D0E010E0FC2EC8010C2E02C0A1
:1026D000959587950A94E2F780FD0CC02197A0F7A5
:1026E000F12C8F2DDF91CF911F910F91FF90DF90F3
:1026F000CF900895B6018C2F0E9437130E949E0B35
:10270000019761F3EECFCF93DF93EC010E94541356
:10271000BE010E9437130E949E0BDF91CF91089556
:102720000F931F93CF938C01FC01438154816181EE
:1027300080810E948F09C82F81112AC0F8018681EB
:102740009781009791F00E949E0B92959F70963012
:10275000D1F080F4925F9F70923080F4803F19F046
:1027600058F4883E58F4C1E009C0808191810E94EC
:102770008313EBCF9A5FEFCF843FA9F38C2FCF91D8
:102780001F910F910895883E70F3813FB9F7EBCF09
:10279000C0E0F4CFA5E0B0E0E0EDF3E10C946731E8
:1027A0009C01FC01868197810097E1F485E0DE01C0
:1027B000119601900D928A95E1F7F90122818981A4
:1027C0009A81222399F0662389F00E945413182FCE
:1027D000682F89819A810E94590D69817A81812FA0
:1027E0000E9437132596E3E00C9483310E94220D5A
:1027F000182FF3CF83E290E00E940B32873289F4E6
:1028000084E290E00E940B32883259F485E290E035
:102810000E940B3291E0883609F090E0892F817098
:10282000089580E0FCCFAAE0B0E0E9E1F4E10C9487
:102830006631E9E9F2E084E1DF011D928A95E9F76A
:1028400029E133E08CE0D9011D928A95E9F707E18F
:1028500013E0D801ED93FC934AE050E06BE372E0A3
:10286000CE0101960E94FB3188E0FE013196A9E974
:10287000B2E001900D928A95E1F789859A85F80179
:102880009383828383EA92E0908787834AE050E0D3
:1028900065E472E0CE0101960E94FB3188E0FE0102
:1028A0003196A3EAB2E001900D928A95E1F789850D
:1028B0009A85D8011A969C938E9319972A96E4E0EC
:1028C0000C948231CF93C091240280913103C82BA4
:1028D000C0935A0140E250E064E072E08AE591E082
:1028E0000E94E731892B11F180E2EAE5F1E0A4E0F2
:1028F000B2E001900D928A95E1F7E0913603F091F4
:102900003703309799F080910F01882349F0809127
:102910003E0387FF05C0C0935B0186E080935A01A8
:102920000280F381E02D8AE591E00995CF91089529
:10293000CF93DF93EC01E985FA85309719F06B8529
:102940007C8509958B81982F9095809131038923FF
:10295000809331030E94621485E0FE0111928A95F2
:10296000E9F7DF91CF910895CF93DF93EC018C814C
:1029700081FD12C082608C83809131039B81892B01
:10298000809331030E946214EF81F885309721F023
:102990006B857C85CE01099510923303109232032A
:1029A0008C8180FD03C0CE010E949814DF91CF91ED
:1029B000089590E080E00E946C0990E080E00E9421
:1029C0005609109231030E94621486E0EDE6F2E0AF
:1029D000DF011D928A95E9F7109267021092660254
:1029E000109268020E94020A0895809371030E9467
:1029F000D914089580917103982F9670963021F420
:102A000088600E94F5140895877FFBCF21E030E0B5
:102A100001C0220F8A95EAF72095809171038223E5
:102A20000E94F514089521E030E001C0220F8A953C
:102A3000EAF780917103822B0E94F5140895809328
:102A400025020E94D91408951092240280910F014A
:102A5000ECE5F1E0882361F080913E0387FF08C038
:102A60008EE1DF011D928A95E9F70E94D91408953D
:102A700086E0F7CFAAE2B0E0E0E4F5E10C9467313C
:102A800088E693E02091F100DC012D93CD01B3E0C5
:102A900080379B07B9F780916903833009F470C0D0
:102AA000B8F4813009F447C0823009F4B1C0809194
:102AB000E80083FF93C280916803909169039A3084
:102AC00008F08CC2E92FF0E0E05EFC4C0C94BD31C4
:102AD0008A3009F48CC08B3009F46FC0893039F723
:102AE00080916803813219F780916C0390916D0396
:102AF000009711F00297D9F68091E800877F8093C4
:102B0000E8008091E80082FF36C08091F2008230B8
:102B100031F48091F100813011F0863021F4809100
:102B2000F100809344038091E8008B778093E80064
:102B30000E942B08BCCF80916803813A09F0B7CF7F
:102B40008091E800877F8093E80080916C039091EA
:102B50006D03892B61F460E285E493E070E00E94EC
:102B60007C088091E8008B778093E800A0CF60E03C
:102B700090E080E0F3CF809170038111C2CF97CFB6
:102B800080916803813A09F092CF80916C03909113
:102B90006D03892B09F08BCF8091E800877F8093AC
:102BA000E8008091E80080FFFCCF80910F018093C6
:102BB000F1008091E8008E77B9CF8091680381326F
:102BC00009F075CF80916C0390916D03892B09F00A
:102BD0006ECF8091E800877F8093E8000E942B08E9
:102BE00080916A0380930F010E94241560CF809129
:102BF0006803813209F05BCF8091E800877F809382
:102C0000E8000E942B0880916B03809343034FCF11
:102C100080916803813A09F04ACF8091E800877F6C
:102C20008093E8008091E80080FFFCCF809143030F
:102C3000BECF803899F0823809F0D0C180916C0302
:102C40008F70853008F0CAC18093E9008091EB0055
:102C500085FB882780F91092E90006C08091650302
:102C600090916603911182609091E800977F909314
:102C7000E8008093F1001092F1008091E8008E77D7
:102C8000A9C1882309F497C1823009F0A7C18091B6
:102C90006A0381119AC180916C038F702FEF280F06
:102CA000243008F09BC18093E9002091EB0020FFC5
:102CB0008CC1933031F48091EB0080628093EB0003
:102CC00084C19091EB0090619093EB0021E030E0A3
:102CD00001C0220F8A95EAF72093EA001092EA00D9
:102CE0008091EB008860EACF811178C110916A036E
:102CF0001F778091E3008078812B8093E30080919F
:102D0000E800877F8093E8000E942B088091E8000C
:102D100080FFFCCF8091E30080688093E30082E035
:102D2000111183E08093700359C18058823008F0FC
:102D300055C120916A0330916B032C3DE3E03E07BF
:102D4000A1F583E08A838AE289834FB7F894DE0194
:102D5000139620E03EE051E2E32FF0E0509357005D
:102D6000E49120FF03C0E295EF703F5FEF708E2F7C
:102D700090E0EA30C0F0C7968D939D932F5F243189
:102D800059F74FBF8091E800877F8093E8006AE29F
:102D900070E0CE0101960E947C088091E8008B775C
:102DA0008093E8001BC1C096E7CF80916C0390919F
:102DB0006D03432F55274330510509F44AC078F578
:102DC0004130510509F485C08BE590E0E6E5FDE072
:102DD0004230510509F002C12091E800277F20937D
:102DE000E80020916E0330916F038217930708F477
:102DF0009C0140E02115310509F070C041116EC001
:102E00008091E80082FDC9CF80917003882329F268
:102E1000853019F28091E80083FFF2CFBECF4132B6
:102E2000510509F447C04232510509F0D7C083303B
:102E3000910508F0D3C0FC01EE0FFF1FE45BFE4FCD
:102E40000190F081E02D875B9E4FDC018C9190E03A
:102E50001DC0332721303105E9F02115310579F006
:102E600022303105F9F02330310509F0B7C0E3EC29
:102E7000FDE0E4918E2F90E0E3ECFDE007C0E7E297
:102E8000FEE0E4918E2F90E0E7E2FEE0009709F487
:102E9000A5C0A2CFE1E1FEE0E4918E2F90E0E1E158
:102EA000FEE0F4CFE1EEFDE0E4918E2F90E0E1EE64
:102EB000FDE0ECCF8330910508F090C0880F991F9A
:102EC000FC01EE5AFE4F0190F081E02D89E090E088
:102ED00083CF82E190E0E1EBFDE07ECF8091700353
:102EE000882309F45ACF853009F457CF8091E80040
:102EF00083FD53CF8091E80082FD82CF8091E8006E
:102F000080FF78CF8091F20090E02115310519F013
:102F10008830910550F041E0089709F040E0809139
:102F2000E8008E778093E80065CF44914093F100EC
:102F30003196215031090196E8CF803809F04EC012
:102F40008091E800877F8093E800809167038093F9
:102F5000F10093CE811142C010916A031230F0F556
:102F60008091E800877F8093E800109367030E94B8
:102F70002B08112311F084E005C08091E30087FD48
:102F8000FACF81E08093700342E061EC81E00E941F
:102F90004A0842E261EC84E00E944A0842E261ECA5
:102FA00082E00E944A0842E260EC83E00E944A0804
:102FB0008091700313C080916A03813079F481E0BD
:102FC000933009F080E0809366031092E9008091CD
:102FD000E800877F8093E8000E942B088091E8003A
:102FE00083FF0AC08091E800877F8093E80080918A
:102FF000EB0080628093EB00AA96E3E00C948331AF
:103000000E9424152FEF84E39CE0215080409040E3
:10301000E1F700C0000088E19CE00FB6F894A895A5
:10302000809360000FBE90936000FFCFCF93DF933B
:1030300080918501882389F080918501807539F41C
:10304000809182018B3019F48CE080938201109280
:103050008501109287011092860180918401882356
:1030600009F190918401809181019817D9F085FF31
:1030700004C09091840194FD06C084FF0BC0809130
:10308000840185FF07C0809182018B3019F48CE0A8
:103090008093820180918401809381011092870145
:1030A00010928601E0918201ED30D0F4F0E0E65D0F
:1030B000FC4C0C94BD31109283011092800110924F
:1030C0007F01109281010E94DF0F0E94EB08909314
:1030D0007E0180937D0181E0809382010E942F0E0A
:1030E00081E0DF91CF9108950E94E60D0196E1F70E
:1030F00080917D0190917E010E94DC08893B9B407C
:1031000078F382E080938201EBCF8FEF0E94E4108E
:103110008A3F910511F486E0F5CF83E0F3CFE9987B
:103120000E94360E0E94DD0D2E98269A2B98239A27
:103130000E94EB0890937E0180937D0184E0E2CFB2
:1031400080917D0190917E010E94DC08853F914035
:1031500038F285E0D7CF2E9826982B9823980E9496
:10316000CA0D0E942F0E0E94EB0890937E0180935F
:103170007D01D1CF0E94E60D019609F4B1CF0E94E6
:10318000EB0890937E0180937D0187E0BBCF809117
:103190007D0190917E010E94DC08853F914018F0EE
:1031A00089E0809382010E94E60D019609F498CF90
:1031B0000E94EB0890937E0180937D0188E0A2CF6E
:1031C00080917D0190917E010E94DC08853F9140B5
:1031D00018F089E0809382010E94E60D019609F4BF
:1031E0007FCF89E08FCF80918401813159F48DEFB9
:1031F0009FEF9093800180937F0182E08093830111
:103200008AE080CF82EF0E94E4108F3F980731F46C
:103210009093800180937F0181E0F0CF8A3F9105F8
:1032200019F08EEF9FEFE5CF0E94170E8F3F9807A2
:1032300029F41092800110927F01DFCFD82FCC2784
:103240000E94170E9E01282BC90190938001809344
:103250007F01009791F28F3F9807F1F29C012D5F5B
:103260003F4F2230310548F228583B4A2230310581
:1032700020F082392BEA920781F480EF0E94E4105B
:103280008A3F910509F0B9CF83E00E94E4108A3F9C
:10329000910509F0B2CF83E0B1CF9C0120593B4AA0
:1032A0002230310538F582E08093830180EF0E945F
:1032B000E4108A3F9105B9F080917F0190918001DF
:1032C00081399B4A09F09CCF80EF0E94E4108A3F2D
:1032D000910509F095CF83E00E94E4108A3F9105A3
:1032E00009F08ECFD8CF82E80E94E4108A3F910582
:1032F00019F786CF803B2FEB920769F2882781155B
:103300003BEA930709F479CF81152FEB920719F265
:1033100081159F4709F4BFCF80EF0E94E4108A3FD8
:10332000910509F0AACF82E00E94E4108A3F91053E
:1033300009F0A3CF62CF809183018230E1F0833026
:10334000B9F08BE0809382010E94E60D282F482F70
:10335000592F4F3F540709F4C3CE4115510519F0B9
:103360004F3F510569F40E94DF0F0E942415B8CE2B
:1033700088EF0E94E4100E9482090E94EA11E1CFC6
:1033800080918301823009F453C0833009F4FAC07C
:10339000813009F0A5CE80917A018230E1F138F4D4
:1033A000882369F08130F9F010927A0199CE833048
:1033B000D1F18430C9F7253CB9F785E529C0203E15
:1033C00041F0213E51F0822F27FD09C00E94C00F1D
:1033D00087CE81E080937A0183CE82E0FBCF8F7726
:1033E0000E949F0F7DCE2633F9F250F42A32E1F28B
:1033F000822F27FD0AC00E94310F0E94C00FD4CF38
:103400002A3A91F2263BA1F7CFCF8F770E94310F56
:103410000E949F0FC9CF2D3121F02D3929F684E06C
:10342000D9CF83E0D7CF253409F0BECF85E5E5CFEE
:10343000822FE0917B01E93008F042C0F0E0E95CC6
:10344000FC4C0C94BD3140917F015091800140595A
:103450005B4A4230510510F40E94BD0E803E89F057
:1034600050F48338A1F08438B1F087FFAFCF0E94C9
:10347000DF0F8CE047CE813E41F0803FB1F781E025
:1034800001C082E080937B012BCE84E0FBCF82E001
:103490000E94C00F15C08FE7FBCF40917F01509174
:1034A000800140595B4A4230510520F4213169F0D6
:1034B000213499F0293521F0203F29F0223131F4CF
:1034C00010927B010DCE83E0DDCF83E110927B0172
:1034D00087FDCDCF0E94E30E79CF8CE7F7CF4091E7
:1034E0007F015091800140595B4A4230510510F4F0
:1034F0000E94BD0E833839F0843849F010927B0168
:1035000087FDB5CF6DCF82E00E949F0FD9CF8FE7A7
:10351000FBCF40917F015091800140595B4A42307E
:10352000510520F4213169F0213469F0223141F252
:10353000293531F210927B0187FD99CF0E94E30E6D
:103540004FCF83E1F7CF8CE7F5CF243129F0203F2F
:1035500009F0B6CF86E096CF85E094CF273709F003
:10356000AFCF80E095CF87E0243109F0A9CF8ACF93
:1035700088E0203F09F0A4CF85CF273709F0A0CFFE
:1035800080E0C2CF822F2F3B29F038F496E5920FCE
:10359000923028F410927C016CCF2C3FD9F390919B
:1035A0007C019923D9F0913009F09ACD10927C01D9
:1035B00040917F015091800142399BEA590709F0FF
:1035C0004BC0822F0E94AA0EEDE7E80FEB3008F007
:1035D0005BC0F0E0E05CFC4C0C94BD3140917F019D
:1035E0005091800142399BEA590771F4822F0E9461
:1035F000AA0E873859F1A8F4843821F160F4833891
:10360000F9F087FD6DCDE2CE41395B4A91F7822F0B
:103610000E94390EEECF8538B9F0863891F788E7E9
:10362000D5CE8C38A9F020F48B3859F781E0CECE76
:103630008D3881F0803F29F781E080937C0150CD67
:1036400082E0C4CE8FE7C2CE88E6C0CE80E0BECE98
:1036500089E0BCCE8AE0BACE41395B4A09F0B4CFEA
:10366000822F0E94390EB0CF82E0BACE8FE7B8CE5B
:103670008BE0B6CE86E0B4CE80E0B2CE81E0B0CEB4
:1036800089E0AECE8AE0ACCE87FD2ACDA9CE0E94DD
:1036900024151092820124CD882341F080959091C9
:1036A00031038923809331030E9462140895882393
:1036B00039F090913103982B909331030E9462145A
:1036C0000895882341F08095909124028923809366
:1036D00024020E9462140895882339F090912402F4
:1036E000982B909324020E94621408958823C9F1B4
:1036F0009CEF980F913A40F4682F8AE591E00E9480
:10370000F7080E946214089590E2980F983088F4A8
:10371000877021E030E0A90102C0440F551F8A954F
:10372000E2F7CA01809590912402892380932402B4
:10373000E8CF9BE5980F933028F490E080E00E945A
:103740006C09089598E5980F973128F490E080E08F
:103750000E9456090895803F20F00E94290A0E9485
:10376000020A0895CF93C82F8823D1F18CEF8C0FD4
:10377000813AC0F580910F01882311F180913E03B9
:1037800087FF1EC0EC2FE695E695E695F0E0E65A39
:10379000FE4F828190E04C2F477021E030E002C064
:1037A000220F331F4A95E2F782239323892B89F056
:1037B0006C2F8AE591E00E94F7080E94621409C00C
:1037C000ECE5F1E08191C81799F381E0E236F80762
:1037D000C9F76C2F8AE591E00E9421090E946214CA
:1037E000CF91089580E28C0F883068F4C77021E093
:1037F00030E001C0220FCA95EAF780912402822BA3
:1038000080932402EBCFEBE5EC0FE33040F4F0E0E3
:10381000E85EFE4F808190E00E946C09E1CFE8E510
:10382000EC0FE73150F4F0E0EE0FFF1FE55EFE4FC6
:10383000808191810E945609D3CFC03F88F28C2F9E
:103840000E94F10A0E94020ACBCF1F93CF93DF930D
:10385000182FEB010E94B21B209739F4812F0E9490
:10386000761BDF91CF911F9108958FE99FE001971B
:10387000F1F700C000002197EFCFB0E0A0E0E3E453
:10388000FCE10C946131EC012881222309F4A1C0F0
:10389000213009F040C099818A81913051F42296FB
:1038A00070E060E0893311F460E570E00E94251C4F
:1038B00005C0923029F422960E94B21B2196E4CFD3
:1038C000933021F422960E94761BF8CF943011F0A9
:1038D0002196F4CF229650E040E0FE013196682F09
:1038E0006053770B9B016A30710550F041505109CC
:1038F00028F38FE99FE00197F1F700C00000F6CFB1
:10390000CA016AE070E00E949831A901480F591F6E
:103910008981EF01E2CFE22FF0E0E55AF14FB49058
:10392000822F86958695869590E0FC01E55BF14FA8
:10393000E4902770F12C022E02C0F594E7940A94CB
:10394000E2F731E0E322FF24FC01E55CF14FC49093
:10395000D12C022E02C0D594C7940A94E2F761E0FC
:10396000C622DD24FC01E55DF14F049110E002C0A8
:10397000159507952A95E2F701701127E114F104D6
:1039800019F081EE0E94B21BC114D10419F086EE29
:103990000E94B21B79E3B716C9F070E060E08B2D8E
:1039A0000E94251CC114D10419F086EE0E94761BDA
:1039B000E114F10419F081EE0E94761B0115110546
:1039C00009F47CCF70E060E08CE270CF60E570E0DD
:1039D000E6CFCDB7DEB7E9E00C947D3168EE7EEF3F
:1039E00090E080E00E94373260E082E090E00E9448
:1039F000193260E083E090E00E94193210922502B3
:103A000060E084E090E00E94193264E082E290E09D
:103A10000E94193260E085E090E00E94193260E077
:103A200086E090E00E9419326FEF87E090E00E94FC
:103A3000193240E050E0BA0188E090E00E942B3259
:103A400060E08DE090E00E94193240E050E0BA0161
:103A500088E190E00E942B3260E087E190E00E94D4
:103A6000193240E050E0BA018CE190E00E942B3224
:103A700070E060E080E290E00E94373240E050E089
:103A8000BA0188E190E00E942B3280E00E943A1255
:103A90000E94C31240E050E0BA018FE090E00E9423
:103AA0002B3240E050E0BA0183E190E00E942B32DB
:103AB0000895A4E0B0E0EFE5FDE10C9460317C01F5
:103AC000DC0113964D915C91149711966C911197AE
:103AD0008C910E948F098111DAC061E0C7010E94B8
:103AE000CA138C01F70182818823E9F080913203A7
:103AF000909133030097B9F008171907A1F099279F
:103B00006DE070E00E949831FC01ED57FD4F20817F
:103B10002460208381589D4FDC010D931C930E94EB
:103B2000B41410923103F7018281882309F44CC345
:103B3000980122513F452031310508F09EC28FEF98
:103B400093E00E940B328111A2C03EEEF32EF00EE4
:103B50000FE412E0F11034C019821A821B821C8219
:103B600078012FEFE21AF20AC8010E940B32898312
:103B70001A82882309F48BC0813009F07DC0680166
:103B800032E0C30ED11CC7010E940B32E82E8A839B
:103B9000882309F47CC0C6010E940B32F82E8FEFF7
:103BA0008E0D8330D8F4680143E0C40ED11CFB8233
:103BB000FF2021F0CE0101960E943D1C8601D0CF4E
:103BC0000115F4E01F0709F462C0C8010E940B321E
:103BD000811101C0FA940F5F1F4FBCCF8BEF8E0D88
:103BE000833030F5C8010396FB826C01FF2031F36E
:103BF000680154E0C50ED11C0E940B328C838823CF
:103C0000E9F28B819C818130AFEF9A0710F0982FF9
:103C10008827B6E0EB1631F0E7E0EE1631F00E94AF
:103C20006F27CCCF0E943627C9CF0E94B026C6CFBF
:103C3000F4E0EF12C3CF680124E0C20ED11CC8012A
:103C400003960E940B32FF2011F1882301F181506D
:103C5000990B6FEF70E00E9498314F2D4150550B3A
:103C6000840F951F019708F4A9CFAFE9BFE0119722
:103C7000F1F700C00000F6CFCE0101960E943D1C76
:103C800067019CCF81E00E9413150E94FA142496CC
:103C9000EAE00C947C3181E00E940615F6CF82E0C8
:103CA000F2CF823009F02BC28091790290917A0292
:103CB000892B09F424C2C6016DE070E00E9498319E
:103CC000FC01ED57FD4F20812E7F208381589D4FB1
:103CD0000E94B41414C2BFEFCB16D10409F008F44B
:103CE0000EC20631BCE51B0709F04DC280912402CB
:103CF0008A7A91E009F490E09093890169E2811158
:103D000065E38AE591E00E9421090E946214BFCF19
:103D1000902F812F34C2C5016DE070E00E94983170
:103D200081589D4FDC0114968C9181FF2CC2C601F5
:103D30000E94981428C20E94EE1C0E940018D7010D
:103D400016962D913C9121153105D1F0C9010E94A3
:103D50009E0B182F292FD70112963C91129715967A
:103D60005C91452F42954F7092959F70C92ED12C32
:103D70009C3008F050C0F601E55BFC4C0C94BD3162
:103D8000F70100811181992369F0C8010E94541341
:103D9000D82E682FC8010E94590DB8018D2D0E94A0
:103DA0003713D5CFC8010E94220DD82EF6CF022F8F
:103DB0000F70207F11F00295007F3323C9F000239C
:103DC00069F080E2810F883010F011110BC08091F2
:103DD0002402082B009324020E946214812F0E9467
:103DE000B21B19C080913103082B00933103F4CF2B
:103DF000812F0E94761B002371F0009580E2810FD5
:103E0000883010F0111117C080912402082300930C
:103E100024020E94621498E0C91AD108A4E0CA16CC
:103E2000D10420F40E9482090E94EA1160E0C701D7
:103E30000E94CA132CCF80913103082300933103D1
:103E4000E8CF822F8F70207F203211F08295807F03
:103E5000113061F4332329F04630E8F60E946C1BE0
:103E6000DACF4530C0F60E94611BD5CF332341F035
:103E70004423A1F350FFB2CF5F70F7015583EECF1B
:103E8000442389F3193349F4FFEF27EE33E0F1506F
:103E900020403040E1F700C00000812F0E94761BD7
:103EA000BACF822F86958695837069F0813009F0AC
:103EB000B2CF812F922F9370311102C090E080E039
:103EC0000E945609A8CF812F922F9370311102C002
:103ED00090E080E00E946C099ECF812F332329F06F
:103EE0000E94F10A0E94020A96CF0E94290AFACF84
:103EF000822F837089F531118ECF312F329536950F
:103F00003770330F330F812F8F70032E01C0880F4E
:103F10000A94EAF7412F407114FF07C04FE050E0C8
:103F200001C0440F3A95EAF74095269526952370EF
:103F3000223069F050F430912502213029F0842B91
:103F400083230E941F1567CF832B842BFACF482B26
:103F5000809125028427F5CF8695332311F0822F97
:103F60008170882309F457CF312F329536953770F9
:103F7000330F330F812F8F70032E01C0880F0A94E7
:103F8000EAF7412F407114FF07C04FE050E001C035
:103F9000440F3A95EAF740952695269523702230EE
:103FA00069F050F430917103213029F0842B832380
:103FB0000E94F51430CF832B842BFACF482B8091AD
:103FC00071038427F5CF022F0F70332329F0802F40
:103FD0000E941315812F42CF812F0E94611B802FD9
:103FE0000E94061518CF113F61F148F4103FA9F067
:103FF000332399F14111F2CE822F8F7126C0123FE7
:1040000039F1133FA9F780E0332391F22F7181E05A
:1040100001C0880F2A95EAF7CBCF332371F04530E2
:1040200008F0F9CE2F7181E090E001C0880F2A9549
:10403000EAF7909171038927BBCF463008F0EBCEA9
:10404000F1CF822F8F71332359F20E941315E3CEE3
:10405000822F8F713323C9F3C3CF442359F019330F
:1040600009F01BCF4FEF57EE83E0415050408040A6
:10407000E1F711CF822F8F71B3CF0031BFE51B075E
:1040800009F400CE0131EFE51E0709F408CE6801FE
:10409000E7E5DE1A81111FCEFFEFCF16D10411F034
:1040A00008F09EC065E772E08C2D0E94D312892B28
:1040B00031F5C6016DE070E00E94983181589D4F46
:1040C000DC0112968C91813009F0EBCD8091750264
:1040D00090917602892B99F08091770290917802E5
:1040E000892B69F08091790290917A0220917B026C
:1040F00030917C02822B932B892B09F4DCCD580163
:10410000BB24C5016DE070E00E949831AC014158BC
:104110005D4F6A01D70112962C91FC01ED57FD4FBE
:10412000808120FB80F98083222309F4F4CD0E9452
:10413000EB089093500280934F02F60182818F5FCB
:1041400082838091310390912402892B838305809F
:10415000F681E02D309731F0D6011B966D917C9160
:10416000C6010995C5016DE070E00E949831815843
:104170009D4FFC01848181FFCBCD90E080E0909346
:10418000320380933303F7019281992309F4D7CD49
:104190000E3DFCE51F0709F4CECD073A2DE51207C9
:1041A00009F4CBCD01153CE5130709F0C8CD0E94F9
:1041B00024154FEF54E38CE0415050408040E1F72C
:1041C00000C000000E9487100031FFE51F0709F4BE
:1041D00062CD01312FE5120709F059CF82E05CCDA5
:1041E0000631ECE51E0779F68091890169E28111BB
:1041F00065E38AE591E00E94F70887CDB0E0A0E092
:10420000E4E0F1E20C9462318091BF01807F31F4EF
:104210008091BC01C0910302811107C0CDB7DEB708
:10422000E8E00C947E312196C7708091C2018C1712
:10423000A9F3F090BA01E090BB01C090BD01D0900D
:10424000BE01A6016E2D8F2D0E948F09D0E0811135
:10425000EACF8E0183E0000F111F8A95E1F7F80184
:10426000ED53FE4F81818E11DECF80818F11DBCF28
:1042700082818111D8CFE380F480EC18FD0860E0E2
:104280008AEB91E00E94CA130E94E912E816F9062F
:1042900050F68091BF018F7080618093BF01F8015B
:1042A000E853FE4F80818F70806180838AEB91E0BC
:1042B0000E94591D0E94180DB1CFA5E1B0E0E3E6C0
:1042C000F1E20C945A318C0185E0F801DE0151963F
:1042D00001900D928A95E1F7F801E2804AEBA42E55
:1042E00041E0B42E8090BD019090BE01A401609188
:1042F000BB018091BA010E948F09682E8111A1C172
:10430000F801C380D480F090BC01C60188199909D6
:104310004C01FF2009F447C14080518060E0C50195
:104320000E94CA130E94E9127090BF018816990674
:1043300008F0E1C04091BD015091BE01B090BA01BA
:10434000A090BB01872D807F6A2D09F080C08B2D46
:104350000E948F09FE2C811124C0F80181818A11ED
:1043600020C080818B111DC02091C0013091C101FE
:104370008681978128173907A1F4E11012C0872D93
:104380008F7080618093BF018AEB91E00E94591D7C
:104390008091BF01F80185838F2D6596E0E10C9433
:1043A0007631A601652D842D0E948F09811122C0CE
:1043B00081E08E25F82FF170DF2E80FF3EC08091C6
:1043C00003022091C201821317C0498A5A8A89893F
:1043D0009A890E948313292F22952F70223008F189
:1043E000243030F59F7009F1F8019581907FE9F450
:1043F000F62CD2CF80E0DECF90E0FC0133E0EE0F70
:10440000FF1F3A95E1F7ED53FE4F3181531206C07D
:104410003081431203C03281E3120FC001968770CE
:10442000D2CF9F7011F0882319F3805E883000F39B
:10443000C8010E94591D6D2CDBCFEE2009F4ACCFD2
:104440008091BF0181608093BF01F12CA5CF8B2D9E
:104450000E948F0981111FC0F80181818A111BC040
:1044600080818B1118C02091C0013091C1018681DB
:1044700097812817390779F4E1100DC07582C801BA
:104480000E94591D88E0F801AAEBB1E001900D925D
:104490008A95E1F781CFC8010E949013882339F1F2
:1044A000EE2029F18091BF018032A0F02091BA0165
:1044B0003091BB013A8729871B86DD86CC868E87A3
:1044C0008091C0019091C101988B8F87CE01099690
:1044D0000E94591D88E0F801AAEBB1E001900D920D
:1044E0008A95E1F70E94FE20FF24F39455CFC8017E
:1044F0000E94591DF9CF872D807F51F48AEB91E0FE
:104500000E94591D88E0F50111928A95E9F79DCF27
:104510009090BA018090BB014091BD015091BE01C5
:10452000682D892D0E948F0981111CC0F80181819D
:10453000881118C08081891115C02091C001309167
:10454000C101868197812817390761F4E1100AC0FB
:104550007582C8010E94591D88E0F50111928A9563
:10456000E9F71ACFC8010E949013882309F4BFCF3E
:10457000EE2009F4BCCF8091BF01803208F4AACFAD
:104580002091BA013091BB013A8329831B82DD82DD
:10459000CC828E838091C0019091C10198878F83D6
:1045A000CE01019695CF60E08AEB91E00E94CA139C
:1045B0000E94E9128816990678F6FE2CEE2009F47E
:1045C00096CFE090BA01D090BB014091BD015091CF
:1045D000BE016D2D8E2D0E948F09811124C0F8011E
:1045E00081818D1120C080818E111DC02091C0015C
:1045F0003091C1018681978128173907A1F49091E4
:10460000BF0190FD3FCF907F09F43CCF8091BF0167
:104610008583903F09F433CF982F907F905F8F7000
:10462000892B85832CCFC8010E949013811152CF12
:104630008091BF0181608093BF01C8010E94591D14
:10464000ABCEEE2009F453CFC8010E949013F82E90
:10465000882309F44CCF88E0F801AAEBB1E001907F
:104660000D928A95E1F78091BA019091BB010E9469
:1046700083130E94FE2090CEA0E1B0E0E2E4F3E2DA
:104680000C94683129873A874B875C876D877E87D2
:104690008F87988BCE0109960E945D2181112FC0D2
:1046A00088E0FE013996DE01119601900D928A95FF
:1046B000E1F74C855D856A8589850E948F098111A6
:1046C0001EC0A091C201B0E0CD010196877099276C
:1046D0002091030228171906E1F033E0AA0FBB1F4F
:1046E0003A95E1F7AD53BE4F98E0FE013196019047
:1046F0000D929A95E1F78093C2010E94180D809166
:1047000003029091C201891312C06096E2E00C94FA
:1047100084310E9424151092C2011092030288E095
:10472000EAEBF1E0DF011D928A95E9F7E8CF90E02E
:1047300023E0880F991F2A95E1F78D539E4F0E9421
:104740005D21882311F38091030290E00196877028
:10475000992780930302D3CFFF920F931F93CF9398
:10476000DF938091B602882351F00091B5028091C9
:10477000B602081748F01092B6021092B502CDB7F3
:10478000DEB7E5E00C948131FF24F394F00EF09253
:10479000B50210E0C8016CE070E00E949831EC01B5
:1047A000C954DD4F4B815C81698188810E948F09EA
:1047B00081111EC08E819F81892B21F48885998566
:1047C000019651F4288139814A815B816C817D8118
:1047D0008E819F810E943C23C8016CE070E00E94A2
:1047E000983189549D4FFC01148213821092310339
:1047F0000F2DBDCF1092300310922F0310920E0197
:1048000080912E0380932D030E94C5090E94AC2342
:1048100008954F925F927F928F929F92AF92BF9234
:10482000CF92DF92EF92FF920F931F93CF93DF937C
:10483000C0912D0301E010E08EEFA82E8824839410
:1048400080912E038C1314C00E94AC230E94C509D2
:10485000DF91CF911F910F91FF90EF90DF90CF905C
:10486000BF90AF909F908F907F905F904F900895F2
:104870004C2E512CF201EE0FFF1FEB5DFC4F2081FF
:104880003181C90167E070E00E949831895E9C4FD8
:10489000EC018C81811162C09090B602A7EBB2E06E
:1048A000F0E0E0E0B12CE91508F055C01A96ED9063
:1048B000FC901B97C90167E070E00E949831895E07
:1048C0009C4FEC01C880D9804FEF5FEF712C872D92
:1048D00090E0BC01660F771F6C0D7D1DEB016881B8
:1048E00079816115710531F0E616F70609F4AC011E
:1048F0007394EDCF4F3F5407C9F1B80102C0660F62
:10490000771F4A95E2F7B62AE80102C0CC0FDD1FF7
:104910007A94E2F7CE010197B816190619F5CF017E
:104920006CE070E00E949831FC01E954FD4FC90130
:1049300067E070E00E949831DC01A95EBC4F1296DE
:104940008D919C91139797838683A082A182318752
:10495000208715968C92C9010E949A09E20121963E
:10496000C3706ECF14961C921E92139731961C96AC
:104970009ACFAAE1B0E0EFEBF4E20C945831498B06
:104980005A8B6B8B7C8B8D8B6111109231031D8642
:104990001E861F86188A85E0FE017196DE01199633
:1049A00001900D928A95E1F74C855D856A85898530
:1049B0000E948F09811111C061E0CE0109960E9409
:1049C000CA136C018B8537EFC3163CE5D30681F41F
:1049D000882321F181E080930E0129853A854B855A
:1049E0005C856D857E858F8598890E943C23C5C036
:1049F00068EFC6166CE5D60629F4882379F00E9484
:104A0000FA23EBCF79EFC7167CE5D70639F4882374
:104A100029F080910E018111F2CFDCCF07E113E084
:104A2000E12CB12CA12C88248394912C2EEF522EB2
:104A300044244394F8014081518166246A94762C81
:104A400020E0822F90E0FC01EE0FFF1FE40FF51F26
:104A5000608171816115710551F0C616D70609F4A0
:104A60003C012F5FEECFAA24A394B12CE3CFF12C0D
:104A7000FFEF6F167F0609F444C0F8014481F090FF
:104A80000E018F2D411180E0F82FF170FF2EF801FB
:104A9000358086819B85992309F4F1C0FF2009F4B4
:104AA000EEC0311014C0A401062C01C0440F0A94BA
:104AB000EAF7842B86838091B3029091B402C29767
:104AC00030F462E370E07093B4026093B302C40107
:104AD00002C0880F991F2A95E2F70197F8012681F5
:104AE0002817190671F480912F03909130030097D5
:104AF00009F447C00E94DC08C39708F442C0F801DB
:104B00004482EF28095F1F4FF1E0AF16B10409F0AE
:104B1000AACF8B85882309F40EC1EE2009F40BC1BE
:104B20000E94EB089093300380932F038091B6028C
:104B3000883018F591E0980F9093B60298E0FE0146
:104B40003996DE01119601900D929A95E1F790E069
:104B50006CE070E00E94983189549D4F28E0FE017E
:104B60003196DC0101900D922A95E1F72FEF3FEF8E
:104B7000FC0131872087D386C2866A96E2E10C94D5
:104B8000743120912D03F0912E03FE8B322FF0E033
:104B9000E0E06E89261315C030932D03E017F1076E
:104BA00009F4AFCF30E0F901EE0FFF1FEB5DFC4FD2
:104BB000B182A0822F5F3F4F2370332720932E03B3
:104BC000A0CF622E712CF301EE0FFF1FEB5DFC4FA7
:104BD0008081918167E070E00E949831DC01A95EDC
:104BE000BC4F6D917C9111977A8F698F40E080E086
:104BF00090E0E92FF0E0EE0FFF1F698D7A8DE60F50
:104C0000F71F2080318021143104E1F0F801019078
:104C1000F081E02DF88FEF8B80E005C02616370677
:104C200009F44F2D8F5FE82FF0E0EE0FFF1F6F8923
:104C3000788DE60FF71F608171816115710571F73D
:104C40009F5FD7CF4423C1F0F801891708F0FD0119
:104C500044820E171F0721F430932D03F42E51CFF9
:104C6000321305C0AE17BF0711F43F5F3370C301A5
:104C70000196282F23708DCFF0E0E0E0F8CF90E090
:104C8000311020C0F40102C0EE0FFF1F2A95E2F799
:104C90009F01215031092817390731F4442309F4C1
:104CA00048C0C5010E949A09C401062C01C0880FA2
:104CB0000A94EAF7982F9095F801868189238683D4
:104CC000F32C1FCF9C01062C02C0359527950A9422
:104CD000E2F7A90141705527BC0161507109862393
:104CE0009723892B11F5452B01F1F80182819381DE
:104CF000892BC1F01B821C821D821E8259825A821E
:104D00000E94EB088160582F9D838C83F80182817B
:104D100093818F83988729813A814B816D817E8130
:104D20000E943C23F8011582BFCFF22FF1703F2E75
:104D3000BBCF3F2CB9CF90912D0380912E039817B4
:104D400031F00E940924EE2009F447CE16CF0E94CC
:104D5000AC231092300310922F030E94C509F3CFA9
:104D6000A5E0B0E0E6EBF6E20C9466318C0190939E
:104D7000B0028093AF02011580E21807C0F4802FC3
:104D80000E94761BC8010E94990D9801205E31098E
:104D90002830310518F00115110531F40E94611B0E
:104DA0002596E4E00C9482310E944C1BF9CF80EFF1
:104DB00089838A831B820E94EB088160782F9D8300
:104DC0008C8349815A816B818D810E94B924E8CFFF
:104DD0000F931F93CF93DF938C01EB0165E772E094
:104DE0008C2F0E94D312892B71F4DD27CD58DD4F13
:104DF0008881F801128218828330F1F048F4813002
:104E000059F0823081F0DF91CF911F910F91089579
:104E10008430B9F08530B9F78091750290917602AF
:104E2000009789F306C080917702909178020097ED
:104E300099F30E94B026E7CF8091790290917A028F
:104E4000F6CF80917B0290917C02009791F72091A0
:104E50007502309176028091770290917802211547
:104E60003105F1F2009729F7C901E3CFA5E0B0E0E1
:104E7000ECE3F7E20C9466318C019093B0028093DE
:104E8000AF02011580E21807C0F4C8010E94990D15
:104E90009801205E31092830310518F001151105FF
:104EA00049F40E946C1B802F0E94B21B2596E4E0FF
:104EB0000C9482310E94571BF6CF80EF89838A833E
:104EC00081E08B830E94EB088160782F9D838C8327
:104ED00049815A816B818D810E94B924E7CFCF939C
:104EE000DF93EC010E943627CE010E94B026DF91AD
:104EF000CF9108950F931F93CF93DF938C01862F4B
:104F000065E772E00E94D312892BB1F4C09175025B
:104F1000D0917602209781F0F8018281833051F49C
:104F2000CE010E946F27CE010E946F27CE010E9402
:104F30006F2702C08430D0F7DF91CF911F910F917E
:104F400008950F931F93CF93DF938C01EB0165E7D7
:104F500072E08C2F0E94D312892B09F05CC0FE01F5
:104F6000FF27D80112968C911297ED58FD4F813092
:104F7000B9F414969C9192FF02C080830AC090FFFE
:104F8000FCCF82E080838091770290917802009735
:104F9000B9F480917502909176020097E1F110C00A
:104FA0008230B9F514968C9182FD28C080FD0BC02B
:104FB00083E080838091790290917A02009701F1D9
:104FC0000E94362728C084E0808380917B029091E4
:104FD0007C020097A9F78091750290917602009764
:104FE000F9F00E946F2780917702909178020097E4
:104FF00039F78091750290917602E2CF85E0808347
:105000008091750290917602009729F00E946F2797
:10501000F0CF86E08083DF91CF911F910F910895AB
:105020008091770290917802B8CF1F920F920FB6BD
:105030000F9211242F933F934F935F936F937F931E
:105040008F939F93AF93BF93CF93DF93EF93FF9390
:10505000D091E900DF708091EC00C82FC17080FD15
:10506000C0E81092E9008091F000877F8093F00003
:1050700078940E943A151092E9008091F0008860BF
:105080008093F000CD2BCF70C093E900FF91EF919A
:10509000DF91CF91BF91AF919F918F917F916F9150
:1050A0005F914F913F912F910F900FBE0F901F90E6
:1050B00018951F920F920FB60F9211242F933F93C2
:1050C0004F935F936F937F938F939F93AF93BF9310
:1050D000EF93FF938091E10082FF09C08091E2008D
:1050E00082FF05C08091E1008B7F8093E100809179
:1050F000E10080FF17C08091E20080FF13C0809123
:10510000E2008E7F8093E2008091E20080618093D4
:10511000E2008091D80080628093D80019BC85E0BD
:10512000809370038091E10084FF31C08091E200A0
:1051300084FF2DC084E089BD86E089BD89B5982FA4
:10514000917080FFFBCF8091D8008F7D8093D80035
:105150008091E1008F7E8093E1008091E2008F7E5C
:105160008093E2008091E20081608093E200809170
:105170006703882309F447C084E0809370030E948A
:1051800024150E9482090E94EA1180917003809187
:10519000E10083FF27C08091E20083FF23C080915C
:1051A000E100877F8093E10082E08093700310929A
:1051B00067038091E1008E7F8093E1008091E2009F
:1051C0008E7F8093E2008091E20080618093E20014
:1051D00042E060E080E00E944A088091F000886030
:1051E0008093F000FF91EF91BF91AF919F918F91CC
:1051F0007F916F915F914F913F912F910F900FBED3
:105200000F901F9018958091E30087FD93E0909395
:105210007003B5CF78941F921FB61F9211248F93FD
:105220009F93AF93BF9380913A0390913B03A091DA
:105230003C03B0913D030196A11DB11D80933A033B
:1052400090933B03A0933C03B0933D03BF91AF9178
:105250009F918F911F901FBE1F9018951F921FB690
:105260001F9211248F939F93AF93BF9380913A0322
:1052700090913B03A0913C03B0913D034196A11D49
:10528000B11D80933A0390933B03A0933C03B093EA
:105290003D03BF91AF919F918F911F901FBE1F90B3
:1052A0001895CDB7DEB7E7970FB6F894DEBF0FBEFF
:1052B000CDBF84B7877F84BF0FB6F894A89580913F
:1052C0006000886180936000109260000FBE80E8EB
:1052D00090E00FB6F89480936100909361000FBE48
:1052E00089E59BE090935901809358010E94DA0967
:1052F0000E9413141092E2001092E1008091E000ED
:1053000081608093E0008091D8008F778093D800EF
:1053100019BC809163008160809363001092260223
:10532000809163008E7F8093630081E080932602EA
:105330001092E2001092E1008091D8008F77809364
:10534000D8008091D80080688093D8008091D800E0
:105350008F7D8093D80084E089BD86E089BD89B5C2
:10536000282F21702FAB80FFFACF1092700310927C
:105370006703109266031092650342E060E080E0EC
:105380000E944A088091E1008E7F8093E100809125
:10539000E20081608093E2008091E2008860809367
:1053A000E2008091E0008E7F8093E0008091E20037
:1053B00084608093E2007894809170038823A1F048
:1053C0001091E9001F709091EC00892F817090FD81
:1053D00080E8182B1092E9008091E80083FD0E947C
:1053E0003A151F701093E90082E084BD93E095BDEB
:1053F0009AEF97BD80936E000E94FA13811102C04C
:105400000E94C31280913E02816080933E021092FE
:10541000570210925602109259021092580210929E
:105420005B0210925A0210925D0210925C0210927E
:105430005F0210925E02109261021092600210925E
:1054400063021092620210926502109264022E981A
:1054500026982B9823980E94360E0E94DD0D80918D
:105460006900886080936900E99887E292E09093F0
:105470003802809337021092390210923A028FE07C
:1054800080933B020E942F0E90E080E00E94133236
:10549000883E9E4F21F40E94FA13811102C00E949F
:1054A000EE1C82E090E00E940B3280933E0284E08A
:1054B00090E00E940B32182F82E290E00E940B32A3
:1054C000982F812F90933F0380933E030E941618DC
:1054D0004FEF56E781E0415050408040E1F700C077
:1054E00000000E94161880915A0290915B0291FF71
:1054F00008C06FEF7FEF90E080E00E9437320E949B
:10550000871083E090E00E940B320E941F1560918B
:105510003E03606860933E0310913F0384E090E097
:105520000E941932612F82E290E00E94193282E0DB
:1055300091E09093370380933603DE0111962D019D
:10554000FE013396FEABEDAB0E941618FFE38F2EE3
:10555000F2E09F2E06E512E0D801F401219131918D
:105560008D919D914FE452E04E175F0709F44EC0B4
:105570002817390799F3E6E5AE2EE2E0BE2E712C2E
:10558000D501ED90FD905D01F401219031904F0126
:105590002E143F0459F1612CCC24C394D12C2E2419
:1055A0003F24C1018C219D21892BB1F068AA79AAE1
:1055B00021E0C7018C219D21892B09F420E02AAB31
:1055C0000E94EB088160782F9CAB8BAB48A959A94E
:1055D0006AA98CA90E94B9246394CC0CDD1CF0E16B
:1055E0006F12DFCFF4013297F182E082739428E0EA
:1055F0007212C6CF8FB7F89440913A0350913B0393
:1056000060913C0370913D038FBF22C0281739077A
:1056100009F0B1CF0E94EB087C0180913C0290918F
:105620003D02E816F906A1F08FEF8BA78CA71DA607
:105630000E94EB088160782F9FA78EA74BA55CA5E1
:105640006DA58FA50E94B924F0923D02E0923C0224
:10565000E0903203F0903303E114F10431F18091D2
:105660004F02909150020E94DC086C01C7010E9419
:10567000E9128C159D05C8F4209132033091330353
:105680003327C9016DE070E00E9498318D579D4F1E
:10569000DC018C9182FD09C0C9016DE070E00E94BF
:1056A000983181589D4F0E94B41480910E01882337
:1056B00001F180912F03909130030097D1F00E9467
:1056C000DC082091B3023091B4022817390788F41E
:1056D00090912D0380912E03981709F435C10E94F3
:1056E00009241092B4021092B30210923003109267
:1056F0002F0386E0EDE6F2E0D20101900D928A954B
:10570000E1F710926F0210927002109271021092E3
:1057100072028B819C81892B09F44FC080916B02AE
:1057200090916C020E94DC089C0190916702992381
:1057300009F46CC42531310508F43FC09F3F19F0CE
:105740009F5F90936702FB80FF2051F00E94D00A78
:105750006FEF1F140CF46FA90E948F3180936F02BA
:10576000FC80FF2051F00E94D00A6FEF1F140CF450
:105770006FA90E948F318093700280916F028823FD
:10578000E1F0209170022223C1F0082E000C990B49
:1057900065EB70E00E949831992309F4DEC0909384
:1057A0006F02822F220F990B65EB70E00E949831F7
:1057B000992309F4D6C0909370028D819E81892B24
:1057C00009F44FC08091690290916A020E94DC083E
:1057D0009C0190916602992309F413C42135310587
:1057E00008F43FC09F3F19F09F5F90936602FD80D1
:1057F000FF2051F00E94AC0A6FEF1F140CF46FA948
:105800000E948F3180937102FE80FF2051F00E9430
:10581000AC0A6FEF1F140CF46FA90E948F318093B4
:105820007202809171028823E1F02091720222239A
:10583000C1F0082E000C990B65EB70E00E949831C6
:10584000992309F492C090937102822F220F990B31
:1058500065EB70E00E949831992309F48AC0909317
:10586000720246E050E0B2018DE692E00E94E7311C
:10587000892B61F480916F0290917002892B909135
:105880007102892B90917202892B11F00E94020AF9
:1058900086E0F201ADE6B2E001900D928A95E1F763
:1058A0000E94820990915102891779F080935102E8
:1058B0009FB7F89440913A0350913B0360913C03A9
:1058C00070913D039FBF0E94EA1180917003843064
:1058D00009F03ACE83E08093E9008091E80082FFEE
:1058E00033CE8091E80090E085FF0AC00E94A807AF
:1058F00050E2E52EF12C6201882309F448C091E0C2
:105900008091E8008B778093E800992309F41CCEFE
:10591000E090B102F090B2028981E114F10409F43F
:1059200044C08E3F09F0CEC08A81833020F085507C
:10593000833008F0C7C0EA81EE3008F0C3C0F0E061
:10594000E95AFC4C0C94BD310E94AC2310923003F8
:1059500010922F030E94C509CCCEB1E0B0936F0224
:1059600020CFE1E0E093700228CFF1E0F0937102E4
:105970006CCF21E02093720274CF8091F100D601A8
:105980008D936D01B1E0EB1AF10809F4B8CF809165
:10599000E80085FDF2CF8091E8008B778093E800E6
:1059A0000E94A807882399F3AACF8C3009F4CCC0B1
:1059B00050F5843009F4AFC058F4823009F468C05F
:1059C00008F09AC0813009F45FC08FEF89837AC0F4
:1059D000863009F4B6C008F4A9C08B30B1F78091C5
:1059E000AD029091AE02892B09F46CC0C2010E94F5
:1059F0000308EFEFF1EE24E0E150F0402040E1F742
:105A000000C000007CCD803109F4CEC088F58E3016
:105A100009F4A1C008F49BC08091AD029091AE0240
:105A2000892B09F44FC00C8110E00D31110508F0ED
:105A300049C0EA80FB80FE24EF24FE246201040DAD
:105A4000151DC701815B9D4F0C151D05D9F131EB6B
:105A5000E31631E0F30628F4D60114966C910E9407
:105A60001932BFEFCB1ADB0AEFEFEE1AFE0AE9CFCD
:105A7000823109F49EC008F49AC0833109F4C0C091
:105A80008E3F09F0A2CF57CF1A8289E08B831AC0CC
:105A90008A81823009F4ADC28330C1F0813009F0CF
:105AA00094CF2FB7F89460913A0370913B038091A3
:105AB0003C0390913D032FBF0E94C3316B837C83D5
:105AC0008D839E83C2010E9403083ECD8091AD026A
:105AD0009091AE02892BB1F3F20186E692E0D801F3
