:100000000C948A070C94C2070C947F330C94C2079B
:100010000C94C2070C94C2070C94C2070C94C2073C
:100020000C94C2070C94C2070C94B12B0C946D2B4A
:100030000C94B42C0C94C2070C94C2070C94C20705
:100040000C94C2070C94C2070C94C2070C94C2070C
:100050000C94C2070C94902C0C94C2070C94C20709
:100060000C94C2070C94C2070C94C2070C94C207EC
:100070000C94C2070C94C2070C94C2070C94C207DC
:100080000C94C2070C94C2070C94C2070C94C207CC
:100090000C94C2070C94C2070C94C2070C94C207BC
:1000A0000C94C2070C94C2070C94C2070501090204
:1000B000A10185020901A100050919012905150001
:1000C00025019505750181029501750381010501E1
:1000D000093009311581257F950275088106093897
:1000E0001581257F950175088106050C0A380215D2
:1000F00081257F950175088106C0C005010980A191
:1001000001850319012AB700150126B7009501756D
:10011000108100C0050C0901A101850419012AA064
:1001200002150126A002950175108100C005010984
:1001300006A1018506050719E029E71500250195A7
:1001400008750181020507190029EF1500250195A1
:10015000F0750181020508190129059505750191C0
:1001600002950175039101C00660FF0961A10109B3
:1001700062150026FF0095207508810209631500AD
:1001800026FF00952075089102C005010906A1010E
:10019000050719E029E71500250195087501810279
:1001A0009501750881010507190029FF150026FF33
:1001B0000095067508810005081901290595057542
:1001C000019102950175039101C0007B4601020374
:1001D000763A687F6577482B353B697879643914BE
:1001E0001E3C6A7A1D16041A1F3D6B061B07082168
:1001F000203E6C2C19091715223F6D11050B0A1CA6
:1002000023406E7E100D182425416F360E0C1227E8
:1002100026427037380F33132D43717534322F2E29
:1002200044727C7D28303174457351504A524D4997
:100230002A5466594F5C5F4C4B4E62635A5D5E6058
:10024000295367585B56576147554842403E3C3AF0
:100250003B456843413F3D2B357E697A79007814F0
:100260001E7B6A7C1D16041A1F7F6B061B07082164
:1002700020656C2C19091715224A6D11050B0A1CF3
:10028000234C6E49100D182425516F360E0C122781
:10029000264F7037380F33132D52717534502F2E6F
:1002A0004E72397D28304D314B7354645867760156
:1002B0002A773259745C5F66020362635A5D5E603E
:1002C000295344575B565561474680291E1F2021FC
:1002D0002223242526272D2E2A2B141A0815171C15
:1002E000180C12132F302878041607090A0B0D0E6C
:1002F0000F33343579311D1B061905111036373887
:100300007D557A2C393A3B3C3D3E3F404142435378
:10031000475F6061565C5D5E57595A5B6263464851
:10032000644445677B7F650301025250514F686901
:100330006A6B6C6D6E6F7071725800494C754A4DE6
:10034000734B4E767C777E746654FD377A585A002C
:100350000004E6D6B4460200210116000000742F06
:10036000E5A3E055BB08015D003D8889C65436C34E
:10037000174FE4E6B5BBD591A18B3C5865A19C6BAA
:100380007B00D2C56778067BFA733BAF6325648137
:1003900059BE288AD2CEC839F88CD01BD471EDADA5
:1003A0004A8B36E368FD5249D45CF7FCD5E0120174
:1003B000142871B572BE90A39E1CB83637B72EE1D3
:1003C0007ED53C463C8CC15FDDA619EB579B62DDB8
:1003D000D4623FBA86D009DE30EF70924B23973A51
:1003E00041DA2CB0C63D9D9D4DCA7B9073B76550D8
:1003F00062D068E4D652A771C44FAA7FFAAF70509A
:10040000FCFF5625137BFCE534F709146CF8DEF687
:100410006299DB4D72BAB98CEDCEF95702A4214D29
:1004200036B5BC027DDC0918E2272D046B0EA3BE95
:1004300067C46D2F77FE43A6B29CBF104C420F1BC2
:10044000875E8ACBA2D4533B54C8886CE5E33CFD5D
:10045000E3A7CE8E9EF0EA2971AC570B0C47668F4E
:100460001B240F5F672FB4E73742CB5499E498669B
:10047000D02D46CB128F32722FC6B8BD2DC58EDD62
:100480008AC0A414CE51A905325354021B32A6C50A
:10049000F42AB62A31338B0E6FEB0B2BE18E8C785E
:1004A00013167E85F1A40E40D0ACA1C0B7DE97A094
:1004B0003F350B22481701A56767C47A93D8439349
:1004C0000EAC9DADE44E0F4052A11CAE0728FB3888
:1004D000C40D5120062B5B5666F0517CFF700BE873
:1004E000E4B4A8D216BDB39CFFE9A69DF416890317
:1004F000F42EB7CA42E81522395597E6133EEA9220
:100500001FD5ED05005F0C3FF1B42F4C91EC4CC3AF
:10051000C054A9747F2CAAEA075880BCEFF4909AC3
:10052000F98CEEED1C314BFF11FFAB462335D6F2B3
:100530002AB7F0744F77BC69D4CC713CD7B5F59D20
:1005400057029253D2DC836F4C9218E708D0673F72
:10055000540345A720365084542A3B977DEB9331B2
:10056000F9BFDC385883DE9AAFD17929F4E3227AD7
:1005700038097FBC8F16A7D34EB460175333D932D6
:10058000A4B17ADDC0FED38B76DCDA0A87C5D5D973
:10059000B8F9F4AD19E2E9654DE7E46142546C3B0A
:1005A0008FA2B1DED98F573005AC51C4ACDDB9CCC8
:1005B00053B81D84F76BD1D372A4F2EF13E139C1A4
:1005C000AB6A454D0D623C52AF44A9B866A8157799
:1005D00048D8B893FDBC727ABF9742910B7937D354
:1005E00048DD560C2F4E883DBFD4536568C0481374
:1005F0002867CCDB5D57002B832C7921D9CAE4CF47
:1006000056555C69990543D8BE8DDEC613A4F6899C
:10061000E3BF9D390B4FCB5363B224F5DB373DF776
:100620006A63AC4707D8F227EA0F840617F5999852
:1006300016C09846B6806ECA8A5656E0F5E56F8BAE
:10064000E93CB2B0DB9085250A7FAE17E83FF5752F
:10065000E64E5116F61E612EF6A4345E9D47277CA9
:100660006EC2046E78E3C3D0872884D618ADC65E08
:10067000802CE990EF357A507CB2106D57D32391DE
:1006800021EAA412427C27DB21F7E5C11D58A3DF34
:10069000531E535DEA90C57C3AA8D430BFB8D0FA57
:1006A00021391BEF4D127C3FF5CECAF88CC71339A8
:1006B00089257E4EC8ECBE7F175AA0A353107DF249
:1006C000C2C0B5B51CFB005CB87C57ECE20440F638
:1006D0008AC3486495BAD92A09C0F1396C15A0B803
:1006E0005F840A61D1FA2AEE3C07BC096DC86858DC
:1006F000AEC4A17C81125EAA6C575AD8FA244E5F10
:10070000A0F8300913D97AFC9A6A429BF73420A4E6
:10071000C8E0EF9D2B6FF1CAB633E7962134B80BD2
:10072000F98AA58023C4D1FB6C80426E4C4C003BFF
:10073000D7F96969839C23AEB106635F946827EF9C
:100740001620AD8811F56DF3FA18FE30AC18F20BD7
:1007500022E27405D69D3511ED52A88AA694835FD6
:1007600010219D4F87B076B2BA0A1BF611112137BE
:10077000B9502787888A24A4B8544337B96A2026F9
:10078000BC53AA04D5587702723F33848AE0C2581A
:10079000E7FDD83A0017B86C85B69514F0827B6FE8
:1007A000957F74954719E5175C64F7E53D4BFE7737
:1007B000BE13EFE303A6D7EBD6CDE3E32816D7FAB3
:1007C000F72380C80F99D4B5C5A8A15825FF40FFCD
:1007D0006F6CE3BAFE1FFABB4BB2E3A6472E47A5E8
:1007E00075AD2201D5A266D20C1B5BC60B012F553D
:1007F00072A86A2527C6E6B9A8DA2468E75418EE75
:1008000003B9E31E4E30AB65AB14DDF9B31F76B709
:1008100001CE793BC776B90284C35F35B157C5BEF7
:10082000EC8406585C14D50E1AFE1132884D635BB9
:100830004CB62100840783C53FDC02D5BB560C5B58
:10084000805F6760606CD22E997BEC1C817824B14C
:1008500082899D04BD58F05C24376EA58ADAC454A1
:100860000FD26EECE7CE22DFAAE775345E7F4760D9
:100870008A97AE2F85D0D82EFE6643CAE789C4A5D5
:100880007F972A54B6BEDF26AD0A9E74725333DCBE
:10089000659EEA94193D07D4A2BB1083E454BA665E
:1008A00070DFA524E076CB3DB282C07802480CC14F
:1008B00054474D6600538EB97215562F7C64C67D21
:1008C000D061202F231AB37FF53A35344D37E589AF
:1008D0007D0519B0F68B71111FC0C4DCE0D30AFB93
:1008E0003BBD3B3C8FBB95368B3013F1260A7DC652
:1008F0004521F54FFA2B079CB8625E04AD66B1FE48
:10090000261D2AC0FE59661927FB49AB73C074C166
:100910007FDB86321C6A0FD3927179791F4AE08798
:100920000149D798B4DDF6459DD1265C2E25575A4E
:10093000E49123D7C48CF03CEDA9BB0BCD45894A8B
:1009400038969DC3A923C8F46997223F08F4EBBEEB
:10095000CD5541C9DD20CFB57F7E60208AAD04DC56
:100960000788E6AAD34656D8B5BE0A66EBFAD8A7DA
:100970001FD84DC232E6CCF2F1FCD5A762D0695E39
:10098000F73244126CAAE36E6399A265448ECA7D65
:1009900041BC4442959DC0FD9950E6CAC282CE8AB0
:1009A000AE1CC84B5C191AFBD914AABF3BB8596AD4
:1009B000FEC5606795DD968B058FA7533B4D827C06
:1009C000AAAC75C1F79440B1D7648B495CF7134367
:1009D00060FE9526D61D74AD6FA16773A735B3571A
:1009E000F754D93C7FE4916BABE2F26AA8A227D717
:1009F00077770E873D926B5CC091D75760CC00E44F
:100A000016943F382C058D4FF49E2C0FFBCEBFF76C
:100A10007EC6B639381E1F6B6668BF957D082EA846
:100A2000B397FEED98BD0D81BFAC9079572501B409
:100A3000586C7023B938C213EDA4E6D7145EE5975D
:100A40008B193AE96637A79F94506A98D52E05B757
:100A50009746AB589B37FDC04BDDA6B517F12486F2
:100A6000730768A7C44285194EAE654567429E89E3
:100A7000BD22705F144F67362E0295075F764F10C8
:100A8000ADC636AC0196569ED32DDEB52AC7E57DA0
:100A9000F91878785F42019A1346AD4428216BEC2F
:100AA000094EF2496F9B75ED17728B74B9F00FC93F
:100AB000559F200C489CF6375DE72E0295BBD6A3C8
:100AC0008D566A427066CB3BB544777B7A87B276A7
:100AD0007C3FE0EE188D3873CB2BD646C92728ED26
:100AE0009B1473F320D56F723ADEF99939A3D5C4FC
:100AF0007458249DBA87B340DB85516D4A97AF4641
:100B0000503828CBDDB86C17F2D17EDA26237E660A
:100B10004D3F9E7211A5D91DFDE180A22802384DDE
:100B20003776D5CA356BD5D675442E1C9148AE3173
:100B3000E602715DE527D7A328298803EF548F8E3D
:100B40002DB2AF89A3365A56ABBAA0642BEFCD2194
:100B50005795DC546B64A148854744D22145B95B65
:100B6000B518F9DC8581390CD2A600000000E10A35
:100B70002C4C267946E000019D10BCAB01002034CE
:100B8000DF99B1C467FB020000000004595A8800D5
:100B9000AA00A900A800040005000600070008003C
:100BA00009000A000B000C000D000E000F001000E1
:100BB0001100120013001400150016001700180091
:100BC00019001A001B001C001D001E001F00200041
:100BD00021002200230024002500260027002800F1
:100BE00029002A002B002C002D002E002F003000A1
:100BF0003100320033003400350036003700380051
:100C000039003A003B003C003D003E003F00400000
:100C100041004200430044004500460047004800B0
:100C200049004A004B004C0065004E004F00500048
:100C30005100520053005400550056005700580010
:100C400059005A005B005C005D005E005F006000C0
:100C500061006200630064004D0085006700680069
:100C600069006A006B006C006D006E006F00700020
:100C7000710072007300890087008A008B00E00019
:100C8000E100E200E400E300E500E600E700010027
:100C9000010001000100010001000100010001004C
:100CA000010001000100010001000100010001003C
:100CB000010001000100010001000100010001002C
:100CC000010001000100010001000100010001001C
:100CD000010001000100010001000100010001000C
:100CE00001000100010001000100010001000100FC
:100CF00001000100010001000100010001000100EC
:100D000001000100010001000100010001000100DB
:100D100001000100010001000100010001000100CB
:100D200001000100010001000100010001000100BB
:100D300001000100010001000100010001000100AB
:100D4000010001000100010001000100010001009B
:100D5000010001000100010001000100010001008B
:100D6000010001000100010001000100010001007B
:100D7000010001000100010001000100010001006B
:100D80000100010001000100010001000100090251
:100D90005B00030100A0FA09040000010301010047
:100DA000092111010001224000070581030800010B
:100DB00009040100020300000009211101000122C1
:100DC000220007058203200001070503032000011C
:100DD00009040200010300000009211101000122A1
:100DE000BC0007058403200001120100020000007E
:100DF00008EDFE36650201010203011C037600695D
:100E00000061006C003A0066003600340063003276
:100E10000062003300630000002E03740069006E5E
:100E2000006B00650042004F00590020005B006924
:100E30000062006D00700063006B0062002E0075A0
:100E400000730062005D0000001403540049004E6E
:100E5000004B004500520042004F005900000004C2
:100E60000309040000000000000000000000000072
:100E70000000000000000000000000000000000072
:100E8000000000000000007E0F00D4FFFFFFC7003D
:100E900000007800000000000000002A2B2800005D
:100EA0000000000000000000000000000000290019
:100EB0000000002C1E3420212224342627252E3623
:100EC0002D3738271E1F2021222324252633333691
:100ED0002E37381F0405060708090A0B0C0D0E0FE4
:100EE000101112131415161718191A1B1C1D2F3167
:100EF00030232D350405060708090A0B0C0D0E0FCB
:100F0000101112131415161718191A1B1C1D2F3146
:100F100030354C0011241FBECFEFDAE0DEBFCDBF6D
:100F200004B603FE18C08091AD039091AE03A0916A
:100F3000AF03B091B0038730904BA740B04B59F44A
:100F40001092AD031092AE031092AF031092B00353
:100F5000E0E0F8E3099511E0A0E0B1E0ECE8FDE69F
:100F600002C005900D92AA35B107D9F723E0AAE592
:100F7000B1E001C01D92AD3AB207E1F70E94D72C53
:100F80000C94AF350C940000E8EDF0E080818E7F8A
:100F900080831092E2001092DA001092E100A0EE3D
:100FA000B0E08C9181608C9380818F77808319BCB5
:100FB000A7EDB0E08C918E7F8C9380818F7E8083B3
:100FC00010927D0308952091E4003091E50095E6AC
:100FD000A9012091EC00822F817020FF06C0809132
:100FE000E80080FF06C080E008952091E80022FD1F
:100FF0001AC08091AB03882389F0853089F08091F5
:10100000EB0085FD0FC02091E4003091E500421710
:101010005307F9F29150E1F684E0089582E00895D3
:1010200083E0089581E00895EF92FF920F931F935C
:10103000CF937C018B010E94E307C82F811117C059
:101040008091E80085FD0BC08091E8008E77809349
:10105000E8000E94E307882399F3C82F08C0F7012E
:1010600081917F018093F1000150110949F78C2F84
:10107000CF911F910F91FF90EF900895CF93FC01B6
:101080008091AB03843001F5C091E900CF702091CD
:10109000EC00922F917020FD90E8C92B82E08093A4
:1010A000E9008091E80080FF0CC050E040E060E281
:1010B00070E0CF010E9414088091E8008E77809341
:1010C000E800CF70C093E900CF9108958091A30309
:1010D00087FF13C08091E80082FF06C08091E8007E
:1010E0008B778093E80004C08091AB038111F2CF2D
:1010F00008958091AB038823D9F38091E80080FFA5
:10110000F8CF8091E8008E77ECCF982F9093E9008C
:10111000242F762F50E0891731F07091EC00209148
:10112000ED005091F00021FD07C09F5F973071F7EF
:101130008093E90081E008953091EB003E7F309389
:10114000EB003091ED003D7F3093ED003091EB00EE
:1011500031603093EB007093EC002093ED005093DE
:10116000F0002091EE0027FDE0CF80E00895B0E090
:10117000A0E0EDEBF8E00C94D634C8EDD0E0888127
:101180008F7E8883E7EDF0E080818160808384E05A
:1011900082BF81E080937D0388818E7F888302EE09
:1011A00010E0F80110821092DA0081EEC82ED12CE6
:1011B000F601108288818F77888388818068888390
:1011C00088818F7D888319BC1092AB031092A20393
:1011D0001092A1031092A00390EEE92EF12CF701DA
:1011E00080818B7F808388818160888342E060E09A
:1011F00080E00E948508F60180818E7F8083F8015F
:10120000808181608083808188608083F701808114
:101210008E7F8083888180618883CDB7DEB7E8E0E8
:101220000C94F234FC018091A9039091AA038617D3
:101230009707A0F06115710529F49091E8009E7759
:101240009093E80090E06115710551F4911108C088
:101250008091E80082FF34C080E00895BC01F2CFA5
:101260008091AB038823C1F18530C1F18091E80002
:1012700083FD30C08091E80082FDEACF8091E800D4
:1012800080FFE1CF8091F3002091F200382F6115AB
:10129000710519F02830310558F091E028303105FA
:1012A00009F090E02091E8002E772093E800CBCF62
:1012B00081918093F100615071092F5F3F4FE7CF1B
:1012C0008091AB03882341F0853041F08091E800A4
:1012D00083FFBECF81E0089582E0089583E0089502
:1012E000089580917F0308959C014FB7F8948091F1
:1012F000740390917503A0917603B09177034FBF6B
:10130000821B930B08952FB7F8946091740370912A
:10131000750380917603909177032FBF08952FB7BF
:10132000F8948091740390917503A0917603B09125
:1013300077032FBF0895209110012223C1F020913F
:10134000780327FF14C0E62FE695E695E695EE3183
:10135000F8F4E80FF92FF11D677021E030E001C0CB
:10136000220F6A95EAF78281822B82830895FC011D
:1013700032962FEF30E04191641751F02F3F19F46E
:10138000411101C0232F3F5F3630A9F72F3F09F4E9
:101390000895820F911D27FD9A95FC01628308959F
:1013A00020917203309173032817390771F09093DD
:1013B000730380937203E0917003F091710330978F
:1013C00021F00084F185E02D0995089520916E03A8
:1013D00030916F032817390771F090936F03809352
:1013E0006E03E0917003F0917103309721F0068055
:1013F000F781E02D09950895E0917003F091710354
:10140000309729F00190F081E02D0995089580E052
:101410000895CF93DF93EC014091600350916103F5
:1014200060916203709163032FB7F8948091740305
:1014300090917503A0917603B09177032FBF841B21
:10144000950BA60BB70B843F9140A105B10518F58C
:101450008091600390916103A0916203B091630356
:1014600080935C0390935D03A0935E03B0935F034E
:1014700084EF91E0A0E0B0E080935803909359038B
:10148000A0935A03B0935B03D0936803C0936703A0
:10149000DF91CF9108950E94830960935C0370935C
:1014A0005D0380935E0390935F0382E390E0A0E08E
:1014B000B0E0E2CFFC018481862351F4928199232C
:1014C000B9F06923808583FF05C081E061110FC0F9
:1014D00080E00895892F8F7092959F70982B862FAA
:1014E0008F7062956F70682B81E09613F1CF08952D
:1014F00081E0FDCF452B39F0682381E06F3F09F093
:1015000080E08170089581E0FCCFDC01609154039C
:1015100080915503962F891301C00895292F30E03B
:10152000F901EE0FFF1FE45BFC4F408151814A1728
:101530005B07A1F487E08A9FA0018B9F500D1124C7
:10154000425C5C4F81E0FA0184839613E6CF2F5F03
:101550003F4F237033272093540308952F5F3F4F4D
:10156000922F9370D8CF1092DB021092DA02809102
:101570004303811104C010924203109244038091EE
:101580004A03811104C01092490310924B0308953D
:10159000E1E8F2E042ED5AE25683458329EF3AE270
:1015A0003087278383E59AE29287818714861386A2
:1015B000538B428B358B248B978B868B81E090E00D
:1015C000918F808F089581152CE5920741F4209129
:1015D000D4023091D502232B11F490E080E00895DD
:1015E0000E948F099C019091710280917202982B48
:1015F00021F030936E0220936D02909173028091DE
:101600007402982B21F030936C0220936B02E091CE
:101610007003F0917103309749F082E080936F027C
:101620000480F581E02D8FE692E009950895909170
:101630007102803F59F48091720287FF0DC01092B1
:10164000720291110BC01092690208C0813F81F4AF
:101650008091720218169CF3992381F08091730295
:1016600090917402892B09F064C010926802089569
:10167000823F49F497FFF0CF10927102809172027D
:101680008111ECCFE0CF833F19F41916ACF3E4CF0E
:1016900020917302893F29F41216F4F61092730216
:1016A000DBCF8A3F19F427FFD7CFF8CF2091740200
:1016B0008B3F29F427FFD0CF10927402CDCF8C3FFF
:1016C00019F41216CCF3C8CF843F31F48091700224
:1016D0008E7F80937002C0CF853F21F4809170028D
:1016E0008D7FF7CF863F21F4809170028B7FF1CF01
:1016F000873F21F480917002877FEBCF883F21F4F0
:10170000809170028F7EE5CF8D3F31F480916A0227
:101710008E7F80936A02A0CF8E3F21F480916A026F
:101720008D7FF7CF8F3F09F097CF80916A028B7F33
:10173000F0CF089580916A0280FD16C081FD16C029
:1017400082FD16C0809168028823A1F0883280F45F
:1017500028E0829FC001112468E270E00E940335F6
:10176000862F672B39F0089582E0089584E008956C
:1017700088E0089581E0089580916A0280FD14C098
:1017800081FD14C082FD16C080916902882381F01A
:101790008E3180F420E5829FC00111246EE170E05B
:1017A0000E940335862F089584E1089588E2089504
:1017B00088E0089580E50895803F31F40E94BC0BD5
:1017C0008195809372020895813F19F40E94BC0BA9
:1017D000F8CF823F31F40E94BC0B81958093710257
:1017E0000895833F19F40E94BC0BF8CF893F29F478
:1017F0000E949A0B8093730208958A3F21F40E94FD
:101800009A0B8195F7CF8B3F31F40E949A0B81950B
:101810008093740208958C3F19F40E949A0BF8CFBC
:10182000843F31F48091700281608093700208954A
:10183000853F21F4809170028260F7CF863F21F4CA
:10184000809170028460F1CF873F21F48091700213
:101850008860EBCF883F21F4809170028061E5CFF2
:101860008D3F31F480916A02816080936A0208950D
:101870008E3F21F480916A028260F7CF8F3FB9F7E3
:1018800080916A028460F1CF80E00895909178039E
:1018900092FF06C0282F28712830F9F4877F8460D2
:1018A00093FF06C0282F28712831F1F4877E8461C8
:1018B0002091790320FF06C0382F38713830D9F4D1
:1018C000877F816021FF06C0282F28712831D1F43D
:1018D000877E816194FD877E0895282F24712430AE
:1018E000F9F68B7F8860DCCF282F2471243101F733
:1018F0008B7E8861DDCF382F3171313019F78E7FC3
:101900008860E0CF282F2171213121F78E7E8861F8
:10191000E1CFCF93DF93EC018238910581F1D8F5C7
:101920008133910509F498C020F58932910509F4B5
:1019300088C08A9709F497C0C11520E5D20708F03E
:10194000AEC0C11530E4D30708F0FDC0CF3BD105D0
:1019500008F090C0C83AD10508F0E8C0C53AD105F2
:1019600008F0DCC0C430D10520F5C130D10509F143
:1019700045C08533910509F45FC0C997E9F68091A8
:101980007803837009F030C18091790383FF11C01F
:10199000C9E2D0E00EC0833E910599F170F4803E1B
:1019A000910501F1823E910539F68091780382FD1F
:1019B00021C0CE01DF91CF910895863E910561F15E
:1019C000873E910571F1843E910509F0B5CF809174
:1019D000790381FFEECF80917803C7EED0E084FDDC
:1019E0000DC0E7CF8091780380FD33C090917903DB
:1019F00090FFDFCFC3EED0E084FFDBCFD0E0C0E0CC
:101A0000D8CF8091780382FDECC09091790390FD4E
:101A1000EBC084FFCECFF2CF8091780383FDDDCF82
:101A2000C8CF8091780383FDE2C09091790391FF44
:101A3000F0CFC4EED0E0BDCF8091780385FFB9CF61
:101A4000A7CF8091780385FDD5C08091790383FF6E
:101A5000B0CFC9E3D0E0ADCF8091780386FFA9CFA6
:101A6000CAE2D0E0A6CF8091780386FFA2CFC1E37F
:101A7000D0E09FCFCF3FD10509F058F4C03FD1054A
:101A800008F05FC0CE01805E9109089708F491CFFD
:101A9000B5CFC11540E2D40708F48BCFAFCFC11545
:101AA00084E5D807A0F4C11523E5D20708F077C074
:101AB000C11532E5D30708F05EC0C11541E5D40772
:101AC00008F444C0DC2FCC27C16FD06A72CFC11597
:101AD0008AE5D80778F4C11529E5D20708F073C064
:101AE000C11538E5D30708F489CFDC2FCC27C06FA8
:101AF000D06A5FCFCE0190568115904208F07ECF1C
:101B00008D2F8F710E94460C90E0982F8827882790
:101B10009F719C012C2BE901D0624BCFC55AD0E0BC
:101B2000C75EDE4FC881D0E0D06443CFC85AD0E052
:101B3000CC0FDD1FC45EDE4F0990D881C02DD46468
:101B400038CFD06536CFDF70D06A33CF2C2F2695B3
:101B50002695237080E2289F900111248C2F83709A
:101B6000C1E0D0E002C0CC0FDD1F8A95E2F7C22BA6
:101B7000D32BDD681ECFCE018370992721E030E0A2
:101B800002C0220F331F8A95E2F7C695C69540E240
:101B9000C49FE0011124C22BD32BDC680ACFCE01F5
:101BA0008370992721E030E002C0220F331F8A950D
:101BB000E2F7C695C69580E2C89FE0011124C22BCA
:101BC000D32BDA68F6CE8C2F8F700E94460C34E04F
:101BD000D695C7953A95E1F7CF709C2FEC01D06967
:101BE000E8CEC2EED0E0E5CEC0EED0E0E2CEC6EE6A
:101BF000D0E0DFCEC5E3D0E0DCCE90911001992398
:101C0000D1F09091780397FF16C0E82FE695E695FE
:101C1000E695EE31E0F4F0E0E45AFE4F282F27700D
:101C200081E090E001C0880F2A95EAF780959281C3
:101C3000892382830895EEE5F1E09191891303C031
:101C4000DF0111971C9291E0E436F907B1F708958E
:101C5000809106029091C501981301C008958F5F8D
:101C60008770FACF983080F5803170F540E1949F0D
:101C700090011124820F932F911D682F677023E02C
:101C8000969587952A95E1F7FC01EE0FFF1FE80F67
:101C9000F91FE357FE4F50E040E080E0219130E033
:101CA000062E02C0369527950A94E2F72170332755
:101CB000042E01C0220F0A94EAF7822B4F5F5F4F78
:101CC0004330510559F7089580E00895983098F50C
:101CD000803188F540E1949F90011124820F932F69
:101CE000911D282F277041E001C0440F2A95EAF783
:101CF00023E0969587952A95E1F7FC01EE0FFF1FEB
:101D0000E80FF91FE357FE4F90E080E070E051913B
:101D1000DF0111979B01082E02C0369527950A9482
:101D2000E2F7217021952527242325272C9301965E
:101D30008330910561F708959C013A9521153F4143
:101D400050F5FC01EE27F170BC0166277270AC0102
:101D5000442754709C012227387094FF0EC080E104
:101D6000EF2B09F480E0672B09F08062452B09F026
:101D70008064232B89F08068089581E0EF2B09F4BB
:101D800080E0672B09F08260452B09F08460232BEB
:101D900019F08860089580E00895109289011092EA
:101DA0008801109286011092870180E090E890935C
:101DB000010180930001E9E3F2E0128213820895A9
:101DC0005098589A08955898509A08955198599A49
:101DD000089580913B0290E0019620913D0230E011
:101DE0008223932320913C022817190641F40E9474
:101DF000CD0EE19AE99A0E94E60E0E94E00E2FB7FE
:101E0000F89490913C0280913B02891781F0E09117
:101E10003902F0913A02E90FF11D80819F5F309104
:101E20003D02932390933C0290E02FBF08958FEFE3
:101E30009FEFFBCF0F931F93CF93DF930E948F09E8
:101E40008C010E94E90EEC01019631F4C8010E9458
:101E50007409843F9140A8F3CE01DF91CF911F9187
:101E60000F910895E19AE99A0E94E60E0E94E00E11
:101E700008955998519A08958638E9F1F0F4873613
:101E8000E1F168F48C35D9F128F48830D1F1873547
:101E9000D1F108958436C9F18536C9F1089587379F
:101EA000C1F128F48D36B9F18E36B9F10895843830
:101EB000B1F1B8F58C37B9F108958C38B1F168F407
:101EC0008938A9F128F48738A1F18838A1F108955B
:101ED0008A3899F18B3899F108958F3891F128F467
:101EE0008D3889F18E3889F10895813981F188F131
:101EF000823989F1089580E1089582E6089583E5A5
:101F0000089586E708958CE508958EE608958DE698
:101F1000089588E5089584E6089585E608958CE798
:101F2000089588E0089588E6089585E008958CE096
:101F3000089582E008958EE7089583E0089584E08F
:101F400008958FE7089587E7089587E6089581E06B
:101F500008958BE7089589E008958C3549F018F4C9
:101F6000833141F00895863739F08E3739F008957E
:101F700081E508958DE508958EE7089586E7089533
:101F80008B35B1F058F48131A9F018F48E30A1F0FE
:101F90000895833199F0843599F00895823691F04F
:101FA00020F48E3590F48AE608958C3769F0089510
:101FB0008DE508958FE0089584E5089581E1089501
:101FC0008BE508958EE0089587E70895EDEFE80F1B
:101FD000E13808F045C0F0E0EF54FA4C0C941735A6
:101FE00087E108958FE108958CE5089580E60895CE
:101FF00082E6089587E2089583E508958FE20895C3
:1020000089E3089587E308958FE3089587E40895A9
:102010008FE4089586E508958EE508958FE7089585
:1020200080E0089585E608958EE608958FE6089588
:1020300088E0089580E1089588E1089580E2089598
:1020400088E2089580E3089588E3089580E508957F
:1020500087E508958FE5089589E108958DE608954F
:102060008F7708958FE00895E4EEE80FE834B0F537
:10207000F0E0EE5CF94C0C94173585E508958AE59F
:1020800008958BE508958CE508958DE508958EE516
:1020900008958FE5089580E6089581E6089582E623
:1020A000089583E608958FE6089581E7089582E70D
:1020B000089584E7089585E7089587E7089588E7F8
:1020C00008958AE708958CE708958FE7089580E7DB
:1020D000089589E708958BE7089584E50895E82F2A
:1020E00082958770EF7090918501923079F09330EE
:1020F000B9F09130F9F420E1829FC0011124E80F7A
:10210000F92FF11DE653FD4F8491089520E1829F40
:10211000C0011124E80FF92FF11DE65BFD4FF4CF4C
:1021200020E1829FC0011124E80FF92FF11DE65331
:10213000FE4FEACF80E808950E946F10E82FE295E5
:10214000E770F0E0EE0FFF1FE85AFD4F408151812C
:10215000282F2F7081E090E002C0880F991F2A95E8
:10216000E2F79C0124233523232B31F080959095B1
:10217000842395239183808308950E946F10E82F14
:10218000E295E770F0E0EE0FFF1FE85AFD4F208167
:102190003181482F4F7081E090E002C0880F991F75
:1021A0004A95E2F7A90148235923452B21F4282B0E
:1021B000392B318320830895E8E5F2E01182108203
:1021C000138212821582148217821682118610865B
:1021D00013861286158614861786168608958093B0
:1021E0007A0370937C0360937B038091AB0384300C
:1021F000F9F48093E9008FEF9091E800815095FD0C
:1022000006C095ED9A95F1F700008111F5CF809108
:10221000E80085FF0DC050E040E063E070E08AE731
:1022200093E00E9414088091E8008E778093E80084
:102230000895BC0184E00E94EF100895BC0183E082
:102240000E94EF1008959C0184E08093E9009FEFC5
:102250008091E800915085FD06C085ED8A95F1F7E3
:1022600000009111F5CF8091E80085FF0CC050E08F
:1022700040E066E070E0C9010E9414088091E80027
:102280008E778093E8000895CF93DF93EC018091DF
:1022900010018823B1F18091780387FF32C060E29A
:1022A00084E08093E9008FEF9091E800815095FDE4
:1022B00006C095ED9A95F1F700008111F5CF809158
:1022C000E80085FF1BC08091100170E050E040E005
:1022D000811104C050E040E068E070E0CE010E944F
:1022E00014088091E8008E778093E80080E2FE0178
:1022F000A0E8B3E001900D928A95E1F7DF91CF91CC
:10230000089568E081E0CDCF81E08093E00080E235
:102310008093D8001092C9008FE19EE40197F1F7F5
:1023200000C0000087E090EBDC018093AD03909348
:10233000AE03A093AF03B093B00388E19CE00FB667
:10234000F894A895809360000FBE90936000FFCF33
:102350005098589A85E08A95F1F7000089B181700C
:1023600008955198599A85E08A95F1F7000089B14E
:10237000869581700895CF93DF93EC010E94B1118F
:10238000811102C0209721F4CE01DF91CF910895F1
:1023900085E08A95F1F700002197F0CFCF93DF9386
:1023A000EC010E94B111882311F0209721F4CE0195
:1023B000DF91CF91089585E08A95F1F7000021978C
:1023C000F0CFB0E0A0E0E7EEF1E10C94CF34E82EDE
:1023D000109287018091000190910101809100018C
:1023E0009091010181159048C9F70E94B1110E9496
:1023F000A811E998F8940BE011E0F12C55245394BE
:1024000086E0D82E97E0C92E28E0B22E35E0A32E24
:1024100044E0942E53E0852E62E0762E6624639489
:102420000E94390F0E94E00E8FE193E00197F1F7CF
:1024300000C000000E94E30E8FE193E00197F1F7E6
:1024400000C000000E94E60E80E197E20E94CE11DB
:10245000892B69F46092870180918701813009F0AE
:102460009DC0015009F49AC010928701D9CFD0E0E5
:10247000C0E090E59A95F1F7C7010C2E02C0959542
:1024800087950A94E2F780FF0CC015250E94E00EA4
:1024900082E390E00E94BB11892B31F47092870196
:1024A000DBCF0E94E30EF4CF82E390E00E94CE11D6
:1024B000892B19F480928701CFCF2196C830D1059E
:1024C000C1F680E58A95F1F7112359F00E94E00EDC
:1024D00082E390E00E94BB11892B31F49092870136
:1024E000BBCF0E94E30EF4CF82E390E00E94CE11B6
:1024F000892B19F4A0928701AFCF90E59A95F1F757
:102500000E94E00ECCE2D1E00E94A811882359F08D
:10251000209719F4D09287019FCF25E02A95F1F7F3
:1025200000002197F1CFCD2BA9F3CCE2D1E005C07B
:1025300085E08A95F1F7000021970E94A81181118A
:1025400005C02097A9F7C092870186CFCD2BD9F37C
:102550008CE291E00E94BB11892B19F4B0928701A3
:102560007BCF0E94CD0E0E94E60E0E94E00E789472
:10257000E19AE99ACAE1C15039F10E94E90E8F3F10
:10258000980729F0CDB7DEB7EFE00C94EB348FE974
:102590009FE00197F1F700C00000EDCF8091870127
:1025A0008061809387010E94390F0E94E00E8FE3C3
:1025B0009FE10197F1F700C000000E94E60E0E9423
:1025C000E00E7894E19AE99A8FEF9FEFDBCFCF93FB
:1025D00090918501923080F082FBCC27C0F980FD7C
:1025E000C26081FDC4608DEE0E94E1118A3F9105B9
:1025F00019F48C2F0E94E111CF910895CF93DF93AE
:10260000C3E6D2E060E0CE010E9473352196C11589
:1026100084E0D807B9F7DF91CF9108951F93CF9346
:10262000DF93122F8230E0F46830D0F44031C0F4F0
:1026300090E2699FE001112450E0440F551FC40F40
:10264000D51F90E0982F8827C80FD91F632FCE0180
:1026500087960E947335612FCE0188960E9473354C
:10266000DF91CF911F910895CF93C82F6FEF811104
:102670006CE083E290E00E9473356FEFC1116FE46C
:1026800084E290E00E9473356FEFC11166EF85E23E
:1026900090E00E947335CF910895AEE1B0E0E3E59C
:1026A000F3E10C94D134C090D402D090D50281E0F3
:1026B00090E09093D5028093D4029EE8A92E9BE0EF
:1026C000B92E712C750110E014C0F40125913491DC
:1026D000402F612F872D0E940E1382E0880E911CDF
:1026E0000F5F003191F7E0E2EE0EF11C1F5F183032
:1026F00019F0470100E0E9CFB39481E0781619F0B2
:1027000077247394DFCF1A8219821C821B821E8267
:102710001D8218861F8288EC90E09A8789874AE09C
:1027200050E067E272E0CE0101960E9497354AE0E0
:1027300050E061E372E0CE0101960E9497358AE095
:10274000F82E8E01055F1F4FF8018F2D11928A958B
:10275000E9F74AE050E06BE372E0C8010E94973568
:102760004AE050E065E472E0C8010E949735065FD8
:102770001F4FF8011192FA94E9F78FEF9FEF9A8FAC
:10278000898F87E08E8F4AE050E06FE472E0C801E5
:102790000E9497354AE050E069E572E0C8010E9466
:1027A0009735D092D502C092D4026E96EDE00C948B
:1027B000ED3480E00E94341360E086E290E00E94F5
:1027C00073350E944D130E94FE1281E00E94341363
:1027D00008959B01823070F49AE0899FB001112422
:1027E000695D7D4F4AE050E0C9010E94553590E097
:1027F00080E008958FEF9FEF0895AAE0B0E0E3E056
:10280000F4E10C94DC349C0137552F3F310509F07D
:1028100068F4BE016F5F7F4F0E94E913892B31F48A
:1028200089859A852A96E2E00C94F83488EC90E049
:10283000F9CF0F931F93CF93DF93823030F5683039
:1028400020F5403110F520E2629F8001112450E014
:10285000440F551F040F151F90E0982F8827080F6D
:10286000191FC80187960E946535C82FD0E0DC2F5C
:10287000CC27C80188960E9465359E01282BC90186
:10288000DF91CF911F910F91089590E080E0F8CFF4
:10289000462F2091D8023091D902232B99F4703F12
:1028A00039F4603F79F48091D6029091D70208956F
:1028B000823040F4783030F4603120F4672F0E9489
:1028C0001914089590E080E00895CF92DF92FF926E
:1028D0000F931F93CF93DF936C010091AC03809112
:1028E0002802082BC7E0D0E010E0FC2EC8010C2E17
:1028F00002C0959587950A94E2F780FD0CC0219758
:10290000A0F7F12C8F2DDF91CF911F910F91FF90A8
:10291000DF90CF900895B6018C2F0E9448140E943A
:10292000890C019761F3EECFCF93DF93EC010E9406
:102930006514BE010E9448140E94890CDF91CF915A
:1029400008950F931F93CF938C01FC014381548111
:10295000618180810E947A0AC82F81112AC0F80102
:1029600086819781009791F00E94890C92959F70C3
:102970009630D1F080F4925F9F70923080F4803F67
:1029800019F058F4883E58F4C1E009C08081918163
:102990000E949414EBCF9A5FEFCF843FA9F38C2F62
:1029A000CF911F910F910895883E70F3813FB9F741
:1029B000EBCFC0E0F4CFA5E0B0E0E1EEF4E10C94A1
:1029C000DB349C01FC01868197810097E1F485E06E
:1029D000DE01119601900D928A95E1F7F9012281AD
:1029E00089819A81222399F0662389F00E946514D7
:1029F000182F682F89819A810E94660E69817A81D9
:102A0000812F0E9448142596E3E00C94F7340E942D
:102A1000320E182FF3CF83E290E00E9465358C30A0
:102A200089F484E290E00E9465358F3459F485E2A0
:102A300090E00E94653591E0863F09F090E0892F93
:102A40008170089580E0FCCFAAE0B0E0EAE2F5E111
:102A50000C94D23406EB12E080EBC82E82E0D82E24
:102A60009FE4E92E92E0F92E27E0922E3FEAA32E72
:102A700032E0B32E88248394D6010D931D936D010B
:102A80004AE050E0B701CE0101960E945535F801A9
:102A90003896DF01892D1D928A95E9F789819A81FF
:102AA000D80111969C938E938F8112968C931297D6
:102AB0008D8113968C931397888514968C93149715
:102AC000898515968C9315978B819C8117969C937D
:102AD0008E93169718961C9218978A8587FF3CC08C
:102AE0001E961C921E921D9780FF03C0D801189657
:102AF0008C9281FF04C0F80190859260908782FFDC
:102B000007C0D80118969C911897946018969C93CA
:102B100083FF04C0F80190859860908784FF07C008
:102B2000D80118969C911897906118969C9385FFF0
:102B300004C0F801808580628087015F1F4FFAE042
:102B4000EF0EF11C83E6E81682E0F80609F094CF58
:102B50002A96ECE00C94EE34F801B686A586C4CF34
:102B6000AAE0B0E0E6EBF5E10C94DA34EBE9F2E050
:102B700084E1DF011D928A95E9F720E433E08CE0DF
:102B8000D9011D928A95E9F70EE313E0D801ED9380
:102B9000FC934AE050E06BE372E0CE0101960E94A4
:102BA000553588E0FE013196ABE9B2E001900D9217
:102BB0008A95E1F789859A85F8019383828385EA6E
:102BC00092E0908787834AE050E065E472E0CE01AE
:102BD00001960E94553588E0FE013196A5EAB2E0E3
:102BE00001900D928A95E1F789859A85D8011A9608
:102BF0009C938E9319972A96E4E00C94F634CF9325
:102C0000C091270280916B03C82B8091640380954B
:102C1000C82380916503C82BC0935C0140E250E05B
:102C200067E072E08CE591E00E944135892B11F15B
:102C300080E2ECE5F1E0A7E0B2E001900D928A9528
:102C4000E1F7E0917003F0917103309799F0809172
:102C50001001882349F08091780387FF05C0C09355
:102C60005D0186E080935C010280F381E02D8CE5BC
:102C700091E00995CF910895CF93DF93EC01E98519
:102C8000FA85309719F06B857C8509958B81982F93
:102C9000909580916B03892380936B030E94FF15AD
:102CA00085E0FE0111928A95E9F7DF91CF910895B1
:102CB000CF93DF93EC018C8181FD12C082608C8305
:102CC00080916B039B81892B80936B030E94FF157E
:102CD000EF81F885309721F06B857C85CE010995D1
:102CE00010926D0310926C038C8180FD03C0CE01A5
:102CF0000E943C16DF91CF91089590E080E00E9401
:102D0000E60990E080E00E94D00910926B030E94D7
:102D1000FF1586E0EFE6F2E0DF011D928A95E9F704
:102D2000109269021092680210926A020E94F00AE0
:102D300008958093AC030E947D1608958091AC03A2
:102D4000982F9670963021F488600E949916089505
:102D5000877FFBCF21E030E001C0220F8A95EAF7A0
:102D600020958091AC0382230E949916089521E05A
:102D700030E001C0220F8A95EAF78091AC03822BE4
:102D80000E9499160895809328020E947D16089546
:102D90001092270280911001EEE5F1E0882361F0A6
:102DA0008091780387FF08C08EE1DF011D928A952C
:102DB000E9F70E947D16089586E0F7CFAAE2B0E019
:102DC000E4EEF6E10C94DB3483EA93E02091F10029
:102DD000DC012D93CD01B3E08B3A9B07B9F78091CD
:102DE000A403833009F472C0B8F4813009F449C0F7
:102DF000823009F4B3C08091E80083FF96C28091CD
:102E0000A3039091A4039A3008F08FC2E92FF0E059
:102E1000E658F94C0C9417358A3009F48EC08B3083
:102E200009F471C0893039F78091A303813219F711
:102E30008091A7039091A803009711F00297D9F60B
:102E40008091E800877F8093E8008091E80082FF0E
:102E500038C09091F3008091F200029731F4809194
:102E6000F100813011F0863021F48091F1008093DF
:102E70007F038091E8008B778093E8000E946608CA
:102E8000BACF8091A303813A09F0B5CF8091E800D1
:102E9000877F8093E8008091A7039091A803892BF6
:102EA00061F460E280E893E070E00E941209809192
:102EB000E8008B778093E8009ECF60E090E080E0B0
:102EC000F3CF8091AB038111C0CF95CF8091A30345
:102ED000813A09F090CF8091A7039091A803892BA4
:102EE00009F089CF8091E800877F8093E800809186
:102EF000E80080FFFCCF809110018093F100809169
:102F0000E8008E77B9CF8091A303813209F073CFA7
:102F10008091A7039091A803892B09F06CCF809131
:102F2000E800877F8093E8000E9466088091A503EF
:102F3000809310010E94C8165ECF8091A303813256
:102F400009F059CF8091E800877F8093E8000E94C4
:102F500066088091A60380937E034DCF8091A303E2
:102F6000813A09F048CF8091E800877F8093E8009C
:102F70008091E80080FFFCCF80917E03BECF803837
:102F800099F0823809F0D1C18091A7038F70873002
:102F900008F0CBC18093E9008091EB0085FB882786
:102FA00080F91092E90006C08091A0039091A103DE
:102FB000911182609091E800977F9093E800809350
:102FC000F1001092F1008091E8008E77AAC1882369
:102FD00009F498C1823009F0A8C18091A50381113C
:102FE0009BC18091A7038F702FEF280F263008F028
:102FF0009CC18093E9002091EB0020FF8DC19330AC
:1030000031F48091EB0080628093EB0085C1909158
:10301000EB0090619093EB0021E030E001C0220FC3
:103020008A95EAF72093EA001092EA008091EB007B
:103030008860EACF811179C11091A5031F77809133
:10304000E3008078812B8093E3008091E800877F04
:103050008093E8000E9466088091E80080FFFCCF22
:103060008091E30080688093E30082E0111183E0A7
:103070008093AB035AC18058823008F056C120912A
:10308000A5033091A6032C3DE3E03E07A1F583E0C4
:103090008A838AE289834FB7F894DE01139620E091
:1030A0003EE051E2E32FF0E050935700E49120FF1F
:1030B00003C0E295EF703F5FEF708E2F90E0EA3033
:1030C000C0F0C7968D939D932F5F243159F74FBF62
:1030D0008091E800877F8093E8006AE270E0CE018B
:1030E00001960E9412098091E8008B778093E80096
:1030F0001CC1C096E7CF8091A7039091A803432FEE
:1031000055274330510509F44AC078F5413051053F
:1031100009F485C08BE590E0EEE8FDE04230510512
:1031200009F003C12091E800277F2093E800209157
:10313000A9033091AA038217930708F49C0140E089
:103140002115310509F070C041116EC08091E80071
:1031500082FDC9CF8091AB03882329F2853019F213
:103160008091E80083FFF2CFBECF4132510509F4D0
:1031700047C04232510509F0D8C08330910508F0AC
:10318000D4C0FC01EE0FFF1FE35BFE4F0190F08106
:10319000E02D865B9E4FDC018C9190E01DC03327B3
:1031A00021303105E9F02115310579F02230310562
:1031B000F9F02330310509F0B8C0EBEFFDE0E49100
:1031C0008E2F90E0EBEFFDE007C0EFE5FEE0E4912D
:1031D0008E2F90E0EFE5FEE0009709F4A6C0A2CFA5
:1031E000E9E4FEE0E4918E2F90E0E9E4FEE0F4CF24
:1031F000E9E1FEE0E4918E2F90E0E9E1FEE0ECCF22
:103200008330910508F091C0880F991FFC01ED5A99
:10321000FE4F0190F081E02D89E090E083CF82E1C4
:1032200090E0E9EEFDE07ECF8091AB03882309F4C6
:103230005ACF853009F457CF8091E80083FD53CFF2
:103240008091E80082FD82CF8091E80080FF78CFF6
:103250009091F3008091F2002115310519F088302A
:10326000910550F041E0089709F040E08091E800B6
:103270008E778093E80064CF44914093F1003196BB
:10328000215031090196E8CF803809F04EC0809175
:10329000E800877F8093E8008091A2038093F1008B
:1032A00092CE811142C01091A5031230F0F58091A9
:1032B000E800877F8093E8001093A2030E946608CD
:1032C000112311F084E005C08091E30087FDFACF5F
:1032D00081E08093AB0342E061EC81E00E948508CD
:1032E00042E261EC84E00E94850842E261EC82E007
:1032F0000E94850842E260EC83E00E94850880918C
:10330000AB0313C08091A503813079F481E0933041
:1033100009F080E08093A1031092E9008091E80019
:10332000877F8093E8000E9466088091E80083FF11
:103330000AC08091E800877F8093E8008091EB00CD
:1033400080628093EB00AA96E3E00C94F7340E942D
:10335000C8162FEF84E39CE0215080409040E1F7B5
:1033600000C0000088E19CE00FB6F894A895809317
:1033700060000FBE90936000FFCFCF93DF938091EA
:103380008701882389F080918701807539F48091C5
:1033900084018B3019F48CE08093840110928701B2
:1033A000109289011092880180918601882309F189
:1033B00090918601809183019817D9F085FF04C010
:1033C0009091860194FD06C084FF0BC08091860118
:1033D00085FF07C0809184018B3019F48CE08093C5
:1033E000840180918601809383011092890110925B
:1033F0008801E0918401ED30D0F4F0E0EC57F94C15
:103400000C9417351092850110928201109281015F
:10341000109283010E94DC100E948F09909380011A
:1034200080937F0181E0809384010E94320F81E0CC
:10343000DF91CF9108950E94E90E0196E1F7809106
:103440007F01909180010E947409893B9B4078F331
:1034500082E080938401EBCF8FEF0E94E1118A3FDD
:10346000910511F486E0F5CF83E0F3CFE9980E944F
:10347000390F0E94E00E2E98269A2F98279A0E94C4
:103480008F099093800180937F0184E0E2CF809147
:103490007F01909180010E947409853F914038F22C
:1034A00085E0D7CF2E9826982F9827980E94CD0E8A
:1034B0000E94320F0E948F099093800180937F01B8
:1034C000D1CF0E94E90E019609F4B1CF0E948F0975
:1034D0009093800180937F0187E0BBCF80917F0133
:1034E000909180010E947409853F914018F089E015
:1034F000809384010E94E90E019609F498CF0E94FE
:103500008F099093800180937F0188E0A2CF809102
:103510007F01909180010E947409853F914018F0CD
:1035200089E0809384010E94E90E019609F47FCF1F
:1035300089E08FCF80918601813159F48DEF9FEF23
:10354000909382018093810182E0809385018AE0DB
:1035500080CF82EF0E94E1118F3F980731F4909362
:1035600082018093810181E0F0CF8A3F910519F0BB
:103570008EEF9FEFE5CF0E941A0F8F3F980729F437
:103580001092820110928101DFCFD82FCC270E94A8
:103590001A0F9E01282BC90190938201809381010B
:1035A000009791F28F3F9807F1F29C012D5F3F4FFA
:1035B0002230310548F228583B4A2230310520F0AC
:1035C00082392BEA920781F480EF0E94E1118A3F51
:1035D000910509F0B9CF83E00E94E1118A3F91057E
:1035E00009F0B2CF83E0B1CF9C0120593B4A223091
:1035F000310538F582E08093850180EF0E94E1116A
:103600008A3F9105B9F080918101909182018139C1
:103610009B4A09F09CCF80EF0E94E1118A3F9105FF
:1036200009F095CF83E00E94E1118A3F910509F0EE
:103630008ECFD8CF82E80E94E1118A3F910519F719
:1036400086CF803B2FEB920769F2882781153BEAF2
:10365000930709F479CF81152FEB920719F28115A1
:103660009F4709F4BFCF80EF0E94E1118A3F910587
:1036700009F0AACF82E00E94E1118A3F910509F08A
:10368000A3CF62CF809185018230E1F08330B9F021
:103690008BE0809384010E94E90E282F482F592F38
:1036A0004F3F540709F4C3CE4115510519F04F3F60
:1036B000510569F40E94DC100E94C816B8CE88EF4C
:1036C0000E94E1110E94FC090E94E712E1CF809163
:1036D0008501823009F453C0833009F4FAC0813087
:1036E00009F0A5CE80917C018230E1F138F4882385
:1036F00069F08130F9F010927C0199CE8330D1F1DC
:103700008430C9F7253CB9F785E529C0203E41F052
:10371000213E51F0822F27FD09C00E94BD1087CEA7
:1037200081E080937C0183CE82E0FBCF8F770E9483
:103730009C107DCE2633F9F250F42A32E1F2822F2A
:1037400027FD0AC00E9434100E94BD10D4CF2A3A2F
:1037500091F2263BA1F7CFCF8F770E9434100E94C1
:103760009C10C9CF2D3121F02D3929F684E0D9CF15
:1037700083E0D7CF253409F0BECF85E5E5CF822F92
:10378000E0917D01E93008F042C0F0E0EF56F94CDD
:103790000C941735409181015091820140595B4A48
:1037A0004230510510F40E94C00F803E89F050F461
:1037B0008338A1F08438B1F087FFAFCF0E94DC10CE
:1037C0008CE047CE813E41F0803FB1F781E001C0FF
:1037D00082E080937D012BCE84E0FBCF82E00E94CB
:1037E000BD1015C08FE7FBCF409181015091820140
:1037F00040595B4A4230510520F4213169F02134AF
:1038000099F0293521F0203F29F0223131F410922E
:103810007D010DCE83E0DDCF83E110927D0187FD38
:10382000CDCF0E94E60F79CF8CE7F7CF4091810191
:103830005091820140595B4A4230510510F40E9478
:10384000C00F833839F0843849F010927D0187FD2C
:10385000B5CF6DCF82E00E949C10D9CF8FE7FBCF10
:10386000409181015091820140595B4A423051059B
:1038700020F4213169F0213469F0223141F22935F7
:1038800031F210927D0187FD99CF0E94E60F4FCF54
:1038900083E1F7CF8CE7F5CF243129F0203F09F001
:1038A000B6CF86E096CF85E094CF273709F0AFCF2B
:1038B00080E095CF87E0243109F0A9CF8ACF88E056
:1038C000203F09F0A4CF85CF273709F0A0CF80E0B3
:1038D000C2CF822F2F3B29F038F496E5920F923019
:1038E00028F410927E016CCF2C3FD9F390917E0189
:1038F0009923D9F0913009F09ACD10927E01409130
:1039000081015091820142399BEA590709F04BC06D
:10391000822F0E94AD0FEDE7E80FEB3008F05BC09F
:10392000F0E0E656F94C0C94173540918101509126
:10393000820142399BEA590771F4822F0E94AD0F30
:10394000873859F1A8F4843821F160F48338F9F00C
:1039500087FD6DCDE2CE41395B4A91F7822F0E94FF
:103960003C0FEECF8538B9F0863891F788E7D5CE91
:103970008C38A9F020F48B3859F781E0CECE8D3801
:1039800081F0803F29F781E080937E0150CD82E075
:10399000C4CE8FE7C2CE88E6C0CE80E0BECE89E03E
:1039A000BCCE8AE0BACE41395B4A09F0B4CF822F4F
:1039B0000E943C0FB0CF82E0BACE8FE7B8CE8BE04A
:1039C000B6CE86E0B4CE80E0B2CE81E0B0CE89E063
:1039D000AECE8AE0ACCE87FD2ACDA9CE0E94C81615
:1039E0001092840124CD882341F0809590916B033F
:1039F000892380936B030E94FF150895882339F073
:103A000090916B03982B90936B030E94FF15089580
:103A1000882341F080959091270289238093270283
:103A20000E94FF150895882339F090912702982B62
:103A3000909327020E94FF1508958823B1F19CEF0F
:103A4000980F913A28F40E94FD0D0E94FF150895E9
:103A500090E2980F983088F4877021E030E0A90157
:103A600002C0440F551F8A95E2F7CA0180959091D4
:103A70002702892380932702E8CF9BE5980F933094
:103A800028F490E080E00E94E609089598E5980FF8
:103A9000973128F490E080E00E94D0090895803F9B
:103AA00020F00E94170B0E94F00A0895FF920F93D6
:103AB0001F93CF93DF93F82E0091690310916A034F
:103AC0000115110509F449C01092680310926703AB
:103AD0001092640310926503D8011696CD91DC9183
:103AE0009E013A9521153F4108F4D07ED1E0C111E5
:103AF00001C0D0E0D8011996ED91FC911A9730974A
:103B000031F01B966D917C9180E00995D823DD23DF
:103B100039F08CEF8C0F813A30F58C2F0E94FD0D1F
:103B2000FF2099F0E0916903F0916A03808584FD9C
:103B30000CC080916603882341F0808191819C01B3
:103B400021503109203B3D45A0F00E94FF15109205
:103B50006A031092690310926603C801CDB7DEB7FD
:103B6000E5E00C94F5340E94FF158C2F0E941D1D7A
:103B7000D7CF0E94090AE9CFCF93C82F8823C1F17C
:103B80008CEF8C0F813AB0F580911001882301F100
:103B90008091780387FF1CC0EC2FE695E695E695AB
:103BA000F0E0E45AFE4F828190E04C2F477021E014
:103BB00030E002C0220F331F4A95E2F7822393239D
:103BC000892B79F08C2F0E94FD0D0E94FF1509C0F2
:103BD000EEE5F1E08191C817A9F381E0E436F8073A
:103BE000C9F76C2F8CE591E00E949B090E94FF159C
:103BF000CF91089580E28C0F883068F4C77021E07F
:103C000030E001C0220FCA95EAF780912702822B8B
:103C100080932702EBCFEBE5EC0FE33040F4F0E0CC
:103C2000E75EFE4F808190E00E94E609E1CFE8E583
:103C3000EC0FE73150F4F0E0EE0FFF1FE45EFE4FB3
:103C4000808191810E94D009D3CFC03F88F28C2F10
:103C50000E94DC0B0E94F00ACBCF1F93CF93DF931F
:103C6000182FEB010E94BC1D209739F4812F0E9470
:103C70001D1DDF91CF911F9108958FE99FE001975E
:103C8000F1F700C000002197EFCFB0E0A0E0EBE437
:103C9000FEE10C94D434EC018AE0A82E2881222382
:103CA00009F49FC0213009F03FC099818A81913089
:103CB00051F4229670E060E0893311F460E570E021
:103CC0000E942D1E05C0923029F422960E94BC1D30
:103CD0002196E4CF933021F422960E941D1DF8CF47
:103CE000943011F02196F4CF229630E020E0AE011E
:103CF0004F5F5F4F8053990B8A30910550F02150F0
:103D0000310930F38FE99FE00197F1F700C000001F
:103D1000F6CFA29EB001A39E700D11249C01260F28
:103D2000371F8981EA01E3CFE22FF0E0ED56F14F32
:103D3000B490822F86958695869590E0FC01ED578C
:103D4000F14FE4902770F12C022E02C0F594E79415
:103D50000A94E2F731E0E322FF24FC01ED58F14F31
:103D6000C490D12C022E02C0D594C7940A94E2F7D5
:103D700031E0C322DD24FC01ED59F14F049110E044
:103D800002C0159507952A95E2F701701127E114F5
:103D9000F10419F081EE0E94BC1DC114D10419F088
:103DA00086EE0E94BC1D89E370E060E0B81202C09C
:103DB00060E570E08B2D0E942D1EC114D10419F016
:103DC00086EE0E941D1DE114F10419F081EE0E949F
:103DD0001D1D0115110509F47BCF70E060E08CE238
:103DE0006FCFCDB7DEB7EAE00C94F034CF93DF931A
:103DF000EC010E949C0E9E01205E310928303105A5
:103E000010F0209741F40E94131D8C2F0E94BC1DBE
:103E1000DF91CF9108950E94FE1CF7CF68EE7EEFF0
:103E200090E080E00E94913560E082E090E00E94A6
:103E3000733560E083E090E00E94733510922802B1
:103E400060E084E090E00E94733564E082E290E0FC
:103E50000E94733560E085E090E00E94733560E079
:103E600086E090E00E9473356FEF87E090E00E945B
:103E7000733540E050E0BA0188E090E00E9485355B
:103E800060E08DE090E00E94733540E050E0BA01C0
:103E900088E190E00E94853560E087E190E00E9433
:103EA000733540E050E0BA018CE190E00E94853526
:103EB00070E060E080E290E00E94913540E050E0E8
:103EC000BA0188E190E00E94853580E00E943413B9
:103ED0000E94D91340E050E0BA018FE090E00E94C8
:103EE000853540E050E0BA0183E190E00E948535DD
:103EF0000895A7E0B0E0EFE7FFE10C94CC347C013B
:103F0000DC0113964D915C91149711966C91119769
:103F10008C910E947A0A8111E0C061E0C7010E9481
:103F2000DB148C01F70182818823E1F080916C031E
:103F300090916D030097B1F00817190799F0FDE013
:103F40008F9FC0011124FC01EB57FD4F208124609D
:103F500020838F579D4FDC010D931C930E945816B0
:103F600010926B03F7018281882309F41CC4C801F5
:103F700082519F45409708F00AC48FEF93E00E945A
:103F800065358111AAC03EEEF32EF00E03E612E075
:103F9000F11036C019821A821B821C82BB24BA948B
:103FA00078012FEFE21AF20AC8010E946535898371
:103FB0001A82882309F491C0813009F07FC068011A
:103FC00032E0C30ED11CC7010E946535E82E8A83FA
:103FD000882309F482C0C6010E946535F82E8FEF50
:103FE0008E0D8330D8F4680143E0C40ED11CFB82EF
:103FF000FF2021F0CE0101960E94451E8601D0CF00
:104000000115F4E01F0709F468C0C8010E94653576
:10401000811101C0FA940F5F1F4FBACF8BEF8E0D45
:10402000833030F5C8010396FB826C01FF2031F329
:10403000680154E0C50ED11C0E9465358C8388232D
:10404000E9F28B819C818130AFEF9A0710F0982FB5
:104050008827B6E0EB1631F0E7E0EE1631F00E946B
:10406000C72ACCCF0E94A12AC9CF0E941B2AC6CF43
:10407000F4E0EF12C3CF680124E0C20ED11CC801E6
:1040800003960E946535FF2041F1882331F181506C
:10409000990BB89E9001B99E300D11244F2D4150BF
:1040A000550BCA01820F931F019708F4A7CFAFE900
:1040B000BFE01197F1F700C00000F6CFCE010196E6
:1040C0000E94451E67019ACF81E00E94B71603C087
:1040D00081E00E94AA160E949E162796E2E10C94A7
:1040E000E83482E0F6CF823009F09BC380917B02F6
:1040F00090917C02892B09F494C32DE02C9DC00182
:104100002D9D900D1124FC01EB57FD4F20812E7F3A
:1041100020838F579D4F0E94581683C381E0809360
:104120000201DBCF80910201882309F494C2480187
:1041300020EE821A91084090270238E083169104FD
:1041400008F086C098012770332781E090E001C015
:10415000880F2A95EAF7552009F477C0482AD70135
:104160008D919C910E94320E21E030E0F90102C055
:10417000EE0FFF1F8A95E2F7FF83EE83209069031D
:1041800030906A0360908B0170908C011D822D81AC
:10419000E22FF0E0EE0FFF1FE055FD4FC080D18011
:1041A000C114D10409F4BDC2411005C0D601129654
:1041B0008C91811189C0F601838190E02E813F812D
:1041C00082239323892B09F47FC08085982F9770D1
:1041D00009F487E038E08316910408F053C05520B5
:1041E00009F44CC086958170882309F46DC0D6010E
:1041F000AD90BC900A151B0519F4552009F464C054
:10420000C214D30409F460C0D6011D96ED91FC914F
:10421000309721F08081882309F456C0642DC601AF
:104220000E945A0A882309F44FC00A151B0509F099
:1042300017C30115110509F418C3511018C3A614AA
:10424000B70409F041C0512C12C38095482287CF92
:10425000552009F44FC210938C0100938B010E94EA
:10426000830960936003709361038093620390936A
:104270006303109268031092670371CF82FB882753
:1042800080F9B2CF552001F18170AECF0E941D1D83
:104290000CC30497813A910558F46A2D8CE591E09E
:1042A0000E949B09552009F4D6C10E94FF1515CF25
:1042B0000E94FF158FE39CE90197F1F700C0000011
:1042C0008A2D0E94BC1DEECF9D819F5F9D835FCF95
:1042D000FC01208131810217130709F0B5C151108B
:1042E000B5C11092660380E00E94561DB4C1902FA4
:1042F000812FFBC1FA01848181FF27C2CA010E947C
:104300003C1623C20E940E1F0E94A719D7011696C1
:104310002D913C9121153105D1F0C9010E94890CE4
:10432000182F292FD70112963C91129715965C9160
:10433000452F42954F7092959F70C92ED12C9C307D
:1043400008F050C0F601EB55F94C0C941735F70105
:1043500000811181992369F0C8010E946514D82E4B
:10436000682FC8010E94660EB8018D2D0E94481466
:10437000D5CFC8010E94320ED82EF6CF022F0F7073
:10438000207F11F00295007F3323C9F0002369F0EC
:1043900080E2810F883010F011110BC0809127024C
:1043A000082B009327020E94FF15812F0E94BC1D3D
:1043B00019C080916B03082B00936B03F4CF812FFE
:1043C0000E941D1D002371F0009580E2810F88304E
:1043D00010F0111117C080912702082300932702C3
:1043E0000E94FF1598E0C91AD108A4E0CA16D104AA
:1043F00020F40E94FC090E94E71260E0C7010E94BD
:10440000DB146BCE80916B03082300936B03E8CF22
:10441000822F8F70207F203211F08295807F1130A3
:1044200061F4332329F04630E8F60E94131DDACFF9
:104430004530C0F60E94081DD5CF332341F04423F8
:10444000A1F350FFB2CF5F70F7015583EECF442345
:1044500089F3193349F4FFEF27EE33E0F1502040A0
:104460003040E1F700C00000812F0E941D1DBACF2F
:10447000822F86958695837069F0813009F0B2CFDE
:10448000812F922F9370311102C090E080E00E9442
:10449000D009A8CF812F922F9370311102C090E0E4
:1044A00080E00E94E6099ECF812F332329F00E94ED
:1044B000DC0B0E94F00A96CF0E94170BFACF822FD6
:1044C000837089F531118ECF312F32953695377043
:1044D000330F330F812F8F70032E01C0880F0A9482
:1044E000EAF7412F407114FF07C04FE050E001C0D0
:1044F000440F3A95EAF74095269526952370223089
:1045000069F050F430912802213029F0842B832364
:104510000E94C31667CF832B842BFACF482B809140
:1045200028028427F5CF8695332311F0822F8170DE
:10453000882309F457CF312F329536953770330FD2
:10454000330F812F8F70032E01C0880F0A94EAF772
:10455000412F407114FF07C04FE050E001C0440FED
:104560003A95EAF74095269526952370223069F012
:1045700050F43091AC03213029F0842B83230E9426
:10458000991630CF832B842BFACF482B8091AC0324
:104590008427F5CF022F0F70332329F0802F0E943C
:1045A000B716812F42CF812F0E94081D802F0E94B5
:1045B000AA1618CF113F61F148F4103FA9F0332338
:1045C00099F14111F2CE822F8F7126C0123F39F13D
:1045D000133FA9F780E0332391F22F7181E001C0EE
:1045E000880F2A95EAF7CBCF332371F0453008F0D6
:1045F000F9CE2F7181E090E001C0880F2A95EAF78B
:104600009091AC038927BBCF463008F0EBCEF1CFB9
:10461000822F8F71332359F20E94B716E3CE822F77
:104620008F713323C9F3C3CF442359F0193309F0F1
:104630001BCF4FEF57EE83E0415050408040E1F7F1
:1046400011CF822F8F71B3CF552029F0DC0118963E
:104650008C9185FF48CEC80197558F3F910511F089
:1046600008F073C0F70182815801BB242DE0029F3E
:10467000F0011124AF014F575D4F6A01EB57FD4F19
:10468000908180FB90F99083882309F433CE0E94B7
:104690008F099093520280935102D60112968C9109
:1046A00012978F5F12968C93129780916B03909163
:1046B0002702892B13968C9313971596ED91FC91F5
:1046C0001697309729F01B966D917C91C60109953C
:1046D0008DE08A9DF0018B9DF00D1124EF57FD4F69
:1046E000848181FF04CE90E080E090936C038093FE
:1046F0006D032BC080918B0190918C0108171907D5
:1047000081F410928C0110928B0110926003109230
:104710006103109262031092630310926803109277
:1047200067038091690390916A03009709F493CF1E
:10473000A8E08A16910408F0CBCD642D0E945A0A95
:10474000811103C081E00E94561DD70112969C91F1
:10475000992309F4DBCD0E3DBCE51B0709F4D2CD4E
:10476000073AEDE51E0709F4CFCD0115FCE51F075B
:1047700009F0CCCD0E94C8162FEF34E34CE0215055
:1047800030404040E1F700C000000E948411003139
:10479000FFE51F0709F498CC01312FE5120709F056
:1047A00040C082E092CC00313FE5130709F490CC81
:1047B00001314FE5140709F494CC6801E7E5DE1AEE
:1047C000FFEFCF16D10409F060F567E772E08C2D9A
:1047D0000E94E913892B29F58DE08C9DF0018D9DB8
:1047E000F00D1124EF57FD4F8281813009F07BCC11
:1047F0008091770290917802892B99F080917902CB
:1048000090917A02892B69F080917B0290917C02D1
:1048100020917D0230917E02822B932B892B09F40B
:104820006CCCD70112965C90552009F47BCC0F35E7
:10483000BDE51B0709F472CC0036EDE51E0751F00B
:104840000E35FDE51F0709F06DCC8091020188232C
:1048500009F464CC1092020180E00E94561D3DCC08
:10486000A114B10409F0EBCC512CB12CA12C80E0A7
:104870000E94561DD0926A03C092690381E0809322
:104880006603F60185818093640351100EC0AB2846
:1048900061F0F601808191819C0124503109213A17
:1048A000310508F0F3CC0E94FD0DD6011696AD90AF
:1048B000BC90C5019A9581159F4110F4E0EEBE228F
:1048C00077247394C5010197803B9D4508F0712CB6
:1048D000D6011996ED91FC911A97309731F01B96FD
:1048E0006D917C9181E009957822772079F0F6012D
:1048F000868197810E949C0E80936503C501F8E034
:104900008F16910408F0C5CC0E94090A0E94FF1579
:10491000C9CCB0E0A0E0EFE8F4E20C94D63480918A
:10492000C201807F31F48091BF01C09106028111E4
:1049300007C0CDB7DEB7E8E00C94F2342196C7701B
:104940008091C5018C17A9F3F090BD01E090BE01E4
:10495000C090C001D090C101A6016E2D8F2D0E9484
:104960007A0AD0E08111EACF8E0183E0000F111F97
:104970008A95E1F7F801EA53FE4F81818E11DECF6F
:1049800080818F11DBCF82818111D8CFE380F480C9
:10499000EC18FD0860E08DEB91E00E94DB140E94B2
:1049A000FD13E816F90650F68091C2018F70806100
:1049B0008093C201F801E553FE4F80818F708061C2
:1049C00080838DEB91E00E94791F0E94280EB1CF69
:1049D000A5E1B0E0EEEEF4E20C94CE348C0185E07B
:1049E000F801DE01519601900D928A95E1F7F801E8
:1049F000E2804DEBA42E41E0B42E8090C001909057
:104A0000C101A4016091BE018091BD010E947A0A9A
:104A1000682E8111A1C1F801C380D480F090BF013C
:104A2000C601881999094C01FF2009F447C140804B
:104A3000518060E0C5010E94DB140E94FD1370905C
:104A4000C2018816990608F0E1C04091C00150915A
:104A5000C101B090BD01A090BE01872D807F6A2D5D
:104A600009F080C08B2D0E947A0AFE2C811124C08F
:104A7000F80181818A1120C080818B111DC0209195
:104A8000C3013091C4018681978128173907A1F4A9
:104A9000E11012C0872D8F7080618093C2018DEB71
:104AA00091E00E94791F8091C201F80185838F2DCA
:104AB0006596E0E10C94EA34A601652D842D0E94F0
:104AC0007A0A811122C081E08E25F82FF170DF2E45
:104AD00080FF3EC0809106022091C501821317C05D
:104AE000498A5A8A89899A890E949414292F229581
:104AF0002F70223008F1243030F59F7009F1F80151
:104B00009581907FE9F4F62CD2CF80E0DECF90E063
:104B1000FC0133E0EE0FFF1F3A95E1F7EA53FE4F39
:104B20003181531206C03081431203C03281E31237
:104B30000FC001968770D2CF9F7011F0882319F3B0
:104B4000805E883000F3C8010E94791F6D2CDBCF96
:104B5000EE2009F4ACCF8091C20181608093C20144
:104B6000F12CA5CF8B2D0E947A0A81111FC0F8016C
:104B700081818A111BC080818B1118C02091C301D3
:104B80003091C401868197812817390779F4E110A3
:104B90000DC07582C8010E94791F88E0F801ADEB55
:104BA000B1E001900D928A95E1F781CFC8010E9492
:104BB000A114882339F1EE2029F18091C2018032BD
:104BC000A0F02091BD013091BE013A8729871B8654
:104BD000DD86CC868E878091C3019091C401988B2D
:104BE0008F87CE0109960E94791F88E0F801ADEB0E
:104BF000B1E001900D928A95E1F70E948924FF248B
:104C0000F39455CFC8010E94791FF9CF872D807F7B
:104C100051F48DEB91E00E94791F88E0F50111922B
:104C20008A95E9F79DCF9090BD018090BE0140919B
:104C3000C0015091C101682D892D0E947A0A81110D
:104C40001CC0F8018181881118C08081891115C0AC
:104C50002091C3013091C4018681978128173907BB
:104C600061F4E1100AC07582C8010E94791F88E0D2
:104C7000F50111928A95E9F71ACFC8010E94A11493
:104C8000882309F4BFCFEE2009F4BCCF8091C20184
:104C9000803208F4AACF2091BD013091BE013A8341
:104CA00029831B82DD82CC828E838091C301909107
:104CB000C40198878F83CE01019695CF60E08DEB7C
:104CC00091E00E94DB140E94FD138816990678F685
:104CD000FE2CEE2009F496CFE090BD01D090BE01ED
:104CE0004091C0015091C1016D2D8E2D0E947A0A14
:104CF000811124C0F80181818D1120C080818E1125
:104D00001DC02091C3013091C4018681978128176D
:104D10003907A1F49091C20190FD3FCF907F09F433
:104D20003CCF8091C2018583903F09F433CF982F07
:104D3000907F905F8F70892B85832CCFC8010E9454
:104D4000A114811152CF8091C20181608093C20170
:104D5000C8010E94791FABCEEE2009F453CFC801E1
:104D60000E94A114F82E882309F44CCF88E0F801A2
:104D7000ADEBB1E001900D928A95E1F78091BD0114
:104D80009091BE010E9494140E94892490CEA0E1CB
:104D9000B0E0EDECF6E20C94DC3429873A874B87DF
:104DA0005C876D877E878F87988BCE0109960E94DE
:104DB000E82481112FC088E0FE013996DE011196AA
:104DC00001900D928A95E1F74C855D856A8589850C
:104DD0000E947A0A81111EC0A091C501B0E0CD01E8
:104DE0000196877099272091060228171906E1F08D
:104DF00093E0AA0FBB1F9A95E1F7AA53BE4F98E024
:104E0000FE01319601900D929A95E1F78093C501CC
:104E10000E94280E809106029091C501891312C04C
:104E20006096E2E00C94F8340E94C8161092C50116
:104E30001092060288E0EDEBF1E0DF011D928A9509
:104E4000E9F7E8CFB8E08B9FC00111248A539E4F49
:104E50000E94E824882321F38091060290E00196C5
:104E60008770992780930602D5CFEF92FF920F9318
:104E70001F93CF93DF938091DD02882361F0C0916F
:104E8000DC028CE0F82E8091DD02C81748F0109209
:104E9000DD021092DC02CDB7DEB7E6E00C94F4340C
:104EA000EE24E394EC0EE092DC020C2F10E0CF9D98
:104EB000E0011124C252DD4F4B815C816981888100
:104EC0000E947A0A81111DC08E819F81892B21F455
:104ED00088859985019651F4288139814A815B81C1
:104EE0006C817D818E819F810E94C726F09EF0019A
:104EF000F19EF00D1124E252FD4F148213821092A4
:104F00006B03CE2DC0CF1092570310925603109210
:104F10000F0180915503809354030E94B30A0E94AD
:104F200035270895B0E0A0E0E8E9F7E20C94CD342D
:104F3000C091540397E0892E01E010E02CE0322E5E
:104F40003EEF932E44244394809155038C1309C063
:104F50000E9435270E94B30ACDB7DEB7E1E10C9479
:104F6000E934D0E0FE01EE0FFF1FE45BFC4F8081CF
:104F70009181889ED001899EB00D1124A25CBC4F06
:104F800014962C911497211158C05090DD02EEED2B
:104F9000F2E030E020E0712C5D01251508F04BC0F7
:104FA000E284F384D501CD90DC906FEF7FEF612C2C
:104FB000462D50E0DA01AA0FBB1FAC0DBD1D0D90B0
:104FC000BC91A02D109731F0EA16FB0609F4BA0146
:104FD0006394EECF6F3F7607A9F1D80102C0AA0F04
:104FE000BB1F6A95E2F77A2AB801062C02C0660F49
:104FF000771F0A94E2F7AB01415051097416150668
:10500000F9F4329EF001339EF00D1124E252FD4F6F
:10501000889ED001899EB00D1124A25CBC4F1296CF
:105020002D913C91139737832683908291829187AB
:10503000808715964C920E94850A2196C37084CF72
:10504000148213822F5F3F4F3C96A7CFA9E1B0E0B7
:10505000ECE2F8E20C94CC34498B5A8B6B8B7C8B52
:105060008D8B611110926B031D861E861F86188A18
:1050700085E0FE017196DE01199601900D928A95E8
:10508000E1F74C855D856A8589850E947A0A8111E0
:1050900011C061E0CE0109960E94DB146C018B8582
:1050A00027EFC2162CE5D20681F4882321F181E096
:1050B00080930F0129853A854B855C856D857E85BA
:1050C0008F8598890E94C726C4C038EFC3163CE577
:1050D000D30629F4882379F00E948327EBCF49EF88
:1050E000C4164CE5D40639F4882329F080910F01C9
:1050F0008111F2CFDCCF0EE313E0E12CB12CA12C17
:1051000088248394912C3EEF532E44244394F80139
:105110004081518166246A94762C20E0822F90E0B1
:10512000FC01EE0FFF1FE40FF51F60817181611517
:10513000710551F0C616D70609F43C012F5FEECF7A
:10514000AA24A394B12CE3CFF12CFFEF6F167F06B6
:1051500009F444C0F8014481F0900F018F2D4111F2
:1051600080E0F82FF170FF2EF801258086819B8565
:10517000992309F4EFC0FF2009F4ECC0211014C0FA
:10518000A401062C01C0440F0A94EAF7842B8683FD
:105190008091DA029091DB02C29730F462E370E012
:1051A0007093DB026093DA02C40102C0880F991F7A
:1051B0002A95E2F70197F80126812817190671F45C
:1051C0008091560390915703009709F446C00E94BE
:1051D0007409C39708F441C0F8014482EF28095FBD
:1051E0001F4FF1E0AF16B10409F0AACF8B858823D9
:1051F00009F40CC1EE2009F409C10E948F099093B3
:105200005703809356038091DD02883010F591E0BA
:10521000980F9093DD0298E0FE013996DE01119619
:1052200001900D929A95E1F72CE0829FC001112424
:1052300082529D4F28E0FE013196DC0101900D92D3
:105240002A95E1F72FEF3FEFFC0131872087D386C6
:10525000C2866996E2E10C94E8348091540350913F
:105260005503982FF0E0E0E0851314C090935403A9
:10527000E017F10709F4B2CF90E0FC01EE0FFF1F39
:10528000E45BFC4FB182A0820196837099278093E2
:105290005503A4CF282E312CF101EE0FFF1FE45B44
:1052A000FC4F20813181F7E0F29FD001F39FB00DD8
:1052B0001124A25CBC4F2D913C911197398F288FFE
:1052C00040E020E030E0E32FF0E0EE0FFF1F688DBC
:1052D000798DE60FF71F6080718061147104E1F031
:1052E000F8010190F081E02DFF8BEE8B20E005C0EE
:1052F0006616770609F44F2D2F5FE22FF0E0EE0FD0
:10530000FF1F6E897F89E60FF71F6081718161152C
:10531000710571F73F5FD7CF4423C9F0F801231718
:1053200008F0FD0144820E171F0721F490935403E7
:10533000F42E54CF981305C0AE17BF0711F49F5F2A
:10534000937091012F5F3F4F822F83708DCFF0E0DC
:10535000E0E0F7CF90E0211020C0B40102C0660F5A
:10536000771F2A95E2F79B01215031092817390749
:1053700031F4442309F448C0C5010E94850AC401E0
:10538000062C01C0880F0A94EAF7982F9095F8012F
:10539000868189238683F22C21CF9C01062C02C0B2
:1053A000359527950A94E2F7A90141705527BC016C
:1053B0006150710986239723892B11F5452B01F143
:1053C000F80182819381892BC1F01B821C821D828E
:1053D0001E8259825A820E948F098160582F9D83B4
:1053E0008C83F801828193818F83988729813A8108
:1053F0004B816D817E810E94C726F8011582BFCF47
:10540000F22FF1702F2EBBCF2F2CB9CF90915403D8
:1054100080915503981731F00E949227EE2009F4ED
:1054200049CE17CF0E94352710925703109256038A
:105430000E94B30AF3CFA5E0B0E0E1E2FAE20C94F7
:10544000DA348C019093D7028093D602011580E262
:105450001807C0F4802F0E941D1DC8010E949C0ED9
:105460009801205E31092830310518F00115110529
:1054700031F40E94081D2596E4E00C94F6340E9455
:10548000F31CF9CF80EF89838A831B820E948F09E6
:105490008160782F9D838C8349815A816B818D81B6
:1054A0000E942628E8CF0F931F93CF93DF938C01A0
:1054B000EB0167E772E08C2F0E94E913892B71F4EE
:1054C000DD27CB58DD4F8881F801128218828330A6
:1054D000F1F048F4813059F0823081F0DF91CF91C2
:1054E0001F910F9108958430B9F08530B9F78091FC
:1054F000770290917802009789F306C08091790233
:1055000090917A02009799F30E941B2AE7CF80912D
:105510007B0290917C02F6CF80917D0290917E0279
:10552000009791F72091770230917802809179026B
:1055300090917A0221153105F1F2009729F7C901FE
:10554000E3CFA5E0B0E0E7EAFAE20C94DC34909314
:10555000D7028093D602811520E2920730F40E9490
:10556000F61E2596E2E00C94F83480EF89838A8356
:1055700081E08B830E948F098160782F9D838C83CB
:1055800049815A816B818D810E942628EACFCF9371
:10559000DF93EC010E94A12ACE010E941B2ADF9119
:1055A000CF9108950F931F93CF93DF938C01862F94
:1055B00067E772E00E94E913892BB1F4C09177028A
:1055C000D0917802209781F0F8018281833051F4E4
:1055D000CE010E94C72ACE010E94C72ACE010E9496
:1055E000C72A02C08430D0F7DF91CF911F910F916D
:1055F00008950F931F93CF93DF938C01EB0167E71F
:1056000072E08C2F0E94E913892B09F05CC0FE0127
:10561000FF27D80112968C911297EB58FD4F8130DD
:10562000B9F414969C9192FF02C080830AC090FF47
:10563000FCCF82E080838091790290917A0200977A
:10564000B9F480917702909178020097E1F110C04F
:105650008230B9F514968C9182FD28C080FD0BC074
:1056600083E0808380917B0290917C02009701F11E
:105670000E94A12A28C084E0808380917D029091BD
:105680007E020097A9F780917702909178020097A7
:10569000F9F00E94C72A8091790290917A020097CE
:1056A00039F78091770290917802E2CF85E080838C
:1056B0008091770290917802009729F00E94C72A82
:1056C000F0CF86E08083DF91CF911F910F910895F5
:1056D0008091790290917A02B8CF1F920F920FB603
:1056E0000F9211242F933F934F935F936F937F9368
:1056F0008F939F93AF93BF93CF93DF93EF93FF93DA
:10570000D091E900DF708091EC00C82FC17080FD5E
:10571000C0E81092E9008091F000877F8093F0004C
:1057200078940E94DE161092E9008091F000886063
:105730008093F000CD2BCF70C093E900FF91EF91E3
:10574000DF91CF91BF91AF919F918F917F916F9199
:105750005F914F913F912F910F900FBE0F901F902F
:1057600018951F920F920FB60F9211242F933F930B
:105770004F935F936F937F938F939F93AF93BF9359
:10578000EF93FF938091E10082FF09C08091E200D6
:1057900082FF05C08091E1008B7F8093E1008091C2
:1057A000DA0080FF24C08091D80080FF20C0809163
:1057B000DA008E7F8093DA008091D90080FFA3C049
:1057C00080E189BD82E189BD09B400FEFDCF81E0A1
:1057D0008093AB0380917D03811109C00E94C407AF
:1057E0000E94B7088091E20084608093E20080917B
:1057F000E10080FF17C08091E20080FF13C080911C
:10580000E2008E7F8093E2008091E20080618093CD
:10581000E2008091D80080628093D80019BC85E0B6
:105820008093AB038091E10084FF31C08091E2005E
:1058300084FF2DC080E189BD82E189BD89B5982FA3
:10584000917080FFFBCF8091D8008F7D8093D8002E
:105850008091E1008F7E8093E1008091E2008F7E55
:105860008093E2008091E20081608093E200809169
:10587000A203882309F44DC084E08093AB030E9407
:10588000C8160E94FC090E94E7128091AB03809128
:10589000E10083FF27C08091E20083FF23C0809155
:1058A000E100877F8093E10082E08093AB03109258
:1058B000A2038091E1008E7F8093E1008091E2005D
:1058C0008E7F8093E2008091E20080618093E2000D
:1058D00042E060E080E00E9485088091F0008860EE
:1058E0008093F000FF91EF91BF91AF919F918F91C5
:1058F0007F916F915F914F913F912F910F900FBECC
:105900000F901F90189519BC1092AB0310927D0355
:105910006ECF8091E30087FD93E09093AB03AFCF10
:1059200078941F921FB61F9211248F939F93AF9369
:10593000BF938091740390917503A0917603B09109
:1059400077030196A11DB11D809374039093750395
:10595000A0937603B0937703BF91AF919F918F91FE
:105960001F901FBE1F9018951F921FB61F921124E3
:105970008F939F93AF93BF9380917403909175031E
:10598000A0917603B09177034196A11DB11D80933C
:10599000740390937503A0937603B0937703BF913C
:1059A000AF919F918F911F901FBE1F901895CDB7FB
:1059B000DEB7EA970FB6F894DEBF0FBECDBF85B74E
:1059C000806885BF85B7806885BF84B7877F84BFBF
:1059D0000FB6F894A895809160008861809360006C
:1059E000109260000FBE80E890E00FB6F8948093AC
:1059F0006100909361000FBE84E49CE090935B0192
:105A000080935A010E94C80A0E94B0150E94241572
:105A10000E94C4070E94B7088091E20084608093CE
:105A2000E20078948091AB038823A1F01091E90003
:105A30001F709091EC00892F817090FD80E8182BE9
:105A40001092E9008091E80083FD0E94DE161F702D
:105A50001093E90082E084BD93E095BD9AEF97BD75
:105A600080936E000E940B15811102C00E94D91311
:105A700080914002816080934002109259021092FE
:105A8000580210925B0210925A0210925D0210921C
:105A90005C0210925F0210925E02109261021092FC
:105AA00060021092630210926202109265021092DC
:105AB000640210926702109266022E9826982F9820
:105AC00027980E94390F0E94E00E8091690088603B
:105AD00080936900E99889E292E090933A0280937A
