:100000000C94F9010C9431020C9431020C943102DD
:100010000C9431020C9431020C9431020C94310294
:100020000C9431020C9431020C9431020C94A11006
:100030000C945D100C9470110C9431020C943102EC
:100040000C9431020C9431020C9431020C944C113A
:100050000C9431020C9431020C9431020C94310254
:100060000C9431020C9431020C9431020C94310244
:100070000C94310205010902A10185020901A100C8
:100080000509190129081500250195087501810246
:100090000501093009311581257F95027508810612
:1000A00009381581257F950175088106050C0A38E8
:1000B000021581257F950175088106C0C0050109DB
:1000C00080A101850319012AB700150126B7009503
:1000D0000175108100C0050C0901A10185041901F9
:1000E0002AA002150126A002950175108100C00505
:1000F000010906A1018506050719E029E715002574
:10010000019508750181020507190029EF150025E1
:100110000195F075018102050819012905950575FC
:10012000019102950175039101C00660FF0961A16B
:10013000010962150026FF009520750881020963F8
:10014000150026FF00952075089102C005010906DB
:10015000A101050719E029E715002501950875019A
:1001600081029501750881010507190029FF150015
:1001700026FF009506750881000508190129051557
:10018000002501950575019102950175039101C046
:10019000000000000000000000000000000000005F
:1001A000000000000000000000000000000000004F
:1001B000000000007E0F00D4FFFFFFC700000078A2
:1001C00000000000000000002A2B280000000000B2
:1001D00000000000000000000000002900000000F6
:1001E0002C1E3420212224342627252E362D373864
:1001F000271E1F202122232425263333362E37386D
:100200001F0405060708090A0B0C0D0E0F1011122A
:10021000131415161718191A1B1C1D2F3130232DF6
:10022000350405060708090A0B0C0D0E0F101112F4
:10023000131415161718191A1B1C1D2F3130354CA5
:1002400004001600070009000B000A001D001B0037
:10025000060019000000050014001A00080015002F
:100260001C0017001E001F00200021002300220098
:100270002E00260024002D0025002700300012004B
:1002800018002F000C00130028000F000D00340090
:100290000E00330031003600380011001000370026
:1002A0002B002C0035002A0000002900E000E300AC
:1002B000E1008200E20050004F00510052000000B7
:1002C00000006300000055000000570000005300CC
:1002D000000000000000540058000000560000001C
:1002E00000002E00620059005A005B005C005D00B7
:1002F0005E005F0000006000610000000000000080
:100300003E003F0040003C0041004200000044002D
:1003100000004600000047000000430000004500C8
:100320000000480049004A004B004C003D004D00D1
:100330003B004E003A00E500E600E4000000B0009B
:1003400009025B00030100A0FA0904000001030197
:100350000100092111010001224400070581030861
:10036000000109040100020300000009211101003D
:100370000122220007058203200001070503032054
:10038000000109040200010300000009211101001D
:100390000122B600070584032000011201000200BB
:1003A000000008EDFEDB0A030101020001280374CE
:1003B0000069006E006B006500720042004F00593A
:1003C0000020005B006100640062002E0075007375
:1003D0000062005D0000001403540049004E004B11
:1003E000004500520042004F00590000000403097C
:1003F000040011241FBECFEFD2E0DEBFCDBF04B694
:1004000003FE18C080910C0290910D02A0910E0283
:10041000B0910F028730904BA740B04B59F4109227
:100420000C0210920D0210920E0210920F02E0E0E8
:10043000F8E1099522E0A6E5B1E001C01D92AC30DB
:10044000B207E1F711E0A0E0B1E0E4ECFEE202C0A7
:1004500005900D92A635B107D9F70E9497110C941B
:1004600043170C9400002091E4003091E50095E6DC
:10047000A9012091EC00822F817020FF06C080919D
:10048000E80080FF06C080E008952091E80022FD8A
:100490001AC080910202882389F0853089F080910A
:1004A000EB0085FD0FC02091E4003091E50042177C
:1004B0005307F9F29150E1F684E0089582E008953F
:1004C00083E0089581E008958091040287FF13C0BE
:1004D0008091E80082FF06C08091E8008B778093CE
:1004E000E80004C0809102028111F2CF089580914A
:1004F00002028823D9F38091E80080FFF8CF809131
:10050000E8008E77ECCF982F9093E900242F762F78
:1005100050E0891731F07091EC002091ED0050917E
:10052000F00021FD07C09F5F953071F78093E900CF
:1005300081E008953091EB003E7F3093EB003091E5
:10054000ED003D7F3093ED003091EB003160309352
:10055000EB007093EC002093ED005093F00020919D
:10056000EE0027FDE0CF80E00895FC0180910A02B3
:1005700090910B0286179707A0F06115710529F479
:100580009091E8009E779093E80090E061157105E6
:1005900051F4911108C08091E80082FF32C080E0E0
:1005A0000895BC01F2CF809102028823B1F1853019
:1005B000B1F18091E80083FD2EC08091E80082FDBA
:1005C000EACF8091E80080FFE1CF2091F20030E097
:1005D0006115710519F02830310558F091E0283087
:1005E000310509F090E02091E8002E772093E80093
:1005F000CDCF81918093F100615071092F5F3F4F02
:10060000E7CF80910202882341F0853041F080914C
:10061000E80083FFC0CF81E0089582E0089583E081
:1006200008958091F70108959C014FB7F894809147
:10063000F1019091F201A091F301B091F4014FBF4B
:10064000821B930B08952FB7F8948091F10190913C
:10065000F201A091F301B091F4012FBF08959091A0
:100660000C019923D1F09091EE0197FF16C0E82F6D
:10067000E695E695E695EE31E0F4F0E0E05AFE4FBF
:10068000282F277081E090E001C0880F2A95EAF7B3
:1006900080959281892382830895EAE5F1E0919122
:1006A000891303C0DF0111971C9291E0E036F9072E
:1006B000B1F7089590910C019923C1F09091EE014A
:1006C00097FF14C0E82FE695E695E695EE31F8F42D
:1006D000F0E0E05AFE4F877021E030E001C0220FC9
:1006E0008A95EAF78281822B82830895AAE5B1E098
:1006F000EFEF90E02D91821751F0EF3F19F42111A7
:1007000001C0E92F9F5F9630A9F7EF3F09F40895E4
:100710000E2E000CFF0BE85AFE4FE6CFA3E0B0E030
:10072000E4E9F3E00C946E162091EC013091ED01B8
:1007300028173907A1F09093ED018093EC01E09127
:10074000EA01F091EB01309751F024E029839B837B
:100750008A830084F185E02DCE01019609952396C8
:10076000E2E00C948A16A3E0B0E0E9EBF3E00C942D
:100770006E162091E8013091E90128173907A1F0A0
:100780009093E9018093E801E091EA01F091EB0197
:10079000309751F023E029839B838A830084F1857D
:1007A000E02DCE01019609952396E2E00C948A167D
:1007B000E091EA01F091EB01309739F022E0DC01A1
:1007C0002C930680F781E02D09950895E091EA01C8
:1007D000F091EB01309729F00190F081E02D09951F
:1007E000089580E008950E9423039C019091E40104
:1007F0008091E501982B21F03093E1012093E001F5
:100800009091E6018091E701982B21F03093DF0170
:100810002093DE0182EE91E00E94D803089580913A
:10082000DD0180FD18C081FD18C082FD18C08091D7
:10083000DC018823B1F0883290F490E023E0880F47
:10084000991F2A95E1F768E270E00E94AF16862FA3
:10085000672B39F0089582E0089584E0089588E0D8
:10086000089581E008958091DD0180FD15C081FD2E
:1008700015C082FD17C08091DB01882389F08E317D
:1008800088F490E060E570E00E949E166EE170E0F2
:100890000E94AF16862F089584E1089588E2089596
:1008A00088E0089580E50895082E000C990B65EB0B
:1008B00070E00E949E1697FF04C080589109892F0E
:1008C000089580589F4FFBCF80E008959091EE01EE
:1008D00092FF10C041E0282F2471243009F040E03D
:1008E00031E0282F2871283009F030E0431711F04B
:1008F0002CE0822793FF10C041E0282F247124317F
:1009000009F040E031E0282F2871283109F030E06B
:10091000431711F02CE082273091EF0130FF10C017
:1009200051E0282F2171213009F050E041E0282FBB
:100930002871283009F040E0541711F029E082278F
:1009400031FF10C041E0282F2171213109F040E032
:1009500031E0282F2871283109F030E0431711F0D9
:1009600029E0822794FD877E089582389105B9F1A8
:10097000B0F48133910509F47DC048F489329105C2
:1009800009F46DC08A32910509F47BC0089585335E
:10099000910509F45FC08933910509F10895833EFB
:1009A0009105D9F138F4803E910529F1823E9105F7
:1009B00079F10895863E9105D9F1873E910509F4B4
:1009C0003EC0843E910541F52091EF0121FF24C0F6
:1009D0008091EE0184FD19C087EE90E0089520918A
:1009E000EE01237009F05AC02091EF0123FF14C0DB
:1009F00089E290E008952091EE0120FD38C0309109
:100A0000EF0130FF09C024FF43C090E080E008956B
:100A10002091EE0122FDF7CF08952091EE0122FDF5
:100A20003AC03091EF0130FD39C024FFF5CFEDCF52
:100A30002091EE0123FFF0CF24FDE7CFCDCF209111
:100A4000EE0123FD2EC03091EF0131FFEECF84EE99
:100A500090E008952091EE0125FFDECFC9CF2091CF
:100A6000EE0125FD21C02091EF0123FFD5CF89E3C1
:100A700090E0D2CF2091EE0126FFCECF8AE290E027
:100A800008952091EE0126FFC7CF81E390E00895FD
:100A900083EE90E0089582EE90E0089580EE90E07D
:100AA000089586EE90E0089585E390E0089566232A
:100AB00009F45DC08D3C41F40E943304819580931C
:100AC000E5010E94F30308958E3C19F40E9433045B
:100AD000F6CF8F3C31F40E94330481958093E4017A
:100AE000F0CF803D19F40E943304F8CF893D29F4FA
:100AF0000E940F048093E601E4CF8A3D21F40E9416
:100B00000F048195F7CF8B3D31F40E940F0481953E
:100B10008093E701D6CF8C3D19F40E940F04F8CFE3
:100B20009FE2980F983070F4815D990B21E030E0DE
:100B300001C0220F8A95EAF78091E301822B80930E
:100B4000E301BFCF8D3D31F48091DD018160809361
:100B5000DD01B7CF8E3D21F48091DD018260F7CFBA
:100B60008F3D09F0AECF8091DD018460F0CF4091E0
:100B7000E4018D3C59F48091E50187FF0DC010928E
:100B8000E50141110BC01092DB0108C08E3C81F4DD
:100B90008091E50118169CF3442381F08091E601D1
:100BA0009091E701892B09F08CCF1092DC0189CF5D
:100BB0008F3C49F447FFF0CF1092E4018091E501AA
:100BC0008111ECCFE0CF803D19F41416ACF3E4CFE3
:100BD0009091E601893D29F41916F4F61092E60188
:100BE000DBCF8A3D19F497FFD7CFF8CF9091E7017B
:100BF0008B3D29F497FFD0CF1092E701CDCF8C3DEC
:100C000019F41916CCF3C8CF9FE2980F983090F4DE
:100C1000815D990B21E030E0B90102C0660F771FBA
:100C20008A95E2F7CB0180959091E3018923809327
:100C3000E301B2CF8D3D31F48091DD018E7F809351
:100C4000DD01AACF8E3D21F48091DD018D7FF7CFAC
:100C50008F3D09F0A1CF8091DD018B7FF0CF982FE0
:100C600092959F7011F0892F94E0282F2695269554
:100C700011F09E5F822F869509F09F5F892F08955E
:100C8000E82FE695E695E695EF70F0E0EE53FE4F1F
:100C90009081482F477021E030E001C0220F4A9533
:100CA000EAF787FF04C02095292320830895292B84
:100CB000FCCF0F931F93CF93DF938B01EA019091A9
:100CC0000202943061F58093E9008FEF9091E80083
:100CD000815095FD06C095ED9A95F1F700008111C0
:100CE000F5CF8091E80085FF1AC00E943302811180
:100CF00011C08091E80085FD06C08091E8008E77E4
:100D00008093E800F2CFF80181918F018093F10088
:100D1000219779F78091E8008E778093E800DF9142
:100D2000CF911F910F91089543E050E0BC0184E002
:100D30000E945906089546E050E0BC0184E00E94FC
:100D40005906089540E250E0BC0184E00E94590633
:100D50000895CF93DF93EC0148E050E0BC0181E0BF
:100D60000E94590688E0FE01A8EFB1E001900D92C3
:100D70008A95E1F7DF91CF91089581E08093E000BB
:100D800080E28093D8001092C9008FE19EE4019721
:100D9000F1F700C0000087E090EBDC0180930C02CB
:100DA00090930D02A0930E02B0930F0288E19CE095
:100DB0000FB6F894A895809360000FBE90936000E2
:100DC000FFCF489906C023E02A95F1F7000001976C
:100DD000C1F70895489B06C023E02A95F1F700006B
:100DE0000197C1F70895509A8AEB8A95F1F700C0F0
:100DF000509883E091E00197F1F700C0000008955A
:100E0000509A83E091E00197F1F700C000005098FC
:100E10009AEB9A95F1F700C00895EF92FF920F9325
:100E20001F93CF93DF93D0E0C0E090E8E92EF12C40
:100E3000082F10E0C7010C2E02C0959587950A94E3
:100E4000E2F780239123892B59F00E94F306219623
:100E5000C830D10579F7CDB7DEB7E6E00C94861639
:100E60000E940007F4CFEF92FF921F93CF93DF937E
:100E7000CDB7DEB728970FB6F894DEBF0FBECDBF53
:100E8000182F19821A821B821C821D821E821F82C9
:100E90001886F894509A83EF9BE00197F1F700C011
:100EA00000000E94F306812F8295807F8C600E9453
:100EB0000D070E94000784EF91E00E94E106009771
:100EC00069F4789428960FB6F894DEBF0FBECDBFB4
:100ED000DF91CF911F91FF90EF90089584EF91E003
:100EE0000E94EA06009769F388E290E00E94E1061A
:100EF000009739F384E690E00E94EA0610E000973C
:100F000001F382E890E00E94E106882329F17C0148
:100F1000FF24C7010E94EA068823F1F01034B8F4D8
:100F2000E12FE695E695E69521E030E02C0F3D1F98
:100F30002E0F311DF9019081990F22E830E02E1912
:100F40003F09E81AF1082E153F05BCF0908381E0B7
:100F5000810F1F3F81F410E0789416951695169531
:100F600090E080E0123009F0ADCF89819A81982716
:100F700089279827A7CF182FC4CF9160E7CFCF93A9
:100F8000C82FF894509A83EF9BE00197F1F700C0C7
:100F900000000E94F3068AE20E940D070E940007EB
:100FA0008FE193E00197F1F700C000000E94F30683
:100FB00080E00E940D078C2F87700E940D070E9411
:100FC00000077894CF910895589850982FEF87EAAA
:100FD00091E6215080409040E1F700C00000E2EC33
:100FE000F1E0119221E0E23DF207D9F708951F9355
:100FF000CF93DF93C0910001D09101018FEF9FEF5C
:101000009093010180930001CF3FDC07C1F48091F0
:101010008001909181010E9414030C9730F410E03C
:10102000812FDF91CF911F9108950E942303909308
:1010300081018093800182E00E943307EC012097B8
:1010400071F3CF37DC0729F48FE70E94400611E0E7
:10105000E7CFCF3FDC0711F48FEFF7CF1C2F8D2F99
:10106000DF3F19F40E94E407DBCF0E944006CF3F28
:1010700071F3DC2FCC27CF6FD0930101C093000117
:10108000E6CFCF93C82F6FEF811164E284E290E046
:101090000E940F176FEFC11161E185E290E00E949D
:1010A0000F176FEFC11160E286E290E00E940F1708
:1010B000CF910895CF93DF93C8E2D1E060E0CE01F5
:1010C0000E940F172196C11582E0D807B9F7DF916A
:1010D000CF9108951F93CF93DF93122F81111AC0E0
:1010E0006031C0F44830B0F4C62FD0E084E0CC0FBB
:1010F000DD1F8A95E1F750E0440F551FC40FD51F3F
:10110000632FCE0188960E940F17612FCE0189961A
:101110000E940F17DF91CF911F910895EF92FF92D8
:101120000F931F93CF93DF9380E4E82E82E0F82E95
:10113000D0E08701C0E0F801259134914C2F6D2F4C
:1011400080E00E946A080E5F1F4FCF5FC83099F79A
:1011500080E1E80EF11CDF5FD03159F7CDB7DEB783
:10116000E6E00C94861680E00E94410860E087E289
:1011700090E00E940F170E948E080E945A0881E09A
:101180000E944108089584E290E00E94F1168432A2
:1011900089F485E290E00E94F116813159F486E2EB
:1011A00090E00E94F11691E0803209F090E0892FE2
:1011B0008170089580E0FCCF0F931F93CF93DF934E
:1011C000811124C0603110F5483000F5062F10E081
:1011D00084E0000F111F8A95E1F750E0440F551F7E
:1011E000040F151FC80188960E94F116C82FD0E081
:1011F000DC2FCC27C80189960E94F1169E01282B6E
:10120000C901DF91CF911F910F91089590E080E087
:10121000F8CF462F703140F4683030F4811104C0AB
:10122000672F0E94DC08089590E080E00895A6E012
:10123000B0E0EDE1F9E00C946E16FC0196E0DE0101
:10124000119601900D929A95E1F78091AF010E945D
:101250002F0669817A810E9409092696E2E00C94A2
:101260008A168091F5019091A301892B90910C0130
:10127000992349F19091EE0197FF25C08093610178
:1012800040E250E063E871E080E691E00E94E416FD
:10129000892BC1F080E2E0E6F1E0A3E8B1E0019043
:1012A0000D928A95E1F7E091EA01F091EB01309718
:1012B00049F086E0809360010480F581E02D80E6AE
:1012C00091E0099508958093580148E050E064EA60
:1012D00071E088E591E00E94E416892B99F388E09B
:1012E000E8E5F1E0A4EAB1E001900D928A95E1F71A
:1012F000E091EA01F091EB01309721F30280F38154
:10130000E02D88E591E0DDCF882309F45DC08238C7
:1013100079F40E94E60381FF57C089E30E945A03D3
:101320000E94310989E30E942F030E943109089528
:10133000833859F40E94E60380FF46C083E50E948B
:101340005A030E94310983E5EECF843859F40E9494
:10135000E60382FF39C087E40E945A030E943109E4
:1013600087E4E1CF9CEF980F913AE8F290E2980F72
:10137000983088F4877021E030E0A90102C0440F62
:10138000551F8A95E2F7CA0180959091F50189234E
:101390008093F501CACF9BE5980F933028F490E035
:1013A00080E00E94B303089598E5980F9B3128F4DC
:1013B00090E080E00E948E03089593E3980F9331AC
:1013C00018F460E00E9457050895CF93C82F882332
:1013D000C9F08238C9F40E94E60381FD13C089E395
:1013E0000E945A030E9431092FEF87EE93E02150AB
:1013F00080409040E1F700C0000089E30E942F0385
:101400000E943109CF9108958338A1F40E94E60328
:1014100080FDF8CF83E50E945A030E9431092FEF27
:1014200081EE94E0215080409040E1F700C0000040
:1014300083E5E4CF8438A1F40E94E60382FDE2CF85
:1014400087E40E945A030E9431092FEF81EE94E055
:10145000215080409040E1F700C0000087E4CECFEB
:101460008CEF8C0F813A88F580910C01882301F173
:101470008091EE0187FF1CC0EC2FE695E695E6957E
:10148000F0E0E05AFE4F828190E04C2F477021E05F
:1014900030E002C0220F331F4A95E2F782239323E4
:1014A000892B79F08C2F0E942F030E94310909C0EB
:1014B000EAE5F1E08191C817A9F321E0E036F207EF
:1014C000C9F78C2F0E945A039BCF80E28C0F883083
:1014D00068F4C77021E030E001C0220FCA95EAF736
:1014E0008091F501822B8093F5018ACFEBE5EC0F1B
:1014F000E33040F4F0E0E35FFE4F808190E00E9433
:10150000B30380CFE8E5EC0FEB3150F4F0E0EE0FE1
:10151000FF1FE05FFE4F808191810E948E0372CF9A
:1015200083E38C0F833108F06DCF61E08C2F0E9434
:10153000570568CF80910C01882339F18091EE0125
:1015400087FF23C0E2E6F1E08EE1DF011D928A957C
:10155000E9F790E080E00E94B30390E080E00E9411
:101560008E031092A3010E94310986E0E2EEF1E0C1
:10157000DF011D928A95E9F71092DB011092DC01E0
:101580001092DD010E94F3030895EAE5F1E086E0A0
:10159000DCCFAAE2B0E0EFECFAE00C946D1684E048
:1015A00092E02091F100DC012D93CD01B2E08C306E
:1015B0009B07B9F780910502833009F470C0B8F435
:1015C000813009F447C0823009F4B3C08091E8004B
:1015D00083FF8AC280910402909105029A3008F03C
:1015E00083C2E92FF0E0EB5BF84E0C94C3168A300F
:1015F00009F48EC08B3009F46FC0893039F78091BF
:101600000402813219F78091080290910902009733
:1016100011F00297D9F68091E800877F8093E80067
:101620008091E80082FF36C08091F200823031F470
:101630008091F100813011F0863021F48091F10029
:101640008093F7018091E8008B778093E8000E94F7
:101650006402BCCF80910402813A09F0B7CF809137
:10166000E800877F8093E80080910802909109024A
:10167000892B61F468E088EF91E070E00E94B50288
:101680008091E8008B778093E800A0CF60E090E045
:1016900080E0F3CF809102028111C2CF97CF809179
:1016A0000402813A09F092CF8091080290910902D8
:1016B000892B09F08BCF8091E800877F8093E80029
:1016C0008091E80080FFFCCF80910C018093F100B5
:1016D0008091E8008E77B9CF80910402813209F0C1
:1016E00075CF8091080290910902892B09F06ECF85
:1016F0008091E800877F8093E8000E9464028091D7
:10170000060280930C011092F5010E949A0A5ECFA6
:1017100080910402813209F059CF8091E800877FDF
:101720008093E8000E946402809107028093F60192
:101730004DCF80910402813A09F048CF8091E800B2
:10174000877F8093E8008091E80080FFFCCF809144
:10175000F601BCCF803899F0823809F0C5C180917C
:1017600008028F70853008F0BFC18093E900809136
:10177000EB0085FB882780F91092E90006C0809174
:10178000000290910102911182609091E800977F90
:101790009093E8008093F1001092F1008091E800AE
:1017A0008E779EC1882309F48CC1823009F09CC1D8
:1017B0008091060281118FC1809108028F702FEFF6
:1017C000280F243008F090C18093E9002091EB00AD
:1017D00020FF81C1933031F48091EB0080628093CF
:1017E000EB0079C19091EB0090619093EB0021E0C8
:1017F00030E001C0220F8A95EAF72093EA001092A8
:10180000EA008091EB008860EACF81116DC11091F0
:1018100006021F778091E3008078812B8093E3009C
:101820008091E800877F8093E8000E9464028091A5
:10183000E80080FFFCCF8091E30080688093E300A4
:1018400082E0111183E0809302024EC18058823001
:1018500008F04AC120910602309107022C3DE3E0D6
:101860003E07A1F583E08A838AE289834FB7F89423
:10187000DE01139620E03EE051E2E32FF0E05093CA
:101880005700E49120FF03C0E295EF703F5FEF70D7
:101890008E2F90E0EA30C0F0C7968D939D932F5F16
:1018A000243159F74FBF8091E800877F8093E8008B
:1018B0006AE270E0CE0101960E94B5028091E800D4
:1018C0008B778093E80010C1C096E7CF8091080223
:1018D00090910902432F55274330510509F44AC01E
:1018E00078F54130510509F47AC08BE590E0E0E4E9
:1018F000F3E04230510509F0F7C02091E800277F5E
:101900002093E80020910A0230910B02821793077E
:1019100008F49C0140E02115310509F065C0411132
:1019200063C08091E80082FDC9CF809102028823C4
:1019300029F2853019F28091E80083FFF2CFBECF03
:101940004132510509F43CC04232510509F0CCC086
:101950008330910508F0C8C0FC01EE0FFF1FE75B64
:10196000FE4F0190F081E02D8A5B9E4FDC018C914F
:1019700090E01AC0332721303105D1F0211531050F
:1019800061F02230310509F0AFC0EDEAF3E0E491F7
:101990008E2F90E0EDEAF3E007C0EDEEF3E0E49186
:1019A0008E2F90E0EDEEF3E0009709F49DC0A5CFF7
:1019B000E7EDF3E0E4918E2F90E0E7EDF3E0F4CF74
:1019C0008330910508F090C0880F991FFC01E15BFE
:1019D000FE4F0190F081E02D89E090E08ECF82E112
:1019E00090E0EBE9F3E089CF80910202882309F4CB
:1019F00065CF853009F462CF8091E80083FD5ECF2A
:101A00008091E80082FD8DCF8091E80080FF83CF38
:101A10008091F20090E02115310519F08830910590
:101A200050F041E0089709F040E08091E8008E779F
:101A30008093E80070CF44914093F100319621509B
:101A400031090196E8CF803809F04EC08091E80056
:101A5000877F8093E800809103028093F1009ECEFF
:101A6000811142C0109106021230F0F58091E80019
:101A7000877F8093E800109303020E946402112381
:101A800011F084E005C08091E30087FDFACF81E08A
:101A90008093020242E061EC81E00E94830242E214
:101AA00061EC84E00E94830242E261EC82E00E94E9
:101AB000830242E260EC83E00E9483028091020292
:101AC00013C080910602813079F481E0933009F0EF
:101AD00080E0809301021092E9008091E800877F06
:101AE0008093E8000E9464028091E80083FF0AC0AE
:101AF0008091E800877F8093E8008091EB0080620E
:101B00008093EB00AA96E3E00C9489161092F501FD
:101B10000E949A0A2FEF84E39CE02150804090407D
:101B2000E1F700C0000088E19CE00FB6F894A895AA
:101B3000809360000FBE90936000FFCF1F93CF9300
:101B4000DF93182FEB010E94E509209739F4812FCC
:101B50000E948409DF91CF911F9108958FE99FE042
:101B60000197F1F700C000002197EFCFA4E1B0E0AA
:101B7000ECEBFDE00C9463164F87588B698B7A8BE6
:101B80008B8B9C8B192F91111092A30186E0FE0183
:101B90003F96DE01199601900D928A95E1F78D85A9
:101BA000882309F4B4C061E0CE0109960E941709A8
:101BB000111119C08631FCE79F0709F04FC18E85CE
:101BC000882309F441C18091F5018A7A91E009F4F2
:101BD00090E090938201811135C189E20E945A03FD
:101BE0000E94310994C09C0137572038310510F705
:101BF000182F803108F08BC08FEF91E00E94F11612
:101C0000811185C048E2C42EDD24D39411114CC04B
:101C1000FE01339686E0DF011D928A95E9F7860181
:101C20000F5F1F4FC6010E94F11689831A82882315
:101C300009F46DC0813009F06EC07601B2E0EB0EA0
:101C4000F11CC8010E94F1168A83882309F45FC041
:101C50009FEF980F9330B0F5E3E0CE0ED11CC70193
:101C60000E94F1168B83882309F451C01C828E01D7
:101C70000F5F1F4FD8012C91222389F2213009F0E8
:101C800087C011969C91119712968C91913009F012
:101C900044C00E5F1F4F70E060E0893311F460E5CF
:101CA00070E00E949E0D3FC0C11422E0D20679F17F
:101CB000C6010E94F116811101C011503FEFC31AF5
:101CC000D30AA4CF6701843091F602E010E06701E7
:101CD000FFEFCF1ADF0AC7010E94F116E1E0F0E042
:101CE000EC0FFD1FE00FF11F8083882381F08C37FC
:101CF00041F4E2E0F0E0EC0FFD1FE00FF11F108275
:101D0000B6CF0F5F1F4F76010730110501F76496BC
:101D1000EDE00C947F166801AACF923039F40E5F83
:101D20001F4F0E94E5090F5F1F4FA4CF933029F486
:101D30000E5F1F4F0E948409F6CF943019F00F5F99
:101D40001F4FF1CF0E5F1F4F50E040E0D8011196BA
:101D5000F801F180682F6053770B9B016A307105A1
:101D600060F041155105F9F28FE99FE00197F1F715
:101D700000C0000041505109F4CFCA016AE070E090
:101D80000E949E16A901480F591F8F2D8D01DECF8D
:101D9000E22FF0E0E054FE4F7490E22FE695E695D6
:101DA000E6958E2F90E0FC01E055FE4FA490277041
:101DB000B12C022E02C0B594A7940A94E2F7A1E0D8
:101DC000AA22BB24FC01E056FE4F8490912C022EE7
:101DD00002C0959487940A94E2F7B1E08B2299248B
:101DE000FC01E057FE4FE490F12C02C0F594E7941B
:101DF0002A95E2F7E1E0EE22FF24A114B10419F0E4
:101E000081EE0E94E5098114910419F086EE0E948A
:101E1000E50970E060E0872D0E949E0D8114910419
:101E200019F086EE0E948409A114B10419F081EE24
:101E30000E948409E114F10409F475CF70E060E0B8
:101E40008CE22FCF85E3CACE80918201811104C03C
:101E500089E20E942F03C4CE85E3FBCF9C01275764
:101E60003C472230310508F452CF2E85222311F150
:101E700081302CE79207E1F083303CE7930791F043
:101E800081159C47B9F41092F5010E949A0A7FEFE0
:101E900084E39CE0715080409040E1F700C0000076
:101EA0000E94BD066FEF7FEF90E080E00E942D174B
:101EB0000E94860D09851A858091AF010E942F0628
:101EC000B8010E9409090E94B5048C01803E910569
:101ED00018F58D3C910508F074C0883A910570F4AE
:101EE000853A910508F064C08130910509F10097A9
:101EF000F9F00497E8F410E000E01AC0833C910583
:101F0000D0F7085AE02FF0E0EE0FFF1FE05FFE4F22
:101F10000081118114640CC08115A0E29A07A0F51C
:101F20008115B1E09B0708F04EC0883E910518F777
:101F3000912F6E85812F82958F70843009F47FC038
:101F400008F057C0823008F0E2CE9F70F92E812F42
:101F5000807F19F0F29480EFF822E02E662309F4D6
:101F600055C0FF2069F080E2800F883010F0011129
:101F700047C09091F501F92AF092F5010E943109CC
:101F80008E2D0E94E509C3CE8115E0E59E0760F124
:101F9000805A9245809708F0AECF802F8F710E94B3
:101FA0006604082F10E0102F002700271F71C0CFF4
:101FB000055AE02FF0E0E35FFE4F008110E010646F
:101FC000B7CF1065B5CF812F0E946604F82EC801E7
:101FD00099270E94B5040F2D10E0102F002700272D
:101FE0001F71082B192BA4CF99270E94B5048C01CF
:101FF0009FCF853009F08BCE802F0E94570587CE6A
:102000009091A301F92AF092A301B8CF802F0E94EA
:102010008409FF2009F47BCEF09480E2800F8830A1
:1020200010F0011106C09091F501F922F092F5012E
:10203000D7CD9091A301F922F092A301D1CD812FA8
:1020400086958695837061F0813009F060CE802F8F
:102050009370611102C080E090E00E948E0357CE21
:10206000802F9370611102C080E090E00E94B30362
:102070004ECEA6E0B0E0EFE3F0E10C946C160E94C7
:1020800023038C018091AC019091AD0180179107E1
:1020900081F019821A820E942303682F49815A8194
:1020A000792F80E090E00E94B60D1093AD0100936F
:1020B000AC012696E4E00C9488161F920F920FB69E
:1020C0000F9211242F933F934F935F936F937F93BE
:1020D0008F939F93AF93BF93CF93DF93EF93FF9330
:1020E000D091E900DF708091EC00C82FC17080FDB5
:1020F000C0E81092E9008091F000877F8093F000A3
:1021000078940E94C90A1092E9008091F0008860DA
:102110008093F000CD2BCF70C093E900FF91EF9139
:10212000DF91CF91BF91AF919F918F917F916F91EF
:102130005F914F913F912F910F900FBE0F901F9085
:1021400018951F920F920FB60F9211242F933F9361
:102150004F935F936F937F938F939F93AF93BF93AF
:10216000EF93FF938091E10082FF09C08091E2002C
:1021700082FF05C08091E1008B7F8093E100809118
:10218000E10080FF17C08091E20080FF13C08091C2
:10219000E2008E7F8093E2008091E2008061809374
:1021A000E2008091D80080628093D80019BC85E05D
:1021B000809302028091E10084FF2BC08091E200B5
:1021C00084FF27C084E089BD86E089BD89B5982F4A
:1021D000917080FFFBCF8091D8008F7D8093D800D5
:1021E0008091E1008F7E8093E1008091E2008F7EFC
:1021F0008093E2008091E20081608093E200809110
:102200000302882309F441C084E080930202809194
:1022100002028091E10083FF27C08091E20083FFEA
:1022200023C08091E100877F8093E10082E080936A
:102230000202109203028091E1008E7F8093E10000
:102240008091E2008E7F8093E2008091E2008061C5
:102250008093E20042E060E080E00E94830280918F
:10226000F00088608093F000FF91EF91BF91AF91F3
:102270009F918F917F916F915F914F913F912F919E
:102280000F900FBE0F901F9018958091E30087FD6F
:1022900093E090930202BBCF78941F921FB61F92D7
:1022A00011248F939F93AF93BF938091F1019091ED
:1022B000F201A091F301B091F4010196A11DB11DAD
:1022C0008093F1019093F201A093F301B093F40194
:1022D000BF91AF919F918F911F901FBE1F90189536
:1022E0001F921FB61F9211248F939F93AF93BF939A
:1022F0008091F001811113C08091F1019091F20160
:10230000A091F301B091F4014196A11DB11D8093FC
:10231000F1019093F201A093F301B093F401BF9106
:10232000AF919F918F911F901FBE1F901895CDB7B1
:10233000DEB7A6970FB6F894DEBF0FBECDBF84B749
:10234000877F84BF0FB6F894A8958091600088615C
:1023500080936000109260000FBE80E890E00FB69E
:10236000F89480936100909361000FBE84E694E03E
:1023700090935701809356011092E2001092E10071
:102380008091E00081608093E0008091D8008F7799
:102390008093D80019BC80916300816080936300B2
:1023A0001092AE01809163008E7F8093630081E084
:1023B0008093AE011092E2001092E1008091D8006B
:1023C0008F778093D8008091D80080688093D80060
:1023D0008091D8008F7D8093D80084E089BD86E00D
:1023E00089BD89B5282F2170F22E80FFFACF109277
:1023F000020210920302109201021092000242E0C7
:1024000060E080E00E9483028091E1008E7F8093F3
:10241000E1008091E20081608093E2008091E2001F
:1024200088608093E2008091E0008E7F8093E000DE
:102430008091E20084608093E200789480910202AF
:102440008823A1F01091E9001F709091EC00892F72
:10245000817090FD80E8182B1092E9008091E800CF
:1024600083FD0E94C90A1F701093E90082E084BDB9
:1024700093E095BD9AEF97BD80936E000E94C308CC
:10248000811102C00E94B3080E94E40790E080E03E
:102490000E94F916853E9E4F21F40E94C3088111C7
:1024A00063C065EE7EEF90E080E00E942D1760E053
:1024B00082E090E00E940F1781E08093AF0161E01D
:1024C00083E090E00E940F1760E074E184E090E008
:1024D0000E942D1760E086E090E00E940F1760E0F8
:1024E00087E090E00E940F1740E050E0BA0188E0DA
:1024F00090E00E94211760E083E290E00E940F17B5
:1025000060E08CE090E00E940F1760E08DE090E0CA
:102510000E940F1719821A821B821C821D821E8242
:102520001F82188648E050E067E170E0CE01019616
:102530000E94FF1640E050E0BA018FE190E00E9457
:10254000211780E00E9441080E94B30840E050E05B
:10255000BA018FE090E00E94211740E050E0BA01FC
:1025600083E190E00E94211782E090E00E94F11642
:102570008093B00184E090E00E94F9169093EF01FF
:102580008093EE010E94F7078FEF96E7E1E081501C
:102590009040E040E1F700C000000E94F707809102
:1025A000C30183FF08C06FEF7FEF90E080E00E94DF
:1025B0002D170E94BD0683E090E00E94F1168093E3
:1025C000AF0182E091E09093EB018093EA0148E152
:1025D000642E712C52EDC52E51E0D52EEE24E394DD
:1025E0005524539480910202853071F48091020247
:1025F000853009F457C01092F5010E949A0A0E9492
:10260000E60380950E94BF070E94F70701EB11E0E7
:1026100032ECA32E31E0B32ED501F80191918D91CA
:1026200021E0E13CF20709F471C09817B9F3912C4D
:10263000F50181905F01F80121908F01281411F1BB
:10264000412C3F2C2824822D8321A1F049A29AA25B
:102650000E9423039CA38BA35DA291E0882D83217C
:1026600009F490E09EA349A15AA16BA17CA18DA180
:102670000E94B60D4394330CF8E04F12E4CFF801FA
:1026800031978082939420E19212D2CF8FB7F89441
:102690004091F1015091F2016091F3017091F401C8
:1026A0008FBF38C080910202843029F18FEF0E94E1
:1026B000BF071092F001F0E40FB6F894A89560926D
:1026C00060000FBEF093600083B7817F846083BF9A
:1026D00083B7816083BF7894889583B78E7F83BFEB
:1026E0000FB6F894A895809160008861809360008F
:1026F000109260000FBE0E94F707E2ECF1E08191BA
:102700008111A5C2CE16DF06D1F770CF98138FCFF7
:102710000E94391086E0E2EEF1E0DE0111960190B0
:102720000D928A95E1F78090E301B090E401109159
:10273000E501A090E6010091E7011092E4011092FA
:10274000E5011092E6011092E701812F8B2909F42F
:1027500043C08091E0019091E1010E9414039C012B
:102760009091DB01992309F4A4C225313105A0F130
:102770009F3F19F09F5F9093DB01BB2051F00E94B7
:1027800033046FEF1B140CF46F2D0E949516809389
:10279000E401112351F00E9433046F2D11160CF047
:1027A0006FEF0E9495168093E5018091E4018823E4
:1027B00099F09090E501992079F00E9454048823C3
:1027C00009F4AAC08093E401892D0E94540488234F
:1027D00009F4A5C08093E5018A2D802B09F443C03C
:1027E0008091DE019091DF010E9414039C01909181
:1027F000DC01992309F458C221353105A0F19F3F2E
:1028000019F09F5F9093DC01AA2051F00E940F0401
:102810006FEF1A140CF46F2D0E9495168093E60149
:10282000002351F00E940F046F2D10160CF06FEF73
:102830000E9495168093E7018091E601882399F024
:10284000A090E701AA2079F00E945404882309F49B
:1028500069C08093E6018A2D0E945404882309F4FC
:1028600064C08093E7018091E301881117C08091D3
:10287000E401882311F08B1111C02091E50122237E
:1028800011F012130BC09091E701992311F09013EE
:1028900005C03091E601332309F4F8C10E94F30327
:1028A00086E0FE013196A2EEB1E001900D928A958C
:1028B000E1F70E94E6039091C101891781F08093AE
:1028C000C1019FB7F8944091F1015091F2016091DC
:1028D000F3017091F4019FBF80950E94BF07809122
:1028E0000202843029F18091D9019091DA010E948D
:1028F00014030C9708F476CE0E9423039093DA0118
:102900008093D90183E00E943307009709F04DC1FD
:1029100021E02093D80166CEE092E40155CFE09209
:10292000E5015ACFE092E60196CFE092E7019BCF16
:1029300083E08093E9008091E80082FFD4CF80910A
:10294000E80090E085FF05C00E943302882389F0EB
:1029500091E08091E8008B778093E800992319F249
:10296000E981E150E33160F5F0E0E15BF84E0C9471
:10297000C31600E210E0CE0101965C018091E800F0
:1029800085FD0AC08091E8008B778093E8000E9463
:102990003302882399F3DCCF8091F100F501819314
:1029A0005F010150110951F7D3CF1A828CE08B835C
:1029B00024C08A81823009F46EC128F4813061F02C
:1029C0008FEF89831AC0833009F18430C9F71B82E5
:1029D0001C821D821E8211C02FB7F8946091F101F4
:1029E0007091F2018091F3019091F4012FBF0E9448
:1029F000C9166B837C838D839E8340E250E0BE01C9
:102A00006F5F7F4F82E00E9459066DCF2B81822F2E
:102A100090E0FE013496245E8031910570F7DC0170
:102A2000AE53BE4F3C91319301962813F5CFE5CFBD
:102A30008A81823019F0853001F3C2CF6B817C81AD
:102A40008D819E810E94C91687E290E00E940F1737
:102A5000D4CF4C816B818A810E94DC08982789271A
:102A600098279E838D83C9CF2D813E8132272327CE
:102A700032274C816B818A810E946A08BECF0E94F6
:102A80008E08BBCF80E18A83B8CF1A8288ED8FCFC2
:102A90000A811B81102701271027CE0101965C01B6
:102AA0008C80FC01E80DF11D4F01C801885D9E4F2F
:102AB0008A149B0409F4A1CF083D110550F40E942B
:102AC000F116F50184830F5F1F4FFFEFAF1ABF0AA6
:102AD000ECCFF5011482F7CF0A811B811027012763
:102AE0001027CE0101964C01AC80A00EB12EB11C76
:102AF000C801885D9E4FA016B10609F47ECF083D3F
:102B0000110520F4F40164810E940F17FFEF8F1A62
:102B10009F0A0F5F1F4FECCF0E945A086ECFEA82C8
:102B20006CCF0A811B81102701271027CE01019647
:102B30005C018C80FC01E80DF11D4F01C8018896F5
:102B4000A814B90409F459CF0F3F110509F050F446
:102B50000E94F116F50184830F5F1F4FFFEFAF1A3C
:102B6000BF0AECCFF5011482F7CF0A811B81102731
:102B700001271027CE0101964C01AC80A00EB12E8A
:102B8000B11CC80188960A151B0509F436CF0F3F02
:102B9000110509F020F4F40164810E940F17FFEF82
:102BA0008F1A9F0A0F5F1F4FECCF97FD05C0209132
:102BB000D30121602093D30197FF05C02091D30159
:102BC0002E7F2093D301E92FFF27EF73FF27BC014E
:102BD0006F73772786FF02C06054710996FF02C0A9
:102BE000E054F109A091D8010A2E000CBB0BCD01D5
:102BF0000E949E169C01CD01BF010E949E162F3798
:102C000031050CF521384FEF340714F421E83FEF7C
:102C10002093D4018F379105C4F48138EFEF9E07DC
:102C200014F481E89FEF8093D50182ED91E00E943A
:102C3000D8039091D80181E098300CF080E0890FA2
:102C40008093D801CFCC2FE7E3CF8FE7ECCF8091F3
:102C50000102882309F4CACC24E029BD46E049BD1D
:102C600009B400FEFDCF8091D8008F7D8093D800FD
:102C70008091E00082608093E0008091E00081FD1F
:102C8000FCCF1092F5010E949A0AB0CC822B892BBE
:102C900009F406CE03CE87E290E00E94F1161B8273
:102CA0001C821D828E83A9CE2B30310508F0A9CD60
:102CB000DACD2B30310508F05DCD8ECD2F923F92CD
:102CC0004F925F926F927F928F929F92AF92BF923C
:102CD000CF92DF92EF92FF920F931F93CF93DF93E8
:102CE000CDB7DEB7CA1BDB0B0FB6F894DEBF0FBE45
:102CF000CDBF09942A88398848885F846E847D8492
:102D00008C849B84AA84B984C884DF80EE80FD8093
:102D10000C811B81AA81B981CE0FD11D0FB6F89409
:102D2000DEBF0FBECDBFED010895002480FD060E6D
:102D3000660F11F08695D1F7802D08950024552750
:102D400004C0080E591F880F991F009729F0769527
:102D50006795B8F37105B9F7802D952F089597FB06
:102D6000072E16F4009407D077FD09D00E94D016E4
:102D700007FC05D03EF4909581959F4F089570957E
:102D800061957F4F0895EE0FFF1F0590F491E02DA0
:102D90000994692796276927782787277827089530
:102DA000AA1BBB1B51E107C0AA1FBB1FA617B70771
:102DB00010F0A61BB70B881F991F5A95A9F780958D
:102DC0009095BC01CD010895FB01DC0104C08D91FB
:102DD0000190801921F441505040C8F7881B990B8D
:102DE0000895F999FECF92BD81BDF89A992780B5D3
:102DF0000895A8E1B0E042E050E00C943517DC0102
:102E0000A40FB51F4150504048F0CB01840F951FCF
:102E10002E910E94101741505040D0F70895262F50
:102E2000F999FECF92BD81BDF89A019700B40216C0
:102E300039F01FBA20BD0FB6F894FA9AF99A0FBE6E
:102E400008950396272F0E9410170E940F17252F11
:102E50000E941017242F0C9410170196272F0E9400
:102E600010170C940F17DC01CB01FC01F999FECF70
:102E700006C0F2BDE1BDF89A319600B40D92415002
:102E80005040B8F70895F894FFCFAA0BD20B740DF9
:102E9000D20B740D050C260C740D230D300DD514BA
:102EA000D9141815291534153F15E014E014E01451
:102EB000E014E0144215451548156C158C158F1556
:042EC0009115B5159E
:102EC400FFFF1103A906A2069B06940601818283D3
:102ED400E200E900EA00B500B600B700CD008301C6
:102EE400CC008A01920194012102230224022502CA
:102EF400260227022A02B300B4006F0070009F016B
:102F0400CB019F02A0024422B64C012A0174005254
:062F1400036B038B0300B8
:00000001FF
